:020000040800F2
:10000000B00D00204D2600089D0400089F04000844
:10001000A3040008A7040008AB04000800000000C7
:10002000000000000000000000000000AF04000815
:10003000B104000800000000B3040008B504000883
:10004000672600086726000867260008672600085C
:10005000672600086726000867260008672600084C
:10006000672600086726000867260008672600083C
:10007000672600086726000867260008672600082C
:10008000672600086726000867260008672600081C
:10009000010A00086726000867260008672600088E
:1000A00067260008672600086726000867260008FC
:1000B00067260008672600086726000867260008EC
:1000C00067260008672600086726000867260008DC
:1000D00067260008C3250008672600086726000871
:1000E00067260008672600086726000867260008BC
:1000F00067260008672600086726000867260008AC
:100100006726000867260008B7040008672600086D
:10011000672600086726000867260008672600088B
:10012000672600086726000867260008672600087B
:10013000672600086726000867260008672600086B
:100140001D0F0008672600086726000867260008BC
:10015000672600086726000867260008672600084B
:10016000672600086726000867260008672600083B
:10017000672600086726000867260008672600082B
:10018000672600086726000800F002F800F05CF817
:100190000AA090E8000C82448344AAF10107DA45E2
:1001A00001D100F051F8AFF2090EBAE80F0013F0D8
:1001B000010F18BFFB1A43F00103184764650000E4
:1001C000846500000A444FF0000C10F8013B13F066
:1001D000070408BF10F8014B1D1108BF10F8015BA0
:1001E000641E05D010F8016B641E01F8016BF9D193
:1001F00013F0080F1EBF10F8014BAD1C0C1B09D1EA
:100200006D1E58BF01F801CBFAD505E014F8016B5B
:1002100001F8016B6D1EF9D59142D6D370470000ED
:100220000023002400250026103A28BF78C1FBD8FF
:10023000520728BF30C148BF0B6070471FB506F09A
:100240007DF81FBD10B510BD05F065F91146FFF72B
:10025000F5FF00F009F805F09BF903B4FFF7F2FF92
:1002600003BC02F049F900002DED048B00F06EFA9A
:10027000A82002F0BFF84FF4E13002F04CF900F092
:1002800095FA00F0D9FA01F0F9F801F09DFE01218C
:10029000774804F075FA00F071FF01F044FA00208D
:1002A00074490870E2E00320724908700FE001F021
:1002B00097FA00F0ADFF40216F4802F05BFB802110
:1002C0006D4802F057FB4FF47A7002F0ADF86948C0
:1002D00000780028EBD06748007801282AD11DE07B
:1002E000664890ED000A01F052FDB0EE409A01F030
:1002F00062FCF0EE408A01F09CFBB0EE408A01F017
:10030000C1F901F06DFA00F083FF4FF47A7002F04A
:100310008BF85B480068401C5949086058480068E1
:10032000B0F5FA7FDCDB01F004FA002054490860E4
:10033000504908704F48007802282DD121E05148DB
:1003400090ED000A01F037FCF0EE408A01F071FBFD
:10035000B0EE408A01F096F901F042FA4A4800688E
:100360000A2190FBF1F201FB120008B900F050FFE6
:100370004FF47A7002F058F843480068401C424934
:100380000860414800686428D9DB01F0D2F90020F8
:100390003D4908603749087036480078032817D16E
:1003A0009FED3A0A01F0F3FCB0EE409A01F003FC35
:1003B000F0EE408A01F03DFBB0EE408A01F062F9B8
:1003C00001F00EFA00F024FF4FF47A7002F02CF8DE
:1003D00028480078042813D1B6EE080A01F0EBFB98
:1003E000F0EE408A01F025FBB0EE408A01F04AF9B8
:1003F00001F0F6F900F00CFF4FF47A7002F014F8F7
:100400001C48007805280BD101F0EAF900F000FF44
:100410009FED1F0A01F036F94FF47A7002F004F8EC
:1004200014480078062821D115E01A4890ED000AFA
:1004300001F0FFFAB0EE408A01F024F901F0D0F9A2
:1004400000F0E6FE4FF47A7001F0EEFF124800680B
:10045000401C11490860104800686428E5DB01F081
:1004600068F900200C490860024908701BE7000089
:10047000000C0040980000200000024070000020A6
:1004800038000020740000203C0000200000000024
:10049000CDCCCC3D7800002040000020704700BF4C
:1004A000FEE700BFFEE700BFFEE700BFFEE77047C4
:1004B00070477047704710B501211D4804F08FFD4B
:1004C000012834D101211A4804F09AFD184824303B
:1004D0000068B0F5004F12D9164890ED000AF7EE0B
:1004E000000A30EE600A80ED000A134890ED000A21
:1004F000F7EE000A30EE600A80ED000A17E00C48C3
:1005000024300068B0F5004F11D20A4890ED000A7F
:10051000F7EE000A30EE200A80ED000A064890ED62
:10052000000AF7EE000A30EE200A80ED000A10BD46
:10053000000C004094000020000000200CB50020BA
:10054000019000907648006840F48030744908605B
:1005500000BF7348006800F4003000900198401C10
:100560000190009818B90198B0F5A04FF1D16C48EE
:10057000006800F4003010B10120009001E000207C
:1005800000900098012846D165484030006840F04E
:1005900080506349403108606248006840F4404040
:1005A000604908605E48083000685D4908310860AD
:1005B0000846006840F4004008600846006840F4BF
:1005C000A05008605848091F0860081F006840F0E4
:1005D0008070091F086000BF5148006800F000707B
:1005E0000028F9D040F20570504908604C480830A6
:1005F000006820F003004A49083108600846006896
:1006000040F00200086000BF45480830006800F074
:100610000C000828F8D10CBD10B54548006840F41E
:100620007000434908603E48006840F001003C49C2
:10063000086000203A4908310860394800683D499F
:100640000840374908603C48091D0860081F0068D9
:1006500020F48020091F0860002031490C31086017
:10066000FFF76CFF4FF0006031498039086010BD22
:1006700070B500200022022300240221284D0835F5
:100680002D6805F00C0020B1042806D0082834D1CC
:1006900007E02A4D2A4E356033E02A4D284E35605A
:1006A0002FE01F4D2D1D2D68C5F380541C4D2D1DB1
:1006B0002D6805F03F0154B1224DB5FBF1F5184E00
:1006C000361D3668C6F3881605FB06F209E01B4D99
:1006D000B5FBF1F5124E361D3668C6F3881605FBDC
:1006E00006F20F4D2D1D2D68C5F301456D1C6B00E5
:1006F000B2FBF3F5124E356003E0104D104E35603D
:1007000000BF00BF064D08352D68C5F303150E4E1A
:10071000705D0B4D2D68C540094E356070BD000001
:10072000003802400070004008544007003C02407E
:1007300088ED00E0FFFFF6FE103000240024F400F6
:10074000A000002000127A00A400002008B54FF499
:10075000407001F09BFF14208DF8000001208DF8FF
:1007600001008DF802008DF80300684601F093FF48
:1007700040208DF8000001208DF8010002208DF846
:10078000020001208DF80300684601F084FF32204A
:100790008DF8000000208DF801008DF80200012086
:1007A0008DF80300684601F076FF08BD1CB50121F5
:1007B000202002F0FFFA4FF4C060009001208DF875
:1007C000040000208DF8060003208DF805000120AC
:1007D0008DF807006946024802F04EF81CBD000083
:1007E0000014024010B50246002000BF20E000EBDC
:1007F0008003FE4C54F82330934218D100EB800361
:1008000004EB83031B79CB7000EB800304EB8303C1
:100810001B7A0B7100EB800304EB83031B7B4B7192
:1008200000EB800304EB83031B8A0B8010BD401C8C
:100830001228DCD300BFF9E700B589B001210820F8
:1008400002F0B8FA0120079002208DF820008DF800
:10085000210000208DF8220001208DF8230007A937
:10086000E34802F009F80220079007A9E04802F0E7
:1008700003F809220021DE4802F089F8092201214B
:10088000DB4802F084F80121480602F0DCFAD9487E
:1008900002F00EFE04A802F02FFF00208DF81600D3
:1008A0008DF817008DF8180001208DF81900002030
:1008B0008DF81A008DF81B008DF8120004A94FF472
:1008C000FA70FFF78FFF04A9CA4802F00AFE002061
:1008D0008DF80A008DF80B0001208DF80C00C64839
:1008E00000884FF6FF7101EA4010ADF80000C348E0
:1008F0000088ADF80200C248008801EA4010ADF857
:100900000400C0480088ADF806000020ADF80800DB
:1009100001208DF80D00684602F06DFE01220221D3
:10092000B44803F067F909B000BD00B589B00121F2
:10093000022002F03FFA2020079002208DF82000CC
:100940008DF8210000208DF8220001208DF8230071
:1009500007A9AD4801F090FF4020079007A9AA48D9
:1009600001F08AFF09220521A74802F010F80922A8
:100970000621A54802F00BF801214FF0C06002F0FB
:1009800062FAA24802F094FD04A802F0B5FE00202D
:100990008DF816008DF817008DF818008DF81900E5
:1009A0008DF81A008DF81B008DF8120004A94FF481
:1009B000FA70FFF717FF04A9944802F092FD0E2089
:1009C0008DF80A0000208DF80B0001208DF80C0036
:1009D0000020ADF80000ADF80200ADF80400ADF85D
:1009E0000600ADF8080001208DF80D00684602F001
:1009F00002FE01220221854803F0FCF809B000BD87
:100A0000F0B585B000240020009001908DF808001A
:100A10008DF80A008DF8130000BF05E000210DF1EC
:100A20000B000155601CC4B2082CF7DB6A4600219C
:100A3000704802F0C4FF0098C0F3C7100B2817D10C
:100A400000259DF80B004511012D10D19DF80D10CA
:100A50009DF80C0041EA00269DF810109DF80F004B
:100A600041EA0027022E01DAFFF7E6FE00BF07E2A7
:100A70000098C0F3C7100328F9D100219DF80B009E
:100A8000411119B90020624A1070F8E101297DD1A5
:100A900000239DF80B50012606EA950515B9B7EE1F
:100AA000000A01E0BFEE000A00209DF80C504FF450
:100AB0007F0606EA054528439DF80D50361206EAE2
:100AC000052528439DF80E50284300EE900AF8EEC5
:100AD000600A60EE800A9FED4F1A60EE810A9FED7A
:100AE0004E1AC0EE811A4D4DD5ED000AF4EE601A93
:100AF000F1EE10FA0FD000EE900AF8EE600A60EE08
:100B0000800A9FED441A60EE810A9FED431AC0EE01
:100B1000811AC5ED001A00239DF80B5005F0010560
:100B200025B9F7EE000AB0EE600A03E0FFEE000A16
:100B3000B0EE600A00229DF80F504FF47F4606EA9F
:100B400005252A439DF810502A4300EE902AF8EE1E
:100B5000600A60EE800A9FED2F1A60EE810A9FED19
:100B6000301AC0EE811A2F4DD5ED000AF4EE601A4E
:100B7000F1EE10FA11D000EE902AF8EE600A60EE65
:100B8000800A9FED241A60EE810A00E0AEE09FED3E
:100B9000241AC0EE811AC5ED001A234DD5ED010AC5
:100BA000C5ED000A1D4DD5ED000A1F4DC5ED010A2A
:100BB00000251E4E3560DFED1E0A1E4DC5ED000AF4
:100BC000DFED1B0AC5ED010ADFED190AC5ED020ACA
:100BD000DFED170AC5ED030A174DD5ED000A154DD7
:100BE000C5ED000A0D4DD5ED000A27E0B4650008FB
:100BF000000C024000640040B4000020B800002057
:100C0000BA000020BE00002000040240006800403E
:100C100098000020DB0F494000C82F4870000020DA
:100C200000A00C47740000208C0000202404004029
:100C3000000000001804002068000020B0EE081A30
:100C400060EE810AF64D95ED001AF64DD5ED001ACD
:100C500041EE610AF44D95ED001AF0EE081A41EEEE
:100C6000C10AEF4D95ED001AF0EE001A21EE211A9F
:100C7000C0EE811AED4DC5ED011A5FED130AC5ED09
:100C8000020AE74DD5ED000AB0EE081A60EE810ABF
:100C9000E44D95ED001A60EE810AE54D95ED001AE0
:100CA000F0EE081A41EEC10ADF4D95ED001AF0EEA4
:100CB000081A41EE810ADA4D95ED001AF1EE081A94
:100CC00021EE211AD5ED001A21EE211AD5ED001AD8
:100CD00021EE211AC0EE811AD44DC5ED031A00256C
:100CE000D44E35600125D44E3570C8E0022901D0BC
:100CF00004297CD19DF80B2002F0010212B9B7EE55
:100D0000000A01E0BFEE000A00209DF80F204FF41A
:100D10007F4303EA022210439DF81020104300EEA7
:100D2000900AF8EE600A60EE800A1FED461A60EE47
:100D3000810A1FED451AC0EE811ABA4AD2ED000AA7
:100D4000F4EE601AF1EE10FA0FD000EE900AF8EE11
:100D5000600A60EE800A1FED511A60EE810A1FEDF5
:100D6000501AC0EE811AC2ED001AB44AD2ED010A3F
:100D7000C2ED000AAB4AD2ED000AB04AC2ED010A48
:100D80000022AF4B1A60AD4AD2ED000A92ED011A73
:100D900070EEC10AB0EE001A20EE811AA04AD2ED20
:100DA000001AC1EE210AD2ED001A80EEA11AD2ED8E
:100DB000000AC1EE201AA34AC2ED001A9F4AD2EDE2
:100DC000010A92ED001A70EEC10AB0EE081A20EE88
:100DD000811A934AD2ED001AC1EE210A92ED001A4F
:100DE000C0EE811A974AC2ED011A944A00E00BE066
:100DF000D2ED000A934AC2ED020A0022924B1A6019
:100E000002228D4B1A703AE0032903D103208A4A4B
:100E1000107034E0062932D19DF80B20012303EA3B
:100E2000520212B9B7EE000A01E0BFEE000A9DF8C7
:100E300012309DF8112003EB022290B201EE100A4D
:100E4000B8EE411A21EE001ADFED801A81EE212A58
:100E5000B1EE041A62EE010A7D4AC2ED000A7D4A33
:100E6000C2ED010A92ED011A82ED001A0022744BC4
:100E70001A60794B1A6006226F4B1A7000BF00BFD0
:100E800005B0F0BDF0B585B005460E4600270095CB
:100E9000002001908DF808008DF8090008208DF8D9
:100EA0000A006E480670002406E06C48015D0DF1F2
:100EB0000B000155601CC4B2082CF6DB694668487B
:100EC00002F088FC074605B0F0BDF0B585B00646D7
:100ED0000F46154600246348007800F07F004FF469
:100EE000F06101EAC6110843009001200190002042
:100EF0008DF808008DF809008DF80A5000BF05E054
:100F0000395D0DF10B000155601CC4B2AC42F7DB3A
:100F10006946534802F05EFC05B0F0BD00B585B0EF
:100F20000020009001908DF808008DF80A008DF8DF
:100F300013008DF80B006A4600214B4802F03FFD7C
:100F400001204A4908700221474802F056FF05B0C7
:100F500000BDF0B585B005460E460027009500207F
:100F600001908DF808008DF8090008208DF80A001E
:100F70003F480670002406E03D48015D0DF10B007E
:100F80000155601CC4B2082CF6DB6946364802F0F5
:100F900021FC074605B0F0BD1CB500200090019073
:100FA000344800788DF80100324840788DF802000E
:100FB000304880788DF803002F4800788DF80400C1
:100FC0002D4840788DF805002C4800788DF80600F3
:100FD0002A4840788DF8070029480078002805DD68
:100FE0009DF8000040F004008DF8000025480078CE
:100FF000002805DD9DF8000040F001008DF800009C
:1010000021480078002805DD9DF8000040F002002E
:101010008DF80000082269460020FFF756FF1CBD2E
:101020003400002074000020680000201804002014
:101030007000002038000020980000207C00002074
:1010400024040040280400203C00002000FF7F47CB
:10105000780000208400002040000020C000002014
:1010600000640040B400002000680040D10000206F
:10107000C900002047000020440000204D0000204F
:101080004A000020460000204F0000201CB5002030
:1010900000900190DF4800788DF80000DD4840782E
:1010A0008DF80100082269460120FFF70EFF1CBDE4
:1010B0001CB5002000900190D74800788DF8000002
:1010C000D54840788DF80100D44800788DF80200AA
:1010D000D24840788DF80300D14800788DF804009C
:1010E000CF4840788DF80500082269460220FFF7B6
:1010F000ECFE1CBD1CB5002000900190C948007892
:101100008DF80000C74840788DF80100C648007887
:101110008DF80200C44840788DF80300C348007879
:101120008DF80400C14840788DF805000822694612
:101130000320FFF7CAFE1CBD1CB5002000900190E3
:10114000BB4800788DF80000B94840788DF8010060
:10115000B84800788DF80200B64840788DF8030052
:10116000B54800788DF80400B34840788DF8050044
:10117000082269460420FFF7A8FE1CBD1CB500200C
:1011800000900190AD4800788DF80000AB484078A1
:101190008DF80100A94880788DF80200A748C07832
:1011A0008DF80300A54800798DF80400A348407924
:1011B0008DF80500A14880798DF806009F48C07918
:1011C0008DF80700082269460520FFF77EFE1CBD4A
:1011D00010B5FFF7E1FEC82001F026F9FFF756FF32
:1011E000C82001F021F9FFF763FFC82001F01CF9C6
:1011F000FFF780FFC82001F017F9FFF79DFFC82017
:1012000001F012F9FFF7BAFFC82001F00DF910BD87
:1012100010B52DED088B00248948006804F0D8FF34
:1012200041EC1B0BB0EE4B0AF0EE6B0A04F039FAFE
:10123000B0EE40AAF0EE60AA9FED820B53EC102BAB
:1012400051EC1A0B04F072FC41EC190B9FED7F0B73
:1012500053EC102B04F030FA41EC180B04F0EAFBCD
:1012600000F47F00000C7B4908707548006804F0AA
:10127000AFFF41EC1B0BB0EE4B0AF0EE6B0A04F033
:1012800010FAB0EE40AAF0EE60AA9FED6E0B53ECA0
:10129000102B51EC1A0B04F049FC41EC190B9FED9B
:1012A0006B0B53EC102B04F007FA41EC180B04F015
:1012B000C1FB00F47F40000A66494870604800683E
:1012C00004F086FF41EC1B0BB0EE4B0AF0EE6B0A0C
:1012D00004F0E7F9B0EE40AAF0EE60AA9FED590BDA
:1012E00053EC102B51EC1A0B04F020FC41EC180BC2
:1012F0009FED560B53EC102B04F0DEF941EC190B6B
:1013000004F098FB534988704D4890ED000AB5EE03
:10131000C00AF1EE10FA03DB00204F49087002E02A
:1013200001204D4908704D4890ED000AB5EEC00A05
:10133000F1EE10FA03DB00204949087002E00120B9
:1013400047490870454991ED000ADFED460A20EE55
:10135000200ADFED450A80EE201ABDEEC10A10EE2C
:10136000100A002801DB014600E0414201F47F4100
:1013700009123E4A1170394991ED000ADFED390A30
:1013800020EE200ADFED380A80EE201ABDEEC10AF9
:1013900010EE100A002801DB014600E04142334A0A
:1013A00051702C480078072803DA2A480078294928
:1013B00008702F49D1ED000AB1EE041A80EE810ABF
:1013C0005FEDDE0A20EE200ABDEEC00A10EE100A24
:1013D000002801DB014600E041428CB2244890ED38
:1013E000000AB5EEC00AF1EE10FA03DB0020214935
:1013F000087002E001201F49087004F47F400012C9
:101400001D49087000204870FFF7C6FDBDEC088B31
:1014100010BD00004B0000205000002052000020B2
:101420005400002056000020580000205A000020E0
:101430005C0000205E00002060000020040000200E
:10144000680000200000000000F905410000006075
:10145000FB210940470000204A00002064000020D2
:101460004600002000A00C47DB0F4940440000204C
:101470006C0000204F0000204D00002000B589B016
:101480000121082001F0DFFC0121084601F092FC57
:101490000320079002208DF8200000208DF8220004
:1014A00001208DF8230003208DF8210007A924488E
:1014B00001F0E2F902220021214801F068FA02223B
:1014C00001211F4801F063FA1E4803F023F81E486B
:1014D000006805900020ADF81000ADF81800ADF8D8
:1014E000120004A9174803F0C2F80A231A46032180
:1014F000144803F030FE01A803F0C7FC0020ADF84B
:101500000C0001A90F4803F089FC01210D4803F0EC
:1015100063FD012211460B4803F04AFD00200949F2
:10152000243108600021074803F02AF90121054809
:1015300003F026F90021034803F022F909B000BDA9
:1015400000000240000C00401C67000800B587B096
:101550000121084601F02EFC0121480701F073FC2F
:101560001020059003208DF8180002208DF81B0034
:1015700005A9FE4801F080F9002001900290039037
:101580000220049001A9002002F0C7FE01210020E2
:1015900002F0E0FE0021084602F02AFF0121084681
:1015A00001F008FCC020059001208DF818000020F3
:1015B0008DF81A0003208DF8190002208DF81B0009
:1015C00005A9EA4801F058F94021E84801F0D2F9AC
:1015D0008021E64801F0CEF907B000BD00B58DB01E
:1015E0000121084601F0E6FB0121080201F03CFC64
:1015F00020200B9003208DF8300000208DF8330060
:101600000BA9DA4801F038F90121080201F081FC48
:1016100000214FF4807001F07CFC002007900A90BC
:1016200009904FF48030089007A802F073FC002066
:1016300001908DF808008DF80900039005900120B5
:101640008DF8180001A9CA4802F035FC0121C848EC
:1016500002F077FC0DB000BD10B504460223012254
:101660002146C34802F0ADFCC14802F006FD00BFB0
:101670000221BF4802F022FE0028F9D0BC4802F047
:1016800038FD10BD10B52DED028BB0EE408AB5EEE1
:10169000C08AF1EE10FA1BDB8021B44801F068F932
:1016A0004021B24801F066F94FF48071AF4801F073
:1016B00061F90120AF4908609FEDAF0A28EE000AEA
:1016C000F1EE040A80EE201AAC4880ED001A1CE00E
:1016D0004021A64801F04CF98021A44801F04AF9C4
:1016E0004FF48071A14801F045F90020A14908603C
:1016F000B1EE480ADFEDA00A20EE200AF1EE040A5E
:1017000080EE201A9D4880ED001A9C4890ED000A5A
:10171000BCEEC00A10EE100A81B2002002F068FE92
:10172000BDEC028B10BD10B5FFF710FFFFF756FFA1
:1017300010BD0020924908601FE09FED920A924878
:101740008F49096800EB810080ED000A9FED8D0A4A
:101750008E488B49096800EB810080ED000A9FEDFF
:10176000890A8B488649096800EB810080ED000AF0
:1017700083480068401C82490860814800680C2842
:10178000DBDB9FED800A834880ED000A9FED7D0A38
:1017900080ED010A9FED7B0A7F4880ED000A9FEDF6
:1017A000790A80ED010A9FED770A7C4880ED000AF6
:1017B0009FED740A80ED010A9FED720A784880ED72
:1017C000000A9FED700A774880ED000A9FED6D0AD0
:1017D000754880ED000A9FED6B0A80ED010A7047A5
:1017E00010B517207149086022E070480068401E5B
:1017F0006F4901EB800090ED000A08466B490968CB
:1018000000EB810080ED000A68480068401E6949CD
:1018100001EB800090ED000A08466449096800EB7E
:10182000810080ED000A61480068401E5F49086041
:101830005E4800680028D8DC5F48006800EE100AA7
:10184000B8EE400A5D48D0ED000A9FED5D1A00EE4B
:10185000810A574880ED000A90ED000AD0ED170A82
:1018600030EE600AF3EE080A80EE201A554880ED4B
:10187000001A4F4890ED000ADFED530A20EE200ACF
:10188000B0EE001AC0EE010A9FED501A80EE810AF8
:10189000DFED4F0A80EE201A4E4890ED000A31EE3F
:1018A000000A4D4880ED000A424890ED000AF7EE2C
:1018B000000A20EE200AD0ED010AB7EE001A01EE70
:1018C000600AD0ED020AB7EE001A01EE200AD0ED50
:1018D000030A30EE600A414880ED000A354890ED79
:1018E000000AF1EE000A20EE200AD0ED010AB1EE66
:1018F000001A01EE600AD0ED020AB0EE081A01EEFD
:10190000200AD0ED030AB0EE081A01EE600AD0ED0D
:10191000040AB7EE001A01EE200AD0ED050A30EEF7
:10192000600AD0ED060AB7EE001A01EE200AD0EDEB
:10193000070A70EE600AB2EE021A80EE810AB1EE7A
:10194000001AC0EE010A9FED260A80EE801A254893
:1019500080ED001A0520FFF77FFE00EE100AB8EEBA
:10196000400A214880ED000A40E0000000000240EB
:1019700000200140D800002000008045D400002055
:10198000EC00002000000000E00400201005002012
:10199000B0040020DC000020E400002084000020CF
:1019A000F000002000010020F800002004010020C9
:1019B00064050020C4050020240C00409400002091
:1019C00000FF7F4708010020DB0F49400000FA4379
:1019D0000000C8420C010020140100201801002062
:1019E0006F12833A100100202001002090ED000AC0
:1019F000DFEDFE0A30EE600AF0EE000A20EE200A6B
:101A0000F1EE040A20EE200A5FED250A80EE201A8E
:101A1000F74880ED001A90ED000AF64880ED000AC4
:101A200000F0BEFBF44890ED000AF44880ED000A97
:101A300010BDF0EE400AF248C0ED000A90ED000A39
:101A4000B0EE041AB4EEC10AF1EE10FA03DBB0EE08
:101A5000040A80ED000AEA4890ED000AB8EE041A84
:101A6000B4EEC10AF1EE10FA03D8B8EE040A80ED24
:101A7000000AE34890ED000AE24890ED001A30EECB
:101A8000410AE14880ED000A90ED000ADF4880ED50
:101A9000000A1FED440A80ED010A0020DC490860BD
:101AA00013E0DA4890ED010AD748D949096800EBFC
:101AB000810090ED001A30EE010AD44880ED010A51
:101AC000D3480068401CD2490860D14800680C28FF
:101AD000E7DBCD4890ED000AB0EE081A20EE010ACF
:101AE00090ED011AF1EE001A01EEC10A90ED021A12
:101AF00030EE010AC54880ED020AC64890ED000AA2
:101B0000C24890ED001AC448D0ED001A01EE810AD7
:101B1000BE4890ED011AC148D0ED001A01EE810ACD
:101B2000BA4890ED021ABE48D0ED001A01EE810AC3
:101B3000B84880ED010A90ED010AB0EE041AB4EE47
:101B4000C10AF1EE10FA03DBB0EE040A80ED010ADF
:101B5000B04890ED010AB8EE041AB4EEC10AF1EEF5
:101B600010FA03D8B8EE040A80ED010AA94890EDF6
:101B7000010A80ED000A0B20A549086013E0A44883
:101B80000068401EA04901EB800090ED000A084665
:101B90009F49096800EB810080ED000A9C480068BD
:101BA000401E9B4908609A4800680028E7DC994875
:101BB00090ED010A7047F0EE400A9A48C0ED000A25
:101BC00090ED000A9FED981AB4EEC10AF1EE10FAFA
:101BD00003DB9FED950A80ED000A924890ED000A24
:101BE0009FED921AB4EEC10AF1EE10FA03D89FED00
:101BF0008F0A80ED000A8B4890ED000A8C4890ED2A
:101C0000001A30EE410A8B4880ED000A90ED000A80
:101C1000894890ED001AB4EEC10AF1EE10FA04DD25
:101C200090ED000A834880ED000A824890ED000A9A
:101C3000814890ED001AB1EE411AB4EEC10AF1EEFE
:101C400010FA06D290ED000AB1EE400A794880ED14
:101C5000000A784890ED000A784880ED000A1FEDF0
:101C6000B70A80ED010A00207549086013E0734847
:101C700090ED010A6F487249096800EB810090ED10
:101C8000001A30EE010A6D4880ED010A6C480068C8
:101C9000401C6B4908606A4800680C28E7DB65480F
:101CA00090ED000AB0EE081A20EE010A90ED011A3C
:101CB000F1EE001A01EEC10A90ED021A30EE010AAF
:101CC0005E4880ED020A5F4890ED000A5B4890EDA7
:101CD000001A5D48D0ED001A01EE810A574890EDD8
:101CE000011A5A48D0ED001A01EE810A534890EDCE
:101CF000021A5748D0ED001A01EE810A514880EDD2
:101D0000010A90ED010AB0EE041AB4EEC10AF1EE38
:101D100010FA03DBB0EE040A80ED010A494890EDA9
:101D2000010AB8EE041AB4EEC10AF1EE10FA03D8B3
:101D3000B8EE040A80ED010A424890ED010A4548D8
:101D400080ED010A3F4890ED010A80ED000A0B206A
:101D50003B49086013E03A480068401E354901EBF2
:101D6000800090ED000A08463549096800EB8100C3
:101D700080ED000A32480068401E31490860304852
:101D800000680028E7DC2F4890ED010A7047F0EE6C
:101D9000400A3148C0ED000A90ED000A164890ED67
:101DA000001A30EE410A2D4880ED000A90ED000A3D
:101DB0002B4890ED001AB4EEC10AF1EE10FA04DDE2
:101DC00090ED000A254880ED000A244890ED000AB5
:101DD000234890ED001AB1EE411AB4EEC10AF1EEBB
:101DE00010FA44D290ED000A3CE0000000000045EB
:101DF0001C0100202401002068000020C4050020F0
:101E0000300100206C00002010050020400500205B
:101E100028010020E40000200C0000201000002019
:101E2000140000203C010020D153FB41D153FBC1E1
:101E300064000020E0040020380100204C05002050
:101E400034010020DC000020180000201C000020CD
:101E5000200000208400002000010020B0040020A9
:101E600048010020B1EE400A4D4880ED000A4C4880
:101E700090ED000A4B4880ED000A9FED4B0A80ED83
:101E8000010A00204949086013E0464890ED010A24
:101E900043484649096800EB810090ED001A30EE96
:101EA000010A404880ED010A40480068401C3F4953
:101EB00008603E4800680C28E7DB394890ED000ACE
:101EC000B0EE081A20EE010A90ED011AF1EE001AA8
:101ED00001EEC10A90ED021A30EE010A314880EDA0
:101EE000020A334890ED000A2E4890ED001A31485E
:101EF000D0ED001A01EE810A2A4890ED011A2E4811
:101F0000D0ED001A01EE810A264890ED021A2B4806
:101F1000D0ED001A01EE810A254880ED010A90ED0E
:101F2000010A9FED271AB4EEC10AF1EE10FA03DBA5
:101F30009FED230A80ED010A1D4890ED010A9FEDF7
:101F4000211AB4EEC10AF1EE10FA03D89FED1D0A72
:101F500080ED010A164890ED010A80ED000A0B2081
:101F60001249086013E011480068401E0C4901EB5B
:101F7000800090ED000A08460C49096800EB8100DA
:101F800080ED000A09480068401E084908600748BB
:101F900000680028E7DC064890ED010A7047000061
:101FA000B00400205805002000000000400100207F
:101FB000F800002024000020280000202C00002031
:101FC000DA0FC940DA0FC9C010B5AF4B02220121A8
:101FD000AE4803F074F9AE4B01220221AD4803F084
:101FE0006EF9AD4B02221146AC4803F068F9AC4BD8
:101FF00002221146AB4803F062F9AB4B01220221E9
:10200000AA4803F05CF9AA4B01220221A94803F077
:1020100056F9A94B01220221A84803F050F9A84B18
:1020200002221146A74803F04AF9A74B02221146A3
:10203000A64803F044F9A64B02221146A54803F036
:102040003EF9A54B01220221A44803F038F9A44B24
:1020500001221146A34803F032F9A34B0222114694
:10206000A24803F02CF9A24B02221146A14803F02A
:1020700026F9A14B02221146A04803F020F9A04BFB
:10208000012211469F4803F01AF99F4B0122114685
:102090009E4803F014F99E4B012211469D4803F01F
:1020A0000EF99D4B012211469C4803F008F99C4B08
:1020B000012211469B4803F002F99B4B0122114675
:1020C0009A4803F0FCF89A4B01220221994803F048
:1020D000F6F8994B01220221984803F0F0F8984B4A
:1020E00001220221974803F0EAF8974B01220221CE
:1020F000964803F0E4F8964B01220221954803F03C
:10210000DEF8954B01220221944803F0D8F8944B55
:1021100001220221934803F0D2F8934B01220221BD
:10212000924803F0CCF8924B01220221914803F02F
:10213000C6F8914B01220221904803F0C0F8904B61
:10214000012202218F4803F0BAF88F4B01220221AD
:102150008E4803F0B4F88E4B022211468D4803F0EE
:10216000AEF88D4B022211468C4803F0A8F88C4B38
:10217000022211468B4803F0A2F88B4B0222114633
:102180008A4803F09CF88A4B02221146894803F0E2
:1021900096F8894B02221146884803F090F810BD4A
:1021A00010B5424A4549494803F08EF80446844830
:1021B00090ED000A8348D0ED000A20EE200A824804
:1021C00080ED000A814890ED000A4648406880EDA5
:1021D000000A7F4890ED000A7E4880ED000AE01C6E
:1021E00008B900BFFEE7474A3049284803F06CF8B9
:1021F0000446464A43493B4803F004F90446514A21
:102200004249364803F060F804462A4A4D492748B7
:1022100002F0D1FF04466F4890ED000A6E48D0ED01
:10222000000A694890ED001A00EEC10AD0ED000ADC
:102230009FED6A1A41EE000A6948C0ED000A1F4A84
:102240001C492E4803F040F80446654890ED000A0A
:102250005C4880ED000A1748406890ED000A61482C
:1022600080ED000A5E4890ED000A5F4880ED000AAC
:102270001048406890ED010ADFED5C0A20EE200A6C
:102280005B4880ED000A10BD58010020A00200202C
:1022900060010020A80200209801002068020020B0
:1022A000A8010020C0020020D00100207002002000
:1022B000D801002078020020E801002080020020E0
:1022C000B801002088020020680100209002002050
:1022D0007801002098020020E0010020B0020020D8
:1022E00054010020B80200204C010020C802002048
:1022F00050010020D002002088010020D8020020D8
:10230000F0010020E0020020F4010020E80200209B
:10231000F8010020F0020020FC010020F80200205B
:102320000002002000030020040200200803002017
:1023300008020020100300201002002018030020D3
:102340001802002020030020200200202803002083
:102350002802002030030020300200203803002033
:1023600038020020400300204002002048030020E3
:102370004802002050030020500200205803002093
:102380005802002060030020600200206803002043
:10239000240600207003002034060020780300206B
:1023A00044060020800300205406002088030020FB
:1023B000640600209003002074060020980300208B
:1023C000A4030020A8030020A00300201401002083
:1023D00024010020AC030020B4030020E3EF063EFC
:1023E000B0030020680000206C00002000007A4448
:1023F0006400002010B504466FF0040000F098F966
:10240000E11704EB5171C1F3C701394A117010464D
:10241000007800EB4001C1EBC0104FF6FF7101EAFC
:10242000C0003449088010BD0146314A12784A4341
:102430004FF0E0235A6100229A611A46126942F075
:1024400001021A6100BF4FF0E022106900F00102A2
:102450001AB100F48032002AF5D04FF0E022126960
:1024600022F001024FF0E0231A6100229A617047C6
:102470000146204A12884A434FF0E0235A61002265
:102480009A611A46126942F001021A6100BF4FF0C8
:10249000E022106900F001021AB100F48032002A33
:1024A000F5D04FF0E022126922F001024FF0E02354
:1024B0001A6100229A61704770B504464FF40770A4
:1024C00094FBF0F0C6B24FF4077094FBF0F100FB00
:1024D000114085B205E04FF40770FFF7C9FF701E89
:1024E000C6B2002EF7D115B12846FFF7C1FF70BD67
:1024F000B8030020BA03002000BF704700BF704738
:1025000000BF4E4A128802F04002002AF9D0C2B23F
:102510004A4B9A80704710B588B00446012108469E
:1025200000F048FC0121102000F09EFC0722092148
:10253000434800F02CFA07220A21414800F027FA0C
:102540004FF4C060069002208DF81C008DF81D002D
:1025500000208DF81E0001208DF81F0006A93848C4
:1025600000F08AF902940020ADF80C00ADF80E00DE
:10257000ADF81000ADF814000C20ADF8120002A95F
:102580002E4800F0D2FD01212C4800F056FE4021DB
:102590002A4800F03AFF012240F22551274800F076
:1025A00002FF25208DF8040003208DF805008DF82A
:1025B000060001208DF8070001A800F06CF808B0B3
:1025C00010BD10B540F225511C4800F027FF10B394
:1025D0001A4800F061FEC4B21A48008800F40040B6
:1025E000C8B91848008800F4804060B10A2C03D0B4
:1025F00000201449088020E01248008840F4004080
:102600001049088019E00D2C06D10E48008840F4CE
:1026100080400C49088010E00A480088C0F30D0093
:1026200009490C5407480088401C064908800846A0
:102630000088C72801DD0020088010BD001001407F
:1026400000000240C00300208406002009488047A3
:1026500009480047FEE7FEE7FEE7FEE7FEE7FEE784
:10266000FEE7FEE7FEE7FEE704480549054A064B9C
:10267000704700001906000889010008B007002013
:10268000B00D0020B0090020B009002032490143FC
:10269000324A1160704770B5002100230F22C478C0
:1026A0001CB32E4C246804F4E064C4F5E064C4F365
:1026B0000721C1F10404E3B20A4144789C40E1B22D
:1026C0008478144021430C07210E254C0578615570
:1026D000047804F01F050124AC4005786D11AD00AD
:1026E00005F1E025C5F8004109E0047804F01F0574
:1026F0000124AC401B4D0678761145F8264070BD8C
:10270000194A0A400243154B1B1F1A60704739B122
:10271000124A121D12680243104B1B1D1A6006E07C
:102720000E4A121D126882430C4B1B1D1A60704723
:10273000042808D14FF0E021096941F004014FF06D
:10274000E022116107E04FF0E021096921F0040166
:102750004FF0E022116170470000FA050CED00E037
:1027600000E400E080E100E080FFFF1F10B50446B8
:102770009848844208D10121084600F086FB0021D8
:10278000012000F082FB76E09348844208D10121C9
:10279000022000F07AFB0021022000F076FB6AE0C4
:1027A0008E48844208D10121042000F06EFB0021F4
:1027B000042000F06AFB5EE08948844208D10121D0
:1027C000082000F062FB0021082000F05EFB52E0D0
:1027D0008448844208D10121102000F056FB0021DA
:1027E000102000F052FB46E07F48844208D10121CE
:1027F000202000F04AFB0021202000F046FB3AE0B8
:102800007A48844208D10121402000F03EFB00219B
:10281000402000F03AFB2EE07548844208D10121A7
:10282000802000F032FB0021802000F02EFB22E00F
:102830007048844208D10121801500F026FB002158
:10284000A01500F022FB16E06B48844208D101215C
:10285000401500F01AFB0021601500F016FB0AE09D
:102860006648844207D10121001500F00EFB0021CB
:10287000201500F00AFB10BDF0B50A460021002328
:10288000002400BF3DE0012505FA01F3156805EAC3
:1028900003049C4234D105684F000326BE40B54373
:1028A000056015794E00B540066835430560157919
:1028B000012D02D01579022D16D185684F0003260F
:1028C000BE40B543856055794E00B54086683543B6
:1028D0008560456801268E40B54345604568967918
:1028E0008E40B6B235434560C5684F000326BE40F2
:1028F000B543C560D5794E00B540C6683543C5605F
:10290000491C1029BFD3F0BD4FF6FF7101600021B3
:10291000017141718171C171704708B54FF4803206
:102920000092009A0A430092009AC261C161009A23
:10293000C261C2690092C269009208BD02460020CD
:1029400013690B400BB1012000E0002070470146E5
:10295000086980B270470246002053690B400BB1F2
:10296000012000E0002070470146486980B27047AE
:1029700001837047418370470AB1018300E04183BE
:1029800070474161704742694A4042617047F0B503
:10299000002300244D07ED0E02FA05F3CE1000F1DE
:1029A000200555F826504E07F70E0F26BE40B543BA
:1029B000CF1000F1200646F82750CE1000F1200578
:1029C00055F8265045EA0304CE1000F1200545F8DD
:1029D0002640F0BD00000240000402400008024012
:1029E000000C024000100240001402400018024097
:1029F000001C024000200240002402400028024047
:102A0000F948006840F00100F74908600020F649E5
:102A100008310860F4480068F4490840F249086049
:102A2000F348091D0860F348EF4984310860F04815
:102A30001038091D0860EC48006820F48020EA493D
:102A400008600020E8490C310860E7498C310860D3
:102A500070470021E44A921C1170114608707047BB
:102A600010B501460022002300204A11012A02D19C
:102A7000DD4C236808E0022A03D1DB4C7034236864
:102A800002E0D94C7434236801F01F020124944001
:102A90001C400CB1012000E0002010BD38B5002022
:102AA00000900024002500BF3120FFF7D9FF054624
:102AB0000098401C00900098B0F5A04F01D0002D68
:102AC000F2D03120FFF7CCFF08B1012400E0002450
:102AD000204638BD01460020C34A106820F0F800A7
:102AE00040EAC10010607047C34908607047002188
:102AF000BD4A703211701170012802D004280AD129
:102B000004E00121B84A7032117005E00521B64A8F
:102B10007032117000E000BF00BF7047B749086015
:102B2000704770B5049C41EA82150126C6EB530636
:102B300045EA0645054345EA0465AB4E361D35605A
:102B400070BDAD4908667047820142EA0172A64B2A
:102B500084331A607047A8498866704710B58301AE
:102B600043EA016343EA02739F4C8834236010BD3B
:102B7000A14908677047A049C86470470246002011
:102B8000994B0833186820F0EC6042EA01031843BF
:102B9000954B08331860704702460020924B08336B
:102BA000186820F0784042EA010318438E4B08333E
:102BB00018607047014600208B4A0832106820F0E8
:102BC000030008431060704787480830006800F031
:102BD0000C00704701460020834A0832106820F03C
:102BE000F000084310607047014600207E4A08321A
:102BF000106820F4E0500843106070470146002040
:102C0000794A0832106820F4604040EAC100106040
:102C10007047F0B50021002200240225002602237F
:102C2000714F08373F6807F00C0121B1042905D026
:102C3000082937D105E0724F076036E0714F076011
:102C400033E0694F3F1D3F68C7F38056664F3F1D15
:102C50003F6807F03F036EB16A4FB7FBF3F7DFF849
:102C600088C10CF1040CDCF800C0CCF3881C07FB15
:102C70000CF40CE0624FB7FBF3F7DFF86CC10CF11A
:102C8000040CDCF800C0CCF3881C07FB0CF4564F96
:102C90003F1D3F68C7F301477F1C7D00B4FBF5F77C
:102CA000076002E0564F076000BF00BF4E4F083775
:102CB0003F6807F0F0010909534F7A5C0768D74075
:102CC0004760494F08373F6807F4E051890A4E4F83
:102CD0007A5C4768D7408760434F08373F6807F4FE
:102CE0006041490B484F7A5C4768D740C760F0BDE8
:102CF000002100F44072B2F5407F0AD13A4A08320E
:102D0000116821F4F811414A02401143364A083251
:102D10001160354A70321268C0F30B031A43324B0C
:102D200070331A6070473549443908607047334939
:102D300040390860704736490860704701460020F6
:102D4000294A8C32106820F01F004A1E1043264A80
:102D50008C321060704701460020234A8C32106884
:102D600020F4F8504A1E40EA02201F4A8C321060BC
:102D70007047014600201C4A8C32106820F4401035
:102D800008431060704701460020174A8C321068D3
:102D900020F4400008431060704701460020124AAA
:102DA0008C32106820F44030084310607047194995
:102DB0000860704739B10C4A3032126802430A4B3E
:102DC00030331A6006E0084A303212688243064BFC
:102DD00030331A607047F9B1034A34321268024343
:102DE000014B34331A601CE000380240FFFFF6EA62
:102DF000103000240030002000004742800E47427F
:102E00000024F40000127A00C2030020FFFCFF0F30
:102E10005C014742E01147428F4A126882438E4B61
:102E20001A60704739B18C4A121D126802438A4BEE
:102E30001B1D1A6006E0884A121D12688243864BE9
:102E40001B1D1A60704739B1834A0C321268024365
:102E5000814B0C331A6006E07F4A0C3212688243C1
:102E60007D4B0C331A60704739B17B4A10321268BF
:102E70000243794B10331A6006E0774A1032126829
:102E80008243754B10331A60704739B1724A243A45
:102E900012680243704B243B1A6006E06E4A243AE3
:102EA000126882436C4B243B1A60704739B16A4AFE
:102EB000203A12680243684B203B1A6006E0664ADB
:102EC000203A12688243644B203B1A60704739B144
:102ED000614A1C3A126802435F4B1C3B1A6006E0D1
:102EE0005D4A1C3A126882435B4B1C3B1A60704778
:102EF00039B1594A143A12680243574B143B1A60CD
:102F000006E0554A143A12688243534B143B1A6048
:102F1000704739B1504A103A126802434E4B103B89
:102F20001A6006E04C4A103A126882434A4B103B42
:102F30001A60704739B1484A1C3212680243464B46
:102F40001C331A6006E0444A1C3212688243424B2A
:102F50001C331A60704739B13F4A2032126802436D
:102F60003D4B20331A6006E03B4A20321268824310
:102F7000394B20331A60704739B1374A243212680E
:102F80000243354B24331A6006E0334A2432126878
:102F90008243314B24331A60704739B12E4A2C32A8
:102FA000126802432C4B2C331A6006E02A4A2C325A
:102FB00012688243284B2C331A60704739B1264A75
:102FC000303212680243244B30331A6006E0224A42
:102FD000303212688243204B30331A607047012828
:102FE00008D11D493C31096841F008011A4A3C32B8
:102FF000116007E018493C31096821F00801164AC0
:103000003C321160704739B1134A273A12780243B3
:10301000114B273B1A7006E00F4A273A1278824379
:103020000D4B273B1A7070470B484030006840F04A
:103030008070094940310860704701460020064A07
:10304000283A12680A400AB1012000E000207047C7
:1030500001492639087070473438024010B50446DB
:10306000FA48844208D101211020FFF752FF0021C5
:103070001020FFF74EFF57E0F548844209D10121A7
:103080004804FFF735FF00214FF40030FFF730FF11
:103090004AE0F048844209D101218804FFF728FF63
:1030A00000214FF48020FFF723FF3DE0EA488442EF
:1030B00009D10121C804FFF71BFF00214FF40020B4
:1030C000FFF716FF30E0E548844209D101210805E9
:1030D000FFF70EFF00214FF48010FFF709FF23E0F8
:1030E000DF48844208D101212020FFF712FF002190
:1030F0002020FFF70EFF17E0DA48844209D10121B2
:103100008807FFF7F5FE00214FF08040FFF7F0FE43
:103110000AE0D548844207D101214005FFF7E8FEC7
:1031200000216005FFF7E4FE10BD2DE9FF470546CD
:103130000E460024A14600BFA046B08900B100BFE2
:103140002C8A24F44054F08804432C82AC8941F248
:103150000C608443B0883189084371890843044373
:10316000AC81AC8A24F44074B0890443AC826846D4
:10317000FFF74FFDB548854202D0B948854202D1DC
:10318000DDF80C9001E0DDF80890A88900F400401B
:1031900040B109EBC90000EB091031684900B0FBF0
:1031A000F1F707E009EBC90000EB0910316889006D
:1031B000B0FBF1F76420B7FBF0F0040120096421B3
:1031C00001FB1078A88900F4004040B1322000EBE8
:1031D000C800B0FBF1F000F00700044308E0322023
:1031E00000EB08106421B0FBF1F000F00F00044385
:1031F0002C81BDE8FF874FF41651016000218180CA
:10320000C18001810C21418100218181704710B56D
:1032100002460020108A20F470600B884C882343FB
:103220008C882343CC8823431843108210BD00218F
:10323000018041808180C180704721B1828942F440
:103240000052828104E082894DF6FF731A40828128
:103250007047028B02F47F420283028B0A4302838F
:10326000704721B1828942F40042828103E0828961
:10327000C2F30E028281704721B1828A42F4006259
:10328000828204E0828A4FF2FF731A408282704782
:10329000C1F308028280704701468888C0F30800A5
:1032A0007047028A4FF6F0731A400282028A0A437C
:1032B0000282704721B1828942F00202828104E0D9
:1032C00082894FF6FD731A408281704782894FF2DE
:1032D000FF731A40828182890A4382817047028A81
:1032E0004FF6DF731A400282028A0A430282704755
:1032F00021B1028A42F48042028204E0028A4BF643
:10330000FF731A4002827047818941F00101818177
:10331000704721B1828A42F00802828204E0828AE8
:103320004FF6F7731A4082827047028BD2B2028343
:10333000028B42EA01220283704721B1828A42F065
:103340002002828204E0828A4FF6DF731A40828272
:10335000704721B1828A42F01002828204E0828AA0
:103360004FF6EF731A4082827047828A4FF6FB73E2
:103370001A408282828A0A438282704721B1828AFD
:1033800042F00202828204E0828A4FF6FD731A4004
:10339000828270471AB1838A0B43838202E0838A58
:1033A0008B4383827047F0B5034600240026002536
:1033B000002040F66A17B94200D100BF1846C1F399
:1033C000421401F01F06012707FA06F5012C01D16E
:1033D0000C3004E0022C01D1103000E014301AB19E
:1033E00007682F43076002E00768AF430760F0BD3E
:1033F00002460020B1F5007F00D100BF13880B40CA
:103400000BB1012000E00020704701F40072B2F51A
:10341000007F00D100BFCA430280704770B50246EA
:10342000002400230025002040F66A16B14200D196
:1034300000BFC1F3421501F01F03012606FA03F392
:10344000012D13D19689334017E000000010014090
:103450000044004000480040004C00400050004044
:103460000014014000780040007C0040022D02D191
:10347000168A334001E0968A33400C12012606FA80
:1034800004F41688344013B10CB1012000E0002090
:1034900070BD10B50022002340F66A14A14200D18D
:1034A00000BF0A1201249440A3B2DC43048010BD83
:1034B00010B50446FE48844209D101214806FFF7B1
:1034C00017FD00214FF00070FFF712FD08E0012109
:1034D0008806FFF70DFD00214FF08060FFF708FD23
:1034E00010BD30B5024600200023146824F0020409
:1034F0001460146844F00104146000E05B1C54681C
:1035000004F001041CB94FF6FF74A342F6D15468CD
:1035100004F001040CB900206CE08C79012C04D17A
:10352000146844F08004146003E0146824F08004FC
:103530001460CC79012C04D1146844F04004146068
:1035400003E0146824F0400414600C7A012C04D1C8
:10355000146844F02004146003E0146824F020048C
:1035600014604C7A012C04D1146844F010041460E7
:1035700003E0146824F0100414608C7A012C04D148
:10358000146844F00804146003E0146824F008048C
:103590001460CC7A012C04D1146844F00404146043
:1035A00003E0146824F0040414608C78A407CD7838
:1035B00044EA05640D7944EA05444D7944EA05542A
:1035C0000D886D1E2C43D461146824F0010414602E
:1035D000002300E05B1C546804F001041CB14FF6AA
:1035E000FF74A342F6D1546804F001040CB100202A
:1035F00000E0012030BD10B50021837A012202FADB
:1036000003F1AC4A126842F00102AA4B1A60A94ABF
:103610001C3212688A43A74B1C331A60027BCAB95A
:10362000A44A0C3212688A43A24B0C331A604288B7
:10363000C38842EA03439F4A4032847A42F83430D6
:103640000288838842EA03439A4A4032847A02EB32
:10365000C4025360027B012A19D1964A0C321268C7
:103660000A43944B0C331A604288038842EA0343AE
:10367000904A4032847A42F83430C288838842EAE1
:1036800003438C4A4032847A02EBC4025360C27A0C
:103690003AB9884A121D12688A43864B1B1D1A606C
:1036A00006E0844A121D12680A43824B1B1D1A60F1
:1036B000028932B97F4A143212688A437D4B14332F
:1036C0001A600289012A06D17A4A143212680A4322
:1036D000784B14331A60427B012A06D1754A1C329A
:1036E00012680A43734B1C331A60724A126822F044
:1036F0000102704B1A6010BD00218171C17101720D
:1037000041728172C1728170C17003210171022105
:1037100041710121018070476649096841F001014A
:10372000644A11601146096843F60E729143614A7A
:1037300011601146096841EA0021116011460968CB
:1037400021F001011160704721B1026842F480321A
:10375000026003E0026822F4803202607047E1B147
:10376000026842F0800202604FF4C272125842F4C2
:1037700080734FF4C27213504FF4CA72125842F45D
:1037800080734FF4CA7213504FF4D272125842F43D
:1037900080734FF4D27213501BE0026822F0800253
:1037A00002604FF4C272125822F480734FF4C27256
:1037B00013504FF4CA72125822F480734FF4CA7235
:1037C00013504FF4D272125822F480734FF4D27215
:1037D0001350704710B502460020936803F08063D1
:1037E000B3F1806F00D110E0936803F00063B3F190
:1037F000006F01D1012008E0936803F08053B3F11A
:10380000805F01D1022000E00420042879D002F575
:10381000C07303EB00131B6803F0010402F5C073CF
:1038200003EB00131C600B7A7BB94B7A0C8843EADC
:10383000445302F5C07404EB00142468234302F5DA
:10384000C07404EB0014236010E00B7A4C6843EA68
:10385000C4034C7A234302F5C07404EB00142468BB
:10386000234302F5C07404EB001423608B7A03F049
:103870000F038B7202F5C07303EB00135B6823F038
:103880000F0402F5C07303EB00135C6002F5C07314
:1038900003EB00135B688C7A234302F5C07404EBDE
:1038A000001463608B7B1C064B7B44EA034403E0FB
:1038B00000640040006600400B7B44EA0323CC7A9E
:1038C000234302F5C07404EB0014A3608B7C1C0638
:1038D0004B7C44EA03440B7C44EA0323CC7B234324
:1038E00002F5C07404EB0014E36002F5C07303EB4F
:1038F00000131B6843F0010402F5C07303EB0013CF
:103900001C6010BD10B50246002321B1012907D06B
:1039100002290FD109E09068F94C00EA04030BE09A
:103920009068F84C00EA040306E09068F64C00EA60
:10393000040301E0002300BF00BFF44C181BA342A6
:1039400016D007DC83B16FF08060184470B1022894
:1039500018D111E0B0F5007F10D0ED4C204448B1F3
:10396000B0F5003F0ED10BE002230DE000230BE089
:10397000002309E0002307E0012305E0012303E021
:10398000012301E0002300BF00BFD8B210BD21B168
:10399000012907D002290FD109E0826842F0800294
:1039A00082600AE0826842F40042826005E0826838
:1039B00042F40002826000E000BF00BF704710B513
:1039C00000F5D87303EB01131B6803F004031372B3
:1039D000137A53B900F5D87303EB01131B6840F257
:1039E000FF7404EA5353136009E000F5D87303EB46
:1039F00001131B686FF0604404EAD303536000F5C1
:103A0000D87303EB01131B6803F00203537200F534
:103A1000D87303EB01135B6803F00F03937200F597
:103A2000D87303EB01135B681B0AD37400F5D873DA
:103A300003EB01139B68D37200F5D87303EB0113FA
:103A40009B681C0A147300F5D87303EB01139B6881
:103A50001C0C547300F5D87303EB01139B681B0E09
:103A6000937300F5D87303EB0113DB68D37300F590
:103A7000D87303EB0113DB681C0A147400F5D873C8
:103A800003EB0113DB681C0C547400F5D87303EBD3
:103A90000113DB681B0E937421B9C36843F0200344
:103AA000C36003E0036943F02003036110BD21B943
:103AB000C26842F02002C26003E0026942F02002C4
:103AC000026170470246002019B9D36803F0030071
:103AD00006E0012903D1136903F0030000E0002090
:103AE000704710B502460B4600204FF6FF71BBB978
:103AF000146824F0020444F00104146000E0491E3C
:103B0000546804F00304012C01D00029F7D1546853
:103B100004F00304012C01D0002032E0012030E049
:103B2000012B13D1146824F00304146000E0491E33
:103B3000546804F003040CB10029F8D1546804F06F
:103B400003040CB100201CE001201AE0022B17D165
:103B5000146824F0010444F00204146000E0491EDB
:103B6000546804F00304022C01D00029F7D15468F2
:103B700004F00304022C01D0002002E0012000E048
:103B8000002010BD014600200A6822F0010242F028
:103B900002020A604A6802F00302022A00D10120F0
:103BA000704701464FF6FF7200200B6823F00203B6
:103BB0000B6000E0521E4B6803F00203022B01D1A0
:103BC000002AF7D14B6803F00203022B00D001203A
:103BD0007047014600208A6902F070007047014674
:103BE00000208A69100E7047014600208A69C2F3DE
:103BF000074070471AB143690B43436102E04369D0
:103C00008B434361704710B50246002001F47003F6
:103C100043B19369C1F3130423400BB101202DE09C
:103C200000202BE001F0807343B15368C1F313040B
:103C300023400BB1012021E000201FE001F00063D0
:103C400043B19368C1F3130423400BB1012015E085
:103C5000002013E001F0007343B1D368C1F31304F3
:103C600023400BB1012009E0002007E01369C1F3F4
:103C7000130423400BB1012000E0002010BD0022FE
:103C8000244B994202D10023836111E0C1F3130256
:103C900001F000730BB1C2600AE001F080630BB168
:103CA000026105E001F000630BB1826000E0426058
:103CB00070470246002002EA01030BB1012000E038
:103CC0000020704770B504460D4600266069284004
:103CD000002872D0B5F5807F69D01DDC082D42D058
:103CE00006DC012D2DD0022D31D0042D7FD134E002
:103CF000102D3ED0202D42D0402D78D145E000003F
:103D00000300000400030008000003100001000885
:103D10000001FFF77000F030B5F5004F61D009DC0D
:103D2000B5F5007F4AD0B5F5806F4DD0B5F5006F81
:103D30005DD150E0B5F5803F2DD0B5F5003F56D1AF
:103D40002FE0A0685549FFF7B4FF064651E0E06850
:103D50000321FFF7AEFF06464BE0E0680821FFF7BE
:103D6000A8FF064645E0E0681021FFF7A2FF0646DF
:103D70003FE020690321FFF79CFF064639E02069F8
:103D80000821FFF796FF064633E020691021FFF770
:103D900090FF06462DE060680821FFF78AFF06467F
:103DA00027E060681021FFF784FF064621E0A06944
:103DB0000121FFF77EFF06461BE01BE0A069022100
:103DC000FFF777FF064614E0A0690421FFF771FFB3
:103DD00006460EE00BE0A0697021FFF76AFF064679
:103DE00007E060680421FFF764FF064601E0002653
:103DF00000BF00E00026304670BDB1F5007F3AD02C
:103E00000FDC202928D006DC01291CD004291DD074
:103E1000082940D11DE0402921D0B1F5807F3AD159
:103E200026E0B1F5004F31D006DCB1F5806F25D02A
:103E3000B1F5006F2FD124E0B1F5803F12D0B1F57C
:103E4000003F28D111E0154A826025E00822C260B7
:103E500022E01022C2601FE0082202611CE0102252
:103E6000026119E00822426016E01022426013E06D
:103E70000422426010E0042242600DE0042242600D
:103E80000AE0002282610422426005E00022826191
:103E90000422426000E000BF00BF70470101010042
:103EA00010B501210802FFF734F800214FF48070AB
:103EB000FFF72FF810BD30B50246002000235068F0
:103EC000F84C20400D790C6844EA052420435060EA
:103ED0009068F54C2040D1E903542C438D682C4365
:103EE0004D7944EA450420439060D06A20F4700084
:103EF0000C7D641EE4B2234340EA0350D06230BD1F
:103F000000210160017141718160C1600161012185
:103F1000017570470021E54A1168E54A1140D0E972
:103F200000231A4383681A43C3681A431143E14AC2
:103F3000C2F8041370470021016041608160C160D4
:103F4000704721B1826842F00102826003E082681A
:103F500022F00102826070470A4600214168D64B78
:103F600019401143416070474162826270470A46BE
:103F70000021416821F01F0111434160704738B1B1
:103F8000CA49096841F40001CA4AC2F8041306E0AC
:103F9000C649096821F40001C64AC2F804137047F3
:103FA00038B1C249096841F48001C24AC2F8041319
:103FB00006E0BE49096821F48001BE4AC2F8041334
:103FC0007047F0B504460D4600200021092D11DD93
:103FD000E068A5F10A0606EB4607072606FA07F190
:103FE0008843A5F10A0606EB460603FA06F10843E4
:103FF000E0600CE0206905EB4507072606FA07F1AB
:10400000884305EB450603FA06F108432061072AB9
:104010000FDA606B561E06EB86071F2606FA07F1BD
:104020008843561E06EB860605FA06F108436063D0
:1040300022E00D2A0FDA206BD61F06EB86071F261B
:1040400006FA07F18843D61F06EB860605FA06F145
:104050000843206310E0E06AA2F10D0606EB860734
:104060001F2606FA07F18843A2F10D0606EB860625
:1040700005FA06F10843E062F0BD816841F0804135
:1040800081607047014600208A6802F080420AB1D0
:10409000012000E00020704721B1826842F4806274
:1040A000826003E0826822F480628260704721B1FE
:1040B000826842F00202826003E0826822F002021B
:1040C0008260704710B50A4600210023416821F440
:1040D0006041531E41EA4331416010BD21B1426845
:1040E00042F40062426003E0426822F400624260EF
:1040F00070470146C86C80B270476C48001D00686C
:10410000704721B1826842F48072826003E0826865
:1041100022F480728260704721B1826842F400729A
:10412000826003E0826822F400728260704738B1D6
:104130005E49096841F400515E4AC2F8041306E082
:104140005A49096821F400515A4AC2F804137047C9
:10415000F0B504461546002000220026092911DD8D
:10416000E068A1F10A0707EB470C072707FA0CF2F2
:104170009043A1F10A0707EB470703FA07F2104340
:10418000E0600CE0206901EB410C072707FA0CF214
:10419000904301EB410703FA07F210432061A06B43
:1041A000C0F30156EF1C06F1010CA7EB0C0707EB5F
:1041B000870C1F2707FA0CF29043EF1C06F1010C45
:1041C000A7EB0C0707EB870701FA07F21043A06380
:1041D000F0BD10B50A4600210023816B21F4401187
:1041E000531E41EA0351816310BD08B500230093BB
:1041F0000090009B0B440093009B1A6008BD0A4688
:104200000021816821F470211143816070470A46C2
:104210000021816821F44011114381607047816859
:1042200041F4800181607047014600208A6802F4F1
:1042300080020AB1012000E00020704721B14268ED
:1042400042F48062426003E0426822F4806242608D
:10425000704721B1426842F48052426003E04268F4
:1042600022F480524260704708B502460020009058
:10427000009201F12800009B18440090009800680B
:1042800080B208BD10B50B460021D9B2012404FA52
:1042900001F11AB144680C43446002E044688C4365
:1042A000446010BDFFFEFFFCFDF7FFC0042301408A
:1042B000E030FCFF00200140FFFD3FFF02460020F0
:1042C00013680B400BB1012000E000207047CA4387
:1042D0000260704770B502460020002300240B12D4
:1042E000556801268E4005EA060415681D4015B183
:1042F0000CB1012000E0002070BD00220A12D3435F
:104300000360704710B501214807FEF7F1FD002159
:104310004FF00050FEF7ECFD10BD30B50022002339
:104320007B4C226840F6FE748440A243D1E90045EC
:104330002C438D682C43CD6844EA050303FA00F44E
:104340002243734C226030BD0021016041608160D6
:10435000C160704739B16E4A1268012383401A4325
:104360006B4B1A6006E06A4A1268012383409A4345
:10437000674B1A60704710B551B1654A121D12683B
:1043800004090123A3401A43614B1B1D1A6009E075
:104390005F4A121D126804090123A3409A435C4B33
:1043A0001B1D1A6010BD40B15949091D096841F033
:1043B0000301574A121D116007E05549091D09689C
:1043C00021F00301524A121D1160704710B53AB135
:1043D0004F4B1B6801FA00F423434D4C236006E069
:1043E0004B4B1B6801FA00F4A343494C236010BDFA
:1043F00008B500220092464A009200F10802009B94
:104400001A440092009A116008BD08B5002200927B
:104410003F4A009200F11402009B1A440092009A55
:10442000116008BD30B500240023082802D142EAFB
:10443000012401E042EA0144354B00F120052B4400
:104440001C6030BD08B50146002000903048009047
:104450002C2000EB9100009A104400900098006816
:1044600080B208BD41B12A4A12684FF4805383409C
:104470001A43274B1A6007E0254A12684FF480530D
:1044800083409A43224B1A60704710B53AB1204BD3
:104490001B6801FA00F423431D4C236006E01C4B0B
:1044A0001B6801FA00F4A343194C236010BD10B53A
:1044B00002460020164B34331B6801FA02F42340F5
:1044C0000BB1012000E0002010BD01FA00F2104BFA
:1044D00034331A60704730B50246002000230C4C7C
:1044E000246801FA02F504EA0503094C343424680F
:1044F00001FA02F52C4014B10BB1012000E00020BC
:1045000030BD01FA00F2024B34331A6070470000EC
:104510000074004010B50446FE48844208D10121D1
:104520000846FEF7F6FC00210120FEF7F2FC9DE0B4
:10453000B4F1804F08D101210846FEF7D9FC0021D3
:104540000120FEF7D5FC91E0F348844208D1012117
:104550000220FEF7CDFC00210220FEF7C9FC85E019
:10456000EE48844208D101210420FEF7C1FC00215D
:104570000420FEF7BDFC79E0E948844208D101211E
:104580000820FEF7B5FC00210820FEF7B1FC6DE025
:10459000E448844208D101211020FEF7A9FC002143
:1045A0001020FEF7A5FC61E0DF48844208D101211C
:1045B0002020FEF79DFC00212020FEF799FC55E00D
:1045C000DA48844208D101210220FEF7A2FC002132
:1045D0000220FEF79EFC49E0D548844209D1012122
:1045E0000804FEF796FC00214FF48030FEF791FCA2
:1045F0003CE0D048844209D101214804FEF789FCFF
:1046000000214FF40030FEF784FC2FE0CA488442BA
:1046100009D101218804FEF77CFC00214FF48020A1
:10462000FEF777FC22E0C548844208D101214020F2
:10463000FEF75EFC00214020FEF75AFC16E0C04861
:10464000844208D101218020FEF752FC0021802005
:10465000FEF74EFC0AE0BB48844207D101218015D9
:10466000FEF746FC0021A015FEF742FC10BD00221B
:104670000288A84B98420ED0AC4B98420BD0B0F1B8
:10468000804F08D0A44B984205D0A44B984202D04A
:10469000A34B984204D14FF68F731A404B881A43AC
:1046A000A04B984207D0A04B984204D04FF6FF434E
:1046B0001A400B891A4302804B68C3620B8803853A
:1046C000944B984202D0994B984201D18B7A038641
:1046D0000123838270474FF0FF3141600021018048
:1046E00001814180817270470185828270470A464C
:1046F000002101884FF68F731940114301807047E4
:1047000041627047C16270470146486A704701467E
:10471000088D704721B1028842F00202028004E055
:1047200002884FF6FD731A400280704721B102885B
:1047300042F00402028004E002884FF6FB731A4044
:104740000280704721B1028842F08002028004E0BA
:1047500002884FF67F731A400280704702884FF636
:10476000F7731A40028002880A4302807047028869
:104770004FF6FF431A40028002880A4302807047C6
:1047800021B1028842F00102028004E002884FF663
:10479000FE731A400280704770B500240022002387
:1047A000058C4FF6FE7635400584028C8388048B99
:1047B0004FF68F752C40B51E2C400D882C43751E6E
:1047C0002A408D892A434D882A43524DA84202D05F
:1047D000564DA84213D14FF6F7752A40CD892A438A
:1047E0004FF6FB752A408D882A434FF6FF652B4014
:1047F0004FF6FF552B400D8A2B434D8A2B43838068
:1048000004838D684563028470BD70B50024002266
:104810000023058C4FF6EF7635400584028C8388A3
:10482000048B48F6FF752C404FF6FF452C400D8851
:104830004FF6FF7606EA05252C434FF6DF752A4032
:104840008D8906EA05152A434D8806EA05152A438F
:10485000304DA84202D0354DA8421DD14FF67F758C
:104860002A40CD894FF6FF7606EA05152A434FF612
:10487000BF752A408D8806EA05152A434FF6FF3595
:104880002B404FF2FF752B400D8A06EA85052B431E
:104890004D8A06EA85052B43838004838D688563F2
:1048A000028470BD70B5002400220023058C4FF6F1
:1048B000FF6635400584028C8388848B4FF68F75A4
:1048C0002C404FF6FC752C400D882C434FF6FF55BD
:1048D0002A408D894FF6FF7606EA05252A434D8842
:1048E00006EA05252A430B4DA84202D00F4DA842E7
:1048F00038D14FF2FF752A40CD894FF6FF7606EA90
:1049000005252A434FF6FF352A408D8806EA0525FE
:104910002A4319E000000140000400400008004064
:10492000000C004000100040001400400004014052
:104930000040014000440140004801400018004090
:10494000001C0040002000404EF6FF752B404DF645
:10495000FF752B400D8A06EA05152B434D8A06EAA2
:1049600005152B43838084838D68C563028470BDE5
:1049700070B5002200230024058C4EF6FF763540EA
:104980000584038C8488828B48F6FF752A404FF695
:10499000FF452A400D884FF6FF7606EA05252A4393
:1049A0004DF6FF752B408D8906EA05352B434D8862
:1049B00006EA05352B43FE4DA84202D0FD4DA84224
:1049C00008D14BF6FF752C400D8A4FF6FF7606EAAC
:1049D00085152C43848082838D680564038470BDB3
:1049E000002101804180818081608181C1810182BB
:1049F0004182704770B503460020002418461830E5
:104A000001258D40ACB21D8CA5431D8409B1082938
:104A10000AD100EB610005684FF68F7635400560DE
:104A20000568154305600FE00D1FC5F34E052844CA
:104A3000056848F6FF763540056005684FF6FF7655
:104A400006EA02263543056070BD41637047816305
:104A50007047C1637047016470470A460021018BAB
:104A60004FF68F7319401143018370470A460021A6
:104A7000018B48F6FF7319404FF6FF7303EA0223D8
:104A80001943018370470A460021818B4FF68F73CB
:104A900019401143818370470A460021818B48F6F3
:104AA000FF7319404FF6FF7303EA02231943818312
:104AB00070470A460021018B4FF6F77319401143E6
:104AC000018370470A460021018B4FF2FF731940A2
:104AD0004FF6FF7303EA02231943018370470A4626
:104AE0000021818B4FF6F773194011438183704782
:104AF0000A460021818B4FF2FF7319404FF6FF7376
:104B000003EA02231943818370470A460021018B7F
:104B10004FF6FB7319401143018370470A46002189
:104B2000018B4FF6FF3319404FF6FF7303EA022360
:104B30001943018370470A460021818B4FF6FB73AE
:104B400019401143818370470A460021818B4FF63B
:104B5000FF3319404FF6FF7303EA022319438183A1
:104B600070470A460021018B4FF67F7319401143AD
:104B7000018370470A460021018BC1F30E014FF6F5
:104B8000FF7303EA02231943018370470A46002199
:104B9000818B4FF67F7319401143818370470A461A
:104BA0000021818BC1F30E014FF6FF7303EA02234C
:104BB0001943818370470A460021018C4FF6FD732B
:104BC00019401143018470470A460021018C4FF6B9
:104BD000F77319401143018470470A460021018C84
:104BE0004FF6DF7319404FF6FF7303EA02131943C0
:104BF000018470470A460021018C4FF67F731940EB
:104C00004FF6FF7303EA02131943018470470A4603
:104C10000021018C4FF6FF5319404FF6FF7303EA52
:104C200002231943018470470A460021018C4FF288
:104C3000FF7319404FF6FF7303EA022319430184FF
:104C400070470A460021018C4DF6FF7319404FF65C
:104C5000FF7303EA023319430184704730B5002320
:104C600001248C40A3B2048C9C430484048C02FA7B
:104C700001F5ADB22C43048430BD30B500230424CB
:104C80008C40A3B2048C9C430484048C02FA01F58A
:104C9000ADB22C43048430BD828B4FF2FF331A40F7
:104CA0008283828B4FF6FF7303EA01231A438283C8
:104CB0007047F0B50C461546002100220026078CEF
:104CC0004EF6FF7C07EA0C070784818B028C4FF6B7
:104CD000FF7707EA043640F6FF4739404FF6FF7783
:104CE00007EA052739434FF6FF7707EA03373943C9
:104CF00045F6FF773A4046F480573A438183028471
:104D0000F0BD828B4FF6F3731A408283828B0A4385
:104D100082837047F0B50C4615460021002200261C
:104D2000078C4FF6FF6C07EA0C070784818B028C17
:104D30004FF6FF7707EA04264FF60C7739404FF617
:104D4000FF7707EA03172F4339434FF2FF573A40E3
:104D500046F480773A4381830284F0BD028B4FF2A0
:104D6000FF331A400283028B4FF6FF7303EA0123DD
:104D70001A4302837047F0B50C4615460021002205
:104D80000026078C4FF6EF7C07EA0C070784018B9F
:104D9000028C4FF6FF7707EA041640F6FF473940CA
:104DA0004FF6FF7707EA033739434FF6FF7703E003
:104DB000000001400004014007EA052739434FF68F
:104DC0005F773A4046F010073A4301830284F0BD12
:104DD000028B4FF6F3731A400283028B0A4302835D
:104DE0007047F0B50C46154600210022068C4FF6A0
:104DF000FE773E400684018B028C4FF60C763140E4
:104E00007E1C06EA03162E4331434FF6F5763240F8
:104E100044F00106324301830284F0BD70B50546BB
:104E20000C46208850B92389A28861882846FFF75C
:104E3000D8FFE1882846FFF7CBFF25E0208804282B
:104E40000AD12389A28861882846FFF794FFE18868
:104E50002846FFF783FF17E0208808280AD1238916
:104E6000A28861882846FFF755FFE1882846FFF7AA
:104E700048FF09E02389A28861882846FFF719FFC7
:104E8000E1882846FFF708FF70BD002101804180BE
:104E9000012181800021C180018170472DE9F0410D
:104EA00005460C4600260127608808B9022600E066
:104EB0000026A088012801D1022700E001272088D0
:104EC000A0B92389A28861882846FFF78AFFE18874
:104ED0002846FFF77DFF23893A4631462846FFF7EB
:104EE0004AFFE1882846FFF739FF13E02389A288AB
:104EF00061882846FFF73FFFE1882846FFF72EFF2D
:104F000023893A4631462846FFF76BFFE188284659
:104F1000FFF75EFFBDE8F0810146486B7047014630
:104F2000886B70470146C86B70470146086C704734
:104F30000A884B881A438B881A43CB881A430B89FB
:104F40001A434B891A438B891A43A0F844207047AF
:104F50000021018041808180C18001814181818166
:104F6000704731B1B0F8442042F40042A0F8442028
:104F700005E0B0F84420C2F30E02A0F844207047C8
:104F800021B1828842F00402828004E082884FF6D8
:104F9000FB731A408280704721B1828842F001027F
:104FA000828004E082884FF6FE731A408280704748
:104FB0001AB183890B43838102E083898B43838108
:104FC00070478182704702460020138A0B400BB164
:104FD000012000E000207047CA430282704730B5CC
:104FE0000246002000230024158A05EA0103958962
:104FF00005EA010413B10CB1012000E0002030BD2E
:10500000CA430282704741EA0203A0F84830704761
:105010001AB183890B43838102E083898B438381A7
:10502000704721B1828842F00802828004E08288C1
:105030004FF6F7731A408280704701894FF6F87275
:105040001140018170470A46002101894FF68F7394
:10505000194011430181704730B504460D46294679
:105060002046FFF7F0FF208940F00700208130BD87
:105070002DE9F04104460D4616461F46602D06D127
:105080003B46012231462046FFF775FE05E03B46D0
:10509000012231462046FFF7A4FE29462046FFF7AD
:1050A000D2FF208940F007002081BDE8F08130B5B3
:1050B0000C4600210189C9B24FF6FF7505EA0325A8
:1050C000154325432943018130BD2DE9F0410546B3
:1050D0000E4617469846002443463A46314628462F
:1050E000FFF7E5FF2C894FF6F870044044F0070401
:1050F0004FF68F70044044F070042C81BDE8F081BD
:10510000F0B504460D4616461F463B463246294634
:105110002046FFF7CCFF208940F480402081F0BD7D
:1051200082884FF68F731A40828082880A43828079
:10513000704702894FF6F8731A40028102890A43C8
:105140000281704702894FF67F731A4002810289FB
:105150000A4302817047F0B50C4615461E460021F1
:10516000002200230189028B038C4FF6F877394027
:1051700021434FF6FC473A4040F201173A434FF6BD
:10518000DD773B404FF6FF7707EA06172F433B4397
:10519000018102830384F0BD21B1828842F0800244
:1051A000828004E082884FF67F731A4082807047C5
:1051B000A0F85010704770B405880E884468D1F884
:1051C00004C05368B54208D140884988884201BF6D
:1051D00011888D425188884203D070BC6FF0020064
:1051E000704705FB00F1880827D094ED001ADCED2C
:1051F000000A94ED010ADCED011A31EE201AD4ED1B
:10520000020A70EE211A9CED020A83ED001AC3ED2A
:10521000011A94ED031ADCED031A30EE800A401EE9
:1052200071EE210A83ED020A04F11004C3ED030AB2
:1052300003F110030CF1100CD7D111F0030030D0A2
:10524000B0F1004F30D200282BDD211F1B1FACF125
:10525000040210F0010F0AD091ED010AD2ED010A0B
:10526000091D121D30EE200A83ED010A1B1D4008A6
:1052700017D091ED010AD2ED010A401E30EE200A4E
:1052800083ED010A91ED020AD2ED020A01F1080153
:1052900002F1080230EE200A83ED020A03F108034E
:1052A000E7D170BC00207047B4EC010A401EFCEC52
:1052B000010A30EE200AA3EC010AF5D1F1E70180E2
:1052C00042804360704700002DE9F04F82B046688D
:1052D00053680193058847884B8800200090088810
:1052E000874201BFB2F800C06545528893421EBF95
:1052F0006FF0020002B0BDE8F08F9FED412A4FEA47
:10530000970EC7F3400B00BFDDE9000202EB800AF5
:105310004A6898464FF00009B0EE420AB4465FEA88
:105320000E0025D092ED001ADCED001A02EB83028C
:10533000DCED010A01EE810A92ED001A02EB830214
:10534000401ED2ED001A02EB830200EE810A9CEDB2
:10535000021ADCED030A00040CF1100C000C01EE43
:10536000210A92ED001A02EB830200EE810AD9D1E4
:1053700017F0030026D0ACF10404A2EB830210F076
:10538000010F08D002EB8302D4ED010A92ED001A5E
:10539000241D00EE810A5FEA0B0013D002EB830CA0
:1053A000D4ED010A9CED001A02EBC302401E00EE90
:1053B000810AD4ED020A92ED001A04F1080400EE0D
:1053C000810AEBD109F10100AAEC010A1FFA80F968
:1053D000486800EB8902A8F101001FFA80F8B8F1D3
:1053E000000F99D1009806EB8706184480B2009010
:1053F000681E05042D0C87D102B00020BDE8F08F97
:105400000000000070B405880E884468D1F804C01C
:105410005368B54208D140884988884201BF118845
:105420008D425188884203D070BC6FF002007047F3
:1054300005FB00F1880827D094ED001ADCED000A86
:1054400094ED010ADCED011A31EE601AD4ED020A86
:1054500070EE611A9CED020A83ED001AC3ED011A89
:1054600094ED031ADCED031A30EEC00A401E71EE13
:10547000610A83ED020A04F11004C3ED030A03F18B
:1054800010030CF1100CD7D111F0030030D0B0F1A3
:10549000004F30D200282BDD211F1B1FACF104026E
:1054A00010F0010F0AD091ED010AD2ED010A091D99
:1054B000121D30EE600A83ED010A1B1D400817D053
:1054C00091ED010AD2ED010A401E30EE600A83ED33
:1054D000010A91ED020AD2ED020A01F1080102F17E
:1054E000080230EE600A83ED020A03F10803E7D1F7
:1054F00070BC00207047B4EC010A401EFCEC010AAD
:1055000030EE600AA3EC010AF5D1F1E7704770476D
:10551000704770477047754600F044F8AE46050086
:105520006946534620F00700854618B020B5FDF7C0
:105530009BF8BDE820404FF000064FF000074FF009
:1055400000084FF0000B21F00701AC46ACE8C009A1
:10555000ACE8C009ACE8C009ACE8C0098D467047AA
:105560001FB584B000200A9C06AB04AA02A90094CF
:10557000AFF3008018B1DDE9020108B010BD0348A7
:10558000204000F013F800200146F6E70000207CE0
:1055900010B50446AFF300802046BDE81040FAF78E
:1055A0005CBE0000004870474C07002010B500F0BA
:1055B00009F8BDE81040AFF30080002801D0FCF7E7
:1055C0009BBF704710B5022803D0410103D50DA140
:1055D00012E0002010BD010101D50FA10CE0C100B7
:1055E00001D511A108E0810001D512A104E040001D
:1055F00001D513A100E0002115A000F039F8012029
:1056000010BD0000496E76616C6964204F70657250
:105610006174696F6E0000004469766964652042B8
:1056200079205A65726F00004F766572666C6F77ED
:1056300000000000556E646572666C6F77000000B4
:10564000496E657861637420526573756C740000EF
:105650005349474650453A2041726974686D6574F4
:10566000696320657863657074696F6E3A20000025
:1056700070B505460C460A2000E06D1CFCF73EFFA5
:1056800035B128780028F8D102E0641CFCF736FF19
:1056900014B120780028F8D1BDE870400A20FCF74A
:1056A0002DBF2DED020B019820F0004001909DEDE3
:1056B000000B02B0704700002DE9C04130B4DFF8A4
:1056C00064C33CEA111418BF3CEA131400F04B8188
:1056D00081EA03051CEA111444EAD57418BF1CEAD8
:1056E000131500F01D81A4EB05044FF0004545EAB9
:1056F000C12145EAC32341EA505143EA525304F120
:105700007F74994204F500344FEAC0204FEAC22268
:1057100008BF904200F0D0804FEA13650FF20426D4
:10572000765D4FEA134506FB05F7C7F1807706FB68
:1057300007F74FEAD737A7FB03687642C8F58038EA
:10574000A7FB06CE38BFA8F1010807FB08E64FF01B
:10575000000EA6FB028CE6FB03CEDCF1000CCEF1C2
:10576000004E38BFAEF1010EA6FB0C584FF00007FB
:105770004FF00005E6FB0E87A1FB08C6A0FB07CE95
:1057800016EB0E0645F10005E1FB076515F1E04E4D
:105790007EBFA4F580345FEA46066D4116F18007AE
:1057A000F1EE10CA45F100054FEA172747EA0567F1
:1057B0001CF4400F4FEA152536D14FEA4666A6F194
:1057C0005E46B6F1085F2FD9B4F1FE6F2CD838468B
:1057D00024F0010C05EBC471BCF1FE6F01EB0C1160
:1057E000DFF844C202D8F0BCBDE8004140F2FA83C1
:1057F00024425CBF01F5801E9EEAC47F02D4F0BC47
:10580000BDE8004140F1EE83244277D4DFF81CC2AA
:1058100056EA080EA1F1C04118BF4CF0804CF0BC14
:10582000BDE8004100F0DEBB4FEAD22242EA43521B
:105830004FEAD323A7FB02864FEAD02040EA41502B
:1058400007FB03661EEA0E0F4FEAD12105FB026635
:1058500058BFA6EB0056B6EB00564FEA520E4EEA82
:10586000C37E18EB0E0E56EB530E05D518EB02084F
:105870005E417F1C55F1000556EA080E24D01CF449
:10588000400FA4D014F0010F18BF4FEA4C0C1CF4C9
:10589000000F08D036429AD4B8EB02089E417F1E12
:1058A00075F1000593E7364291D518EB02085E4189
:1058B0007F1C55F100058AE74FF480154FF0000773
:1058C0004FF000064FF0000824F0010C384605EBBD
:1058D000C471BCF1FE6F01EB0C1102D8F0BCBDE845
:1058E00000811CEA0C0F5CBF01F5801E9EEAC47F9C
:1058F00002D4F0BCBDE80081244287D556EA080CEA
:1059000001F1C0411CBF06F0004C4CF0804C4CF043
:10591000005CF0BC4CF0140CBDE8004100F0A5BAEE
:1059200050EA410E0CEA13150BD052EA430E13D085
:1059300000F05DFA641B86EA4606240444EAD67445
:10594000D3E652EA430E00F02680F0BC81EA030160
:1059500001F00041BDE80081F0BCBDE80041DFF886
:10596000D0C000F03FBBF0BCBDE8004170B500F016
:10597000BDF900BF097EFC3E1400000400F007B82A
:1059800081EA03014FF0000001F00041704781EA15
:10599000030100F064BAF0BCBDE800415FF828C024
:1059A00000F020BBFFFDFBF9F7F5F4F2F0EEEDEBB4
:1059B000E9E8E6E4E3E1E0DEDDDBDAD8D7D5D4D30D
:1059C000D1D0CFCDCCCBCAC8C7C6C5C4C2C1C0BF59
:1059D000BEBDBCBBBAB9B8B7B6B5B4B3B2B1B0AF5F
:1059E000AEADACABAAA9A8A8A7A6A5A4A3A3A2A143
:1059F000A09F9F9E9D9C9C9B9A99999897979695FE
:105A000095949393929191908F8F8E8E8D8C8C8B99
:105A10008B8A898988888787868585848483838221
:105A2000828181800000FF071400004014000010F4
:105A3000140000084FEA1153A3F5806380B5D3F139
:105A40001E03A8BFD3F1200C1BDB4FF0004242EA3B
:105A5000C12252EA505232FA03FC62FA03F787EA93
:105A60000C0757EAC0270AD052EA505232FA03FC18
:105A70006046BDE88040DFF890C000F0B3BA6046F1
:105A800080BD094218D450EA410C00D180BD102BD2
:105A900007DD4FF00000BDE88040DFF86CC000F08B
:105AA000A1BA03F5787CBCF1FF3F22D0BDE880406D
:105AB000DFF858C000F096BABDE8804001F180429E
:105AC00012F5801F09DA50EA41024FF0000018BFBA
:105AD000DFF834C040F086827047DFF830C001281C
