:020000040800F2
:10000000D00D0020892B0008A5090008A7090008C9
:10001000AB090008AF090008B309000800000000A0
:10002000000000000000000000000000B709000808
:10003000B909000800000000BB090008BD0900085C
:10004000A32B0008A32B0008A32B0008A32B000858
:10005000A32B0008A32B0008A32B0008A32B000848
:10006000A32B0008A32B0008A32B0008A32B000838
:10007000A32B0008A32B0008A32B0008A32B000828
:10008000A32B0008A32B0008A32B0008A32B000818
:10009000E30F0008A32B0008A32B0008A32B0008E4
:1000A000A32B0008A32B0008A32B0008A32B0008F8
:1000B000A32B0008A32B0008A32B0008A32B0008E8
:1000C000A32B0008A32B0008A32B0008A32B0008D8
:1000D000A32B0008FF2A0008A32B0008A32B00086D
:1000E000A32B0008A32B0008A32B0008A32B0008B8
:1000F000A32B0008A32B0008A32B0008A32B0008A8
:10010000A32B0008A32B0008BF090008A32B00089D
:10011000A32B0008A32B0008A32B0008A32B000887
:10012000A32B0008A32B0008A32B0008A32B000877
:10013000A32B0008A32B0008A32B0008A32B000867
:100140008B140008A32B0008A32B0008A32B000886
:10015000A32B0008A32B0008A32B0008A32B000847
:10016000A32B0008A32B0008A32B0008A32B000837
:10017000A32B0008A32B0008A32B0008A32B000827
:10018000A32B0008A32B000800F002F800F05CF895
:100190000AA090E8000C82448344AAF10107DA45E2
:1001A00001D100F051F8AFF2090EBAE80F0013F0D8
:1001B000010F18BFFB1A43F0010318474C7E0000E3
:1001C0006C7E00000A444FF0000C10F8013B13F065
:1001D000070408BF10F8014B1D1108BF10F8015BA0
:1001E000641E05D010F8016B641E01F8016BF9D193
:1001F00013F0080F1EBF10F8014BAD1C0C1B09D1EA
:100200006D1E58BF01F801CBFAD505E014F8016B5B
:1002100001F8016B6D1EF9D59142D6D370470000ED
:100220000023002400250026103A28BF78C1FBD8FF
:10023000520728BF30C148BF0B6070471FB507F099
:100240005FFC1FBD10B510BD05F02EFC1146FFF779
:10025000F5FF00F009F805F04CFC03B4FFF7F2FFDE
:1002600003BC02F0E7FB00002DED0C8B9FEDFC0BB7
:10027000FD4880ED000B00F005FDA82002F058FBC2
:100280004FF4E13002F0E5FB00F02CFD00F070FDD2
:1002900001F080FB02F036F90121F44804F00EFD74
:1002A00000F075FE01F0C9FC0420F149087068E314
:1002B00000F06DFE4FF47A7002F054FB15E001F08F
:1002C00019FD01F035FA4021EA4802F0F1FD8021E4
:1002D000E84802F0EDFD4FF47A7002F043FB00F0C5
:1002E00056FE4FF47A7002F03DFBE148007800289A
:1002F000E5D0DF48007801282AD11DE0DE4890EDE6
:10030000000A01F0DDFFB0EE409A01F0EDFEF0EEE4
:10031000408A01F027FEB0EE408A01F03DFC01F07A
:10032000E9FC01F005FA4FF47A7002F01BFBD348A8
:100330000068401CD1490860D0480068B0F5FA7FD9
:10034000DCDB01F080FC0020CC490860C849087063
:10035000C748007802282DD121E0C94890ED000A55
:1003600001F0C2FEF0EE408A01F0FCFDB0EE408AE2
:1003700001F012FC01F0BEFCC24800680A2190FBAB
:10038000F1F201FB120008B901F0D2F94FF47A70D2
:1003900002F0E8FABB480068401CBA490860B94856
:1003A00000686428D9DB01F04EFC0020B5490860E4
:1003B000AF490870AE48007804287CD10020B249CB
:1003C00008600EE000F0E3FD052002F013FB01F0F1
:1003D000AFF9052002F00EFBAB480068401CAA49AB
:1003E0000860A9480068C828ECDB052002F002FB81
:1003F0000020A6490860D8E00020A349086058E022
:10040000A14890ED000AB8EEC00ADFEDA10A20EE87
:10041000200ADFEDA00A20EE200A10EE101A08468E
:1004200007F0B8FA41EC1D0BB0EE4D0AF0EE6D0A84
:1004300005F006FCB0EE40CAF0EE60CA9FED880BF6
:1004400053EC102B51EC1C0B06F0DAFD41EC1A0BAF
:100450008E4890ED000AF8EEC00AB7EE000AB6EE3C
:10046000001A01EE200A10EE101A084607F092FA60
:1004700041EC1B0B53EC1A2B06F0D4F941EC190B91
:1004800006F06EF808EE900AB0EE680A01F02CFE55
:10049000B0EE408A01F080FB01F02CFC01F048F93D
:1004A0004FF47A7002F05EFA77480068401C764993
:1004B0000860754800E02EE290ED000AB8EEC00A30
:1004C000DFED740AB4EEE00AF1EE10FA98D30020E2
:1004D0006D49086058E06C4890ED000AB8EEC00A1B
:1004E000DFED6B0A20EE200ADFED6A0A20EE200A1B
:1004F00010EE101A084607F04DFA41EC1D0BB0EE55
:100500004D0AF0EE6D0A05F09BFBB0EE40CAF0EE2E
:1005100060CA9FED530B53EC102B51EC1C0B06F0F3
:100520006FFD41EC1A0B594890ED000AF8EEC00A35
:10053000BFEE000AB6EE001A01EE600A10EE101AC5
:10054000084607F027FA41EC1B0B53EC1A2B06F078
:1005500069F941EC190B06F003F808EE900AB0EEC9
:10056000680A01F0C1FDB0EE408A01F015FB01F010
:10057000C1FB01F0DDF84FF47A7002F0F3F9424864
:100580000068401C404908603F4890ED000AB8EE02
:10059000C00ADFED400AB4EEE00AF1EE10FA9AD399
:1005A0003A480068401C3949086038480068052806
:1005B000FFF622AF00203449086040E0324890ED59
:1005C000000AB8EEC00ADFED320A20EE200ADFEDA5
:1005D000320A20EE200A10EE101A084607F0DAF967
:1005E00041EC1B0BB0EE4B0AF0EE6B0A05F028FB5A
:1005F000B0EE40AAF0EE60AA9FED280B53EC102B52
:1006000051EC1A0B06F0FCFC41EC190B05F0A8FFAD
:1006100008EE900AB0EE680A01F066FDB0EE408A7E
:1006200001F0BAFA01F066FB01F082F84FF47A703B
:1006300002F098F914480068401C134908601248F9
:1006400090ED000AB8EEC00ADFED160AB4EEE00A3B
:10065000F1EE10FAB2D300200B49086071E00000FF
:10066000000000000000000098000020000C004086
:10067000A000002000000240700000203800002090
:10068000740000203C000020A8000020B0000020E2
:10069000DB0FC94000007A446F12833A000000006B
:1006A0000000144000409C45B64890ED000AB8EEAA
:1006B000C00A5FED090A20EE200A5FED090A20EE6C
:1006C000200A10EE101A084607F064F941EC1C0BE2
:1006D000B0EE4C0AF0EE6C0A05F0B2FAB0EE40BA99
:1006E000F0EE60BA1FED130B53EC102B51EC1B0B0B
:1006F00006F086FC41EC1A0BB0EE4A0AF0EE6A0AEC
:1007000005F093FAB0EE409AF0EE609A51EC190BB6
:1007100005F026FF08EE900AB0EE680A01F0E4FC4E
:10072000B0EE408A01F038FA01F0E4FA01F000F886
:100730004FF47A7002F016F992480068401C914913
:100740000860904890ED000AB8EEC00ADFED8E0A0E
:10075000B4EEE00AF1EE10FAA6D300208949086051
:1007600050E0884890ED000AB8EEC00A5FED380A04
:1007700020EE200A5FED380A20EE200A10EE101A53
:10078000084607F007F941EC1D0BB0EE4D0AF0EEFC
:100790006D0A05F055FAB0EE40CAF0EE60CA1FEDE2
:1007A000410B53EC102B51EC1C0B06F029FC41ECD7
:1007B0001B0BB0EE4B0AF0EE6B0A05F036FAB0EE0A
:1007C00040AAF0EE60AA51EC1A0B05F0BDFE41EC18
:1007D000190B05F0C5FE08EE900AB0EE680A01F0AC
:1007E00083FCB0EE408A01F0D7F901F083FA00F003
:1007F0009FFF4FF47A7002F0B5F862480068401C21
:10080000604908605F4890ED000AB8EEC00ADFED6D
:100810005E0AB4EEE00AF1EE10FAA2D300205B49C2
:10082000086034E00020574908601FE05548D0EDCB
:10083000000AB8EEE01ADFED561AF9EE040A41EEAE
:10084000210AB0EE600A01F04FFCB0EE408A01F0E0
:10085000A3F901F04FFA00F06BFF4FF47A7002F049
:1008600081F848480068401C46490860454890EDBA
:10087000000AB8EEC00A5FED790AB4EEE00AF1EEC4
:1008800010FAD3D341480068401C404908603F48F3
:1008900000680528C6DB00203C49086034E00020E1
:1008A000384908601FE03748D0ED000AB8EEE01A7A
:1008B000DFED371AF1EE040A41EE610AB0EE600A8C
:1008C00001F012FCB0EE408A01F066F901F012FA74
:1008D00000F02EFF4FF47A7002F044F829480068C7
:1008E000401C28490860274890ED000AB8EEC00A6D
:1008F0005FED980AB4EEE00AF1EE10FAD3D3234884
:100900000068401C21490860204800680528C6DBB3
:100910000020204908701F48007805280BD101F0FD
:10092000E9F900F005FF9FED1C0A01F035F94FF4DD
:100930007A7002F017F817480078062821D115E0E0
:10094000164890ED000A01F00DFBB0EE408A01F070
:1009500023F901F0CFF900F0EBFE4FF47A7002F0CA
:1009600001F80F480068401C0D4908600C480068F9
:100970006428E5DB01F067F90020094908600549B2
:10098000087095E4A800002000803B45B0000020DE
:100990000AD7233CA0000020CDCCCC3D780000201D
:1009A00040000020704700BFFEE700BFFEE700BF29
:1009B000FEE700BFFEE7704770477047704710B50D
:1009C0000121254804F0A9FD012843D10121224835
:1009D00004F0B4FD20482430006801281BD11E48D3
:1009E000243000681D4908609FED1D0B53EC102B4F
:1009F0001D4890ED000B51EC100B06F0C9FC1A4A93
:100A000003C21A4890ED000AF7EE000A30EE600AC1
:100A100080ED000A1EE0104824300068D0B90E486E
:100A200024300068124908609FED0D0B53EC102B29
:100A30000D4890ED000B51EC100B05F0F3FE0A4A47
:100A400003C20A4890ED000AF7EE000A30EE200AD1
:100A500080ED000A10BD0000000C0040B80000202E
:100A6000000000000000F03F98000020000000207F
:100A7000BC0000200CB50020019000907648006872
:100A800040F480307449086000BF7348006800F487
:100A9000003000900198401C0190009818B901980E
:100AA000B0F5A04FF1D16C48006800F4003010B1EF
:100AB0000120009001E0002000900098012846D11C
:100AC00065484030006840F080506349403108601C
:100AD0006248006840F44040604908605E48083061
:100AE00000685D49083108600846006840F400402D
:100AF00008600846006840F4A05008605848091F84
:100B00000860081F006840F08070091F086000BF7F
:100B10005148006800F000700028F9D040F20570DC
:100B2000504908604C480830006820F003004A49EA
:100B3000083108600846006840F00200086000BF05
:100B400045480830006800F00C000828F8D10CBDBA
:100B500010B54548006840F47000434908603E48BD
:100B6000006840F001003C49086000203A49083123
:100B70000860394800683D490840374908603C48EA
:100B8000091D0860081F006820F48020091F086004
:100B9000002031490C310860FFF76CFF4FF0006016
:100BA00031498039086010BD70B500200022022351
:100BB00000240221284D08352D6805F00C0020B1D5
:100BC000042806D0082834D107E02A4D2A4E356083
:100BD00033E02A4D284E35602FE01F4D2D1D2D6826
:100BE000C5F380541C4D2D1D2D6805F03F0154B1F7
:100BF000224DB5FBF1F5184E361D3668C6F3881642
:100C000005FB06F209E01B4DB5FBF1F5124E361D52
:100C10003668C6F3881605FB06F20F4D2D1D2D68AC
:100C2000C5F301456D1C6B00B2FBF3F5124E356048
:100C300003E0104D104E356000BF00BF064D083573
:100C40002D68C5F303150E4E705D0B4D2D68C54024
:100C5000094E356070BD0000003802400070004051
:100C600008544007003C024088ED00E0FFFFF6FE1C
:100C7000103000240024F400C000002000127A008C
:100C8000C400002008B54FF4407001F09DFF14200F
:100C90008DF8000001208DF801008DF802008DF81C
:100CA0000300684601F095FF40208DF80000012008
:100CB0008DF8010002208DF8020001208DF803005C
:100CC000684601F086FF32208DF8000000208DF884
:100CD00001008DF8020001208DF80300684601F044
:100CE00078FF08BD1CB50121202002F001FB4FF464
:100CF000C060009001208DF8040000208DF80600EF
:100D000003208DF8050001208DF807006946024890
:100D100002F050F81CBD00000014024010B502465D
:100D2000002000BF20E000EB8003F74C54F8233094
:100D3000934218D100EB800304EB83031B79CB7043
:100D400000EB800304EB83031B7A0B7100EB800341
:100D500004EB83031B7B4B7100EB800304EB8303E9
:100D60001B8A0B8010BD401C1228DCD300BFF9E7A2
:100D700000B589B00121084602F0BAFA4FF40060CC
:100D8000079002208DF820008DF8210000208DF8BA
:100D9000220001208DF8230007A9DC4802F00AF8A0
:100DA0004FF48050079007A9D84802F003F80922B1
:100DB0000B21D64802F089F809220C21D34802F011
:100DC00084F80121480602F0DCFAD14802F00EFE58
:100DD00004A802F02FFF00208DF816008DF81700F0
:100DE0008DF8180001208DF8190000208DF81A00E8
:100DF0008DF81B008DF8120004A94FF4FA70FFF76C
:100E00008DFF04A9C24802F00AFE00208DF80A00F6
:100E10008DF80B0001208DF80C00BE4800884FF6BD
:100E2000FF7101EA4010ADF80000BB480088ADF842
:100E30000200BA48008801EA4010ADF80400B84842
:100E40000088ADF806000020ADF8080001208DF8FC
:100E50000D00684602F06DFE01220221AC4803F04D
:100E600067F909B000BD00B589B00121022002F088
:100E70003FFA2020079002208DF820008DF82100F5
:100E800000208DF8220001208DF8230007A9A54835
:100E900001F090FF4020079007A9A24801F08AFFC7
:100EA000092205219F4802F010F8092206219D48D9
:100EB00002F00BF801214FF0C06002F062FA9A488C
:100EC00002F094FD04A802F0B5FE00208DF8160093
:100ED0008DF817008DF818008DF819008DF81A009C
:100EE0008DF81B008DF8120004A94FF4FA70FFF77B
:100EF00015FF04A98C4802F092FD0E208DF80A001F
:100F000000208DF80B0001208DF80C000020ADF8BA
:100F10000000ADF80200ADF80400ADF80600ADF831
:100F2000080001208DF80D00684602F002FE012243
:100F300002217D4803F0FCF809B000BDF0B585B092
:100F400006460F46154600247248007800F07F00E0
:100F50004FF4F06101EAC6110843009001200190AE
:100F600000208DF808008DF809008DF80A5000BFA8
:100F700005E0395D0DF10B000155601CC4B2AC42B7
:100F8000F7DB6946624802F0C3FE05B0F0BD1CB550
:100F9000002000900190654800788DF800006348BB
:100FA00040788DF80100614880788DF802005F4834
:100FB000C0788DF803005D4800798DF804005B4827
:100FC00040798DF80500594880798DF8060057481A
:100FD000C0798DF80700082269460520FFF7AEFFAB
:100FE0001CBDF0B585B000240020009001908DF864
:100FF00008008DF80A008DF8130000BF05E00021FD
:101000000DF10B000155601CC4B2082CF7DBFFF793
:10101000BEFF0098C0F3C7100B2817D100259DF81C
:101020000B004511012D10D19DF80D109DF80C00FD
:1010300041EA00269DF810109DF80F0041EA0027B4
:10104000022E01DAFFF794FE00BFF9E10098C0F329
:10105000C7100328F9D100219DF80B00411119B9DF
:101060000020334A1070EAE1012969D100239DF87C
:101070000B50012606EA950515B9B7EE000A01E006
:10108000BFEE000A00209DF80C504FF47F0606EAE0
:10109000054528439DF80D50361206EA05252843DC
:1010A0009DF80E50284300EE900AF8EE600A60EEBC
:1010B000800A9FED201A60EE810A9FED1F1AC0EE94
:1010C000811A1E4DD5ED000AF4EE601AF1EE10FA09
:1010D0000FD000EE900AF8EE600A60EE800A9FEDF5
:1010E000151A60EE810A9FED141AC0EE811AC5ED43
:1010F000001A00239DF80B5005F001050DBBF7EE1B
:10110000000AB0EE600A20E0807D00080000024086
:1011100000640040D4000020D8000020DA00002045
:10112000DE000020000402400068004004000020AF
:10113000A0000020DB0F494000C82F4870000020AD
:10114000B4E0FFEE000AB0EE600A00229DF80F50F6
:101150004FF47F4606EA05252A439DF810502A439E
:1011600000EE902AF8EE600A60EE800A1FED0F1A7A
:1011700060EE810A9FEDFE1AC0EE811AFD4DD5ED9D
:10118000000AF4EE601AF1EE10FA0FD000EE902A89
:10119000F8EE600A60EE800A1FED1A1A60EE810A0E
:1011A0009FEDF31AC0EE811AC5ED001AF24DD5ED90
:1011B000010AC5ED000AF14DD5ED000AEE4DC5ED71
:1011C000010A0025EE4E3560DFEDEE0AEE4DC5ED6D
:1011D000000ADFEDEC0AC5ED010ADFEDEA0AC5ED14
:1011E000020ADFEDE80AC5ED030AE84DD5ED000A75
:1011F000E54DC5ED000AE14DD5ED000AB0EE081A47
:1012000060EE810AE24D95ED001ADA4DD5ED001A37
:1012100041EE610ADD4D95ED001AF0EE081A41EE3F
:10122000C10ADB4D95ED001AF0EE001A21EE211AED
:10123000C0EE811AD44DC5ED011ADFEDD20AC5ED1D
:10124000020AD34DD5ED000AB0EE081A60EE810A0D
:10125000C84D95ED001A60EE810AC84D95ED001A53
:10126000F0EE081A41EEC10AC84D95ED001AF0EEF5
:10127000081A41EE810AC64D95ED001AF1EE081AE2
:1012800021EE211AD5ED001A21EE211AD5ED001A12
:1012900021EE211AC0EE811ABB4DC5ED031A0025BF
:1012A000BC4E35600125BC4E3570C8E0022901D026
:1012B00004297CD19DF80B2002F0010212B9B7EE8F
:1012C000000A01E0BFEE000A00209DF80F204FF455
:1012D0007F4303EA022210439DF81020104300EEE2
:1012E000900AF8EE600A60EE800A1FED6E1A60EE5A
:1012F000810A9FED9F1AC0EE811A9E4AD2ED000A24
:10130000F4EE601AF1EE10FA0FD000EE900AF8EE4B
:10131000600A60EE800A1FED791A60EE810A9FED87
:10132000941AC0EE811AC2ED001A9C4AD2ED010A4D
:10133000C2ED000A8F4AD2ED000A984AC2ED010AB6
:1013400000228F4B1A60954AD2ED000A92ED011AE5
:1013500070EEC10AB0EE001A20EE811A8C4AD2ED6E
:10136000001AC1EE210AD2ED001A80EEA11AD2EDC8
:10137000000AC1EE201A8A4AC2ED001A874AD2ED4D
:10138000010A92ED001A70EEC10AB0EE081A20EEC2
:10139000811A7F4AD2ED001AC1EE210A92ED001A9D
:1013A000C0EE811A7E4AC2ED011A7C4A00E00BE0D1
:1013B000D2ED000A7A4AC2ED020A0022794B1A6085
:1013C0000222754B1A703AE0032903D10320724AB6
:1013D000107034E0062932D19DF80B20012303EA76
:1013E000520212B9B7EE000A01E0BFEE000A9DF802
:1013F00012309DF8112003EB022290B201EE100A88
:10140000B8EE411A21EE001ADFED671A81EE212AAB
:10141000B1EE041A62EE010A644AC2ED000A644A9F
:10142000C2ED010A92ED011A82ED001A0022544B1E
:101430001A60604B1A600622574B1A7000BF00BF3B
:1014400005B0F0BDF0B585B005460E460027009505
:10145000002001908DF808008DF8090008208DF813
:101460000A0055480670002406E05348015D0DF15E
:101470000B000155601CC4B2082CF6DB69464F48CE
:1014800002F046FC074605B0F0BD00B585B000206F
:10149000009001908DF808008DF80A008DF8130077
:1014A0008DF80B006A460021454802F026FD012018
:1014B000444908700221424802F03DFF05B000BDDA
:1014C000F0B585B005460E46002700950020019036
:1014D0008DF808008DF8090008208DF80A003A48B8
:1014E0000670002406E03848015D0DF10B0001553F
:1014F000601CC4B2082CF6DB6946314802F008FCD7
:10150000074605B0F0BD1CB50020009001902F48A3
:1015100000788DF801002D4840788DF802002B48A6
:1015200080788DF803002A4800788DF80400284858
:1015300040788DF80500274800788DF8060025488A
:1015400040788DF8070024480078002805DD9DF8D4
:10155000000040F004008DF80000204800780028CA
:1015600005DD9DF8000040F001008DF8000037E037
:1015700000A00C47740000208C00002070000020A8
:10158000240400400000000038040020680000200F
:101590003400002038000020A00000207C00002043
:1015A000480400203C00002000FF7F477800002016
:1015B0008400002040000020E00000200064004083
:1015C00000680040F1000020E900002047000020F2
:1015D000440000204D0000204A000020460000206A
:1015E000D4480078002805DD9DF8000040F0020096
:1015F0008DF80000082269460020FFF79FFC1CBD03
:101600001CB5002000900190CB4800788DF80000B8
:10161000C94840788DF80100082269460120FFF78B
:101620008DFC1CBD1CB5002000900190C3480078C3
:101630008DF80000C14840788DF80100C04800785E
:101640008DF80200BE4840788DF80300BD48007850
:101650008DF80400BB4840788DF8050008226946E3
:101660000220FFF76BFC1CBD1CB500200090019010
:10167000B54800788DF80000B34840788DF8010037
:10168000B24800788DF80200B04840788DF8030029
:10169000AF4800788DF80400AD4840788DF805001B
:1016A000082269460320FFF749FC1CBD1CB5002039
:1016B00000900190A74800788DF80000A548407878
:1016C0008DF80100A44800788DF80200A248407807
:1016D0008DF80300A14800788DF804009F484078F9
:1016E0008DF80500082269460420FFF727FC1CBD81
:1016F00010B5FFF708FFC82001F034F9FFF780FFAD
:10170000C82001F02FF9FFF78DFFC82001F02AF95A
:10171000FFF7AAFFC82001F025F9FFF7C7FFC8208F
:1017200001F020F9FFF733FCC82001F01BF910BDD0
:1017300010B52DED088B0024894890ED000AB5EE18
:10174000C00AF1EE10FA03DB00208649087002E0BF
:101750000120844908708248006806F01BF941ECBA
:101760001B0BB0EE4B0AF0EE6B0A04F05EFAB0EE23
:1017700040AAF0EE60AA9FED7C0B53EC102B51ECCD
:101780001A0B05F03DFC41EC190B9FED790B53EC66
:10179000102B05F06DF941EC180B05F08BFB00F4F4
:1017A0007F00000C744908706D48006806F0F2F87C
:1017B00041EC1B0BB0EE4B0AF0EE6B0A04F035FA6D
:1017C000B0EE40AAF0EE60AA9FED670B53EC102B31
:1017D00051EC1A0B05F014FC41EC190B9FED640B56
:1017E00053EC102B05F044F941EC180B05F062FBAB
:1017F00000F47F40000A604948705948006806F0CC
:10180000C9F841EC1B0BB0EE4B0AF0EE6B0A04F08A
:101810000CFAB0EE40AAF0EE60AA9FED530B53EC29
:10182000102B51EC1A0B05F0EBFB41EC190B9FED63
:10183000500B53EC102B05F01BF941EC180B05F085
:1018400039FB4D4988704D4890ED000AB5EEC00A4D
:10185000F1EE10FA03DB00204949087002E0012094
:1018600047490870454991ED000A5FEDBF0A20EE37
:10187000200ADFED440A80EE201ABDEEC10A10EE08
:10188000100A002801DB014600E0414201F47F41DB
:1018900009123D4A1170394991ED000A5FEDCC0AF9
:1018A00020EE200ADFED370A80EE201ABDEEC10AD5
:1018B00010EE100A002801DB014600E04142324AE6
:1018C00051702D480078072803DA2B4800782A4900
:1018D00008702E49D1ED000AB1EE041A80EE810A9B
:1018E0005FEDCF0A20EE200ABDEEC00A10EE100A0E
:1018F000002801DB014600E041428CB2234890ED14
:10190000000AB5EEC00AF1EE10FA03DB0020094927
:10191000087002E001200749087004F47F400012BB
:101920001B49087000204870FFF7EDFDBDEC088BE7
:1019300010BD00004F0000204B0000205000002090
:1019400052000020540000205600002058000020C3
:101950005A0000205C0000205E0000206000002093
:10196000680000204A0000200000000000F9054146
:1019700000000060FB2109404700002064000020B7
:1019800046000020DB0F4940440000206C0000208E
:101990004D00002000B589B00121082001F0F1FCC4
:1019A0000121084601F0A4FC0320079002208DF8D5
:1019B000200000208DF8220001208DF82300032054
:1019C0008DF8210007A9244801F0F4F90222002132
:1019D000214801F07AFA022201211F4801F075FA2C
:1019E0001E4803F035F8012005900020ADF81000E6
:1019F000ADF81800ADF8120004A9184803F0D5F8A6
:101A00000A231A460321154803F043FE01A803F0F8
:101A1000DAFC0020ADF80C0001A9104803F09CFC92
:101A200001210E4803F076FD012211460B4803F018
:101A30005DFD00200949243108600021074803F0BA
:101A40003DF90121054803F039F90021034803F06D
:101A500035F909B000BD000000000240000C004054
:101A600000B587B00121084601F042FC012148077A
:101A700001F087FC1020059003208DF8180002204B
:101A80008DF81B0005A9FE4801F094F90020019093
:101A9000029003900220049001A9002002F0DBFED6
:101AA0000121002002F0F4FE0021084602F03EFF72
:101AB0000121084601F01CFCC020059001208DF892
:101AC000180000208DF81A0003208DF8190002205C
:101AD0008DF81B0005A9EA4801F06CF94021E8489F
:101AE00001F0E6F98021E64801F0E2F907B000BD17
:101AF00000B58DB00121084601F0FAFB0121080272
:101B000001F050FC20200B9003208DF830000020C5
:101B10008DF833000BA9DA4801F04CF901210802D5
:101B200001F095FC00214FF4807001F090FC002042
:101B300007900A9009904FF48030089007A802F0AF
:101B400087FC002001908DF808008DF809000390B3
:101B5000059001208DF8180001A9CA4802F049FC3F
:101B60000121C84802F08BFC0DB000BD10B5044641
:101B7000022301222146C34802F0C1FCC14802F001
:101B80001AFD00BF0221BF4802F036FE0028F9D03E
:101B9000BC4802F04CFD10BD10B52DED028BB0EE2F
:101BA000408AB5EEC08AF1EE10FA1BDB8021B44802
:101BB00001F07CF94021B24801F07AF94FF48071CC
:101BC000AF4801F075F90120AF4908609FEDAF0AF9
:101BD00028EE000AF1EE040A80EE201AAC4880EDEF
:101BE000001A1CE04021A64801F060F98021A448B9
:101BF00001F05EF94FF48071A14801F059F900201D
:101C0000A1490860B1EE480ADFEDA00A20EE200AE3
:101C1000F1EE040A80EE201A9D4880ED001A9C48DF
:101C200090ED000ABCEEC00A10EE100A81B200204E
:101C300002F07CFEBDEC028B10BD10B5FFF710FF6B
:101C4000FFF756FF10BD0020924908601FE09FED8E
:101C5000920A92488F49096800EB810080ED000AE2
:101C60009FED8D0A8E488B49096800EB810080ED5D
:101C7000000A9FED890A8B488649096800EB8100BC
:101C800080ED000A83480068401C82490860814852
:101C900000680C28DBDB9FED800A834880ED000A9A
:101CA0009FED7D0A80ED010A9FED7B0A7F4880ED64
:101CB000000A9FED790A80ED010A9FED770A7C48C2
:101CC00080ED000A9FED740A80ED010A9FED720A13
:101CD000784880ED000A9FED700A774880ED000A91
:101CE0009FED6D0A754880ED000A9FED6B0A80ED4F
:101CF000010A704710B52DED068B1720704908605A
:101D000022E06F480068401E6E4901EB800090EDB4
:101D1000000A08466A49096800EB810080ED000A64
:101D200067480068401E684901EB800090ED000A9A
:101D300008466349096800EB810080ED000A6048AD
:101D40000068401E5E4908605D4800680028D8DCD5
:101D50005E49086805F040F941EC190B9FED5C0BFA
:101D600053EC102B5C4890ED000B51EC100B05F080
:101D700047F941EC1A0B53EC192B04F053FD41ECDD
:101D8000180B04F0EDFB4F490860084690ED000A7F
:101D9000D0ED170A30EE600AF3EE080A80EE201A42
:101DA0004E4880ED001A084690ED000ADFED4C0A1F
:101DB00060EE200AB0EE001A80EE810A9FED491A0B
:101DC000C0EE010A9FED481A80EE810A4748D0ED27
:101DD000000A30EE200A464880ED000A3A4890EDAD
:101DE000000AF7EE000A20EE200AD0ED010AB7EE55
:101DF000001A01EE600AD0ED020AB7EE001A01EEF9
:101E0000200AD0ED030A30EE600A3A4880ED000A5D
:101E10002D4890ED000AF1EE000A20EE200AD0EDE8
:101E2000010AB1EE001A01EE600AD0ED020AB0EE2E
:101E3000081A01EE200AD0ED030AB0EE081A01EEEE
:101E4000600AD0ED040AB7EE001A01EE200AD0EDC8
:101E5000050A30EE600AD0ED060AB7EE001A01EE70
:101E6000200AD0ED070A30EE600AB2EE021AC0EE88
:101E7000010AB1EE001A80EE810ADFED1F0A3DE093
:101E80000000024000200140F800002000008045D2
:101E9000F40000200C0100200000000000050020DC
:101EA00030050020D0040020FC00002004010020A8
:101EB00084000020100100202001002018010020D3
:101EC0002401002084050020E4050020240C0040AB
:101ED000000000000000F03F9800002028010020D2
:101EE000DB0F49400000FA430000C8422C010020EB
:101EF00034010020380100206F12833A80EE201A4E
:101F0000FE4880ED001A0520FFF730FE00EE100AB3
:101F1000B8EE400AFA4880ED000A90ED000ADFEDC5
:101F2000F90A30EE600AF0EE000A20EE200AF1EE27
:101F3000040A20EE200A5FED2B0A80EE201AF248F8
:101F400080ED001A90ED000AF04880ED000A00F0E4
:101F5000C5FBEF4890ED000AEE4880ED000ABDECAD
:101F6000068B10BDF0EE400AEB48C0ED000A90ED84
:101F7000000A9FEDEA1AB4EEC10AF1EE10FA03DB93
:101F80009FEDE60A80ED000AE34890ED000A9FED20
:101F9000E41AB4EEC10AF1EE10FA03D89FEDE00A9C
:101FA00080ED000ADC4890ED000ADE4890ED001A52
:101FB00030EE410ADC4880ED000A90ED000ADB4873
:101FC00080ED000A1FED4C0A80ED010A0020D8497F
:101FD000086013E0D54890ED010AD348D449096858
:101FE00000EB810090ED001A30EE010ACF4880ED41
:101FF000010ACF480068401CCD490860CC48006801
:102000000C28E7DBC84890ED000AB0EE081A20EE75
:10201000010A90ED011AF1EE001A01EEC10A90EDED
:10202000021A30EE010AC14880ED020AC14890ED63
:10203000000ABE4890ED001ABF48D0ED001A01EE2C
:10204000810ABA4890ED011ABC48D0ED001A01EEA1
:10205000810AB64890ED021AB948D0ED001A01EE97
:10206000810AB44880ED010A90ED010A9FEDAB1A98
:10207000B4EEC10AF1EE10FA03DB9FEDA80A80ED81
:10208000010AAC4890ED010A9FEDA51AB4EEC10A11
:10209000F1EE10FA03D89FEDA20A80ED010AA548DF
:1020A00090ED010A80ED000A0B20A149086013E0C1
:1020B0009F480068401E9C4901EB800090ED000A9B
:1020C00008469B49096800EB810080ED000A9848AA
:1020D0000068401E96490860954800680028E7DCC3
:1020E000944890ED010A7047F0EE400A9548C0ED23
:1020F000000A90ED000A9FED941AB4EEC10AF1EEC9
:1021000010FA03DB9FED900A80ED000A8D4890EDF8
:10211000000A9FED8E1AB4EEC10AF1EE10FA03D850
:102120009FED8A0A80ED000A864890ED000A8848F3
:1021300090ED001A30EE410A864880ED000A90EDDD
:10214000000A854890ED001AB4EEC10AF1EE10FACB
:1021500004DD90ED000A7F4880ED000A7D4890ED97
:10216000000A7D4890ED001AB1EE411AB4EEC10AA2
:10217000F1EE10FA06D290ED000AB1EE400A754871
:1021800080ED000A734890ED000A744880ED000A63
:102190001FEDBF0A80ED010A00207149086013E0BD
:1021A0006E4890ED010A6B486D49096800EB8100AB
:1021B00090ED001A30EE010A684880ED010A684887
:1021C0000068401C66490860654800680C28E7DB29
:1021D000604890ED000AB0EE081A20EE010A90ED7A
:1021E000011AF1EE001A01EEC10A90ED021A30EE6A
:1021F000010A5A4880ED020A5A4890ED000A5748F1
:1022000090ED001A5848D0ED001A01EE810A5348AB
:1022100090ED011A5548D0ED001A01EE810A4F48A1
:1022200090ED021A5248D0ED001A01EE810A4D4895
:1022300080ED010A90ED010A9FED381AB4EEC10A53
:10224000F1EE10FA03DB9FED350A80ED010A4548F7
:1022500090ED010A9FED321AB4EEC10AF1EE10FAC8
:1022600003D89FED2F0A80ED010A3E4890ED010A48
:10227000404880ED010A3B4890ED010A80ED000ADC
:102280000B203749086013E035480068401E31498B
:1022900001EB800090ED000A08463149096800EB27
:1022A000810080ED000A2E480068401E2C4908601D
:1022B0002B4800680028E7DC2A4890ED010A7047A7
:1022C000F0EE400A2C48C0ED000A90ED000A1048DC
:1022D00090ED001A30EE410A284880ED000A90ED9A
:1022E000000A274890ED001AB4EEC10AF1EE10FA88
:1022F0004ADD90ED000A214844E000003001002052
:1023000040010020000000453C0100204401002065
:1023100068000020E405002050010020555585404C
:10232000555585C06C000020300500206005002058
:1023300048010020040100200C00002010000020B3
:10234000140000205C010020C3F5C840C3F5C8C0DC
:102350006400002000050020580100206C050020CA
:1023600054010020FC000020180000201C00002068
:10237000200000208400002020010020D004002044
:102380006801002080ED000A554890ED000A55488C
:1023900090ED001AB1EE411AB4EEC10AF1EE10FA56
:1023A00006D290ED000AB1EE400A4D4880ED000AD9
:1023B0004B4890ED000A4C4880ED000A9FED4B0A17
:1023C00080ED010A00204A49086013E0464890ED7C
:1023D000010A43484649096800EB810090ED001A64
:1023E00030EE010A404880ED010A41480068401C77
:1023F0003F4908603E4800680C28E7DB384890ED0C
:10240000000AB0EE081A20EE010A90ED011AF1EE72
:10241000001A01EEC10A90ED021A30EE010A3248AC
:1024200080ED020A334890ED000A2F4890ED001A23
:102430003148D0ED001A01EE810A2B4890ED011AC7
:102440002E48D0ED001A01EE810A274890ED021ABD
:102450002B48D0ED001A01EE810A264880ED010AD2
:1024600090ED010A1FED481AB4EEC10AF1EE10FA20
:1024700003DB1FED4B0A80ED010A1E4890ED010AB7
:102480001FED4E1AB4EEC10AF1EE10FA03D81FED9B
:10249000510A80ED010A174890ED010A80ED000A0B
:1024A0000B201349086013E011480068401E0C49D6
:1024B00001EB800090ED000A08460D49096800EB29
:1024C000810080ED000A0A480068401E0849086043
:1024D000074800680028E7DC064890ED010A7047CD
:1024E000D0040020680100207805002000000000D2
:1024F0006001002018010020240000202800002096
:102500002C00002010B5AF4B02220121AE4803F091
:1025100074F9AE4B01220221AD4803F06EF9AD4BC8
:1025200002221146AC4803F068F9AC4B0222114676
:10253000AB4803F062F9AB4B01220221AA4803F039
:102540005CF9AA4B01220221A94803F056F9A94BD4
:1025500001220221A84803F050F9A84B022211469B
:10256000A74803F04AF9A74B02221146A64803F0F8
:1025700044F9A64B02221146A54803F03EF9A54BAB
:1025800001220221A44803F038F9A44B012211468C
:10259000A34803F032F9A34B02221146A24803F0EC
:1025A0002CF9A24B02221146A14803F026F9A14BB7
:1025B00002221146A04803F020F9A04B0122114647
:1025C0009F4803F01AF99F4B012211469E4803F0E1
:1025D00014F99E4B012211469D4803F00EF99D4BC4
:1025E000012211469C4803F008F99C4B0122114638
:1025F0009B4803F002F99B4B012211469A4803F0D5
:10260000FCF89A4B01220221994803F0F6F8994B05
:1026100001220221984803F0F0F8984B0122022190
:10262000974803F0EAF8974B01220221964803F0FD
:10263000E4F8964B01220221954803F0DEF8954B11
:1026400001220221944803F0D8F8944B0122022180
:10265000934803F0D2F8934B01220221924803F0F1
:10266000CCF8924B01220221914803F0C6F8914B1D
:1026700001220221904803F0C0F8904B0122022170
:102680008F4803F0BAF88F4B012202218E4803F0E5
:10269000B4F88E4B022211468D4803F0AEF88D4BF4
:1026A000022211468C4803F0A8F88C4B02221146F6
:1026B0008B4803F0A2F88B4B022211468A4803F0A4
:1026C0009CF88A4B02221146894803F096F8894B00
:1026D00002221146884803F090F810BD10B5424A16
:1026E0004549494803F08EF80446844890ED000AB5
:1026F0008348D0ED000A20EE200A824880ED000ACF
:10270000814890ED000A4648406880ED000A7F4805
:1027100090ED000A7E4880ED000AE01C08B900BF79
:10272000FEE7474A3049284803F06CF80446464A19
:1027300043493B4803F004F90446514A42493648AC
:1027400003F060F804462A4A4D49274802F0D1FFB9
:1027500004466F4890ED000A6E48D0ED000A6948C3
:1027600090ED001A00EEC10AD0ED000A9FED6A1A42
:1027700041EE000A6948C0ED000A1F4A1C492E4874
:1027800003F040F80446654890ED000A5C4880ED8F
:10279000000A1748406890ED000A614880ED000A81
:1027A0005E4890ED000A5F4880ED000A10484068DE
:1027B00090ED010ADFED5C0A20EE200A5B4880ED17
:1027C000000A10BD78010020C00200208001002016
:1027D000C8020020B801002088020020C8010020A3
:1027E000E0020020F001002090020020F80100200B
:1027F0009802002008020020A0020020D80100203A
:10280000A802002088010020B002002098010020CA
:10281000B802002000020020D00200207401002035
:10282000D80200206C010020E80200207001002086
:10283000F0020020A8010020F80200201002002071
:1028400000030020140200200803002018020020CA
:10285000100300201C02002018030020200200208A
:10286000200300202402002028030020280200204A
:1028700030030020300200203803002038020020FE
:1028800040030020400200204803002048020020AE
:10289000500300205002002058030020580200205E
:1028A000600300206002002068030020680200200E
:1028B00070030020700200207803002078020020BE
:1028C00080030020800200208803002044060020AE
:1028D0009003002054060020980300206406002086
:1028E000A003002074060020A80300208406002016
:1028F000B003002094060020B8030020C403002089
:10290000C8030020C003002034010020440100203F
:10291000CC030020D4030020E3EF063ED0030020C8
:10292000680000206C00002000007A446400002051
:1029300010B504466FF0040000F098F9E11704EBBD
:102940005171C1F3C701394A11701046007800EB8C
:102950004001C1EBC0104FF6FF7101EAC0003449DD
:10296000088010BD0146314A12784A434FF0E023F7
:102970005A6100229A611A46126942F001021A61F4
:1029800000BF4FF0E022106900F001021AB100F41C
:102990008032002AF5D04FF0E022126922F00102C5
:1029A0004FF0E0231A6100229A6170470146204AE5
:1029B00012884A434FF0E0235A6100229A611A4676
:1029C000126942F001021A6100BF4FF0E022106963
:1029D00000F001021AB100F48032002AF5D04FF065
:1029E000E022126922F001024FF0E0231A61002276
:1029F0009A61704770B504464FF4077094FBF0F08D
:102A0000C6B24FF4077094FBF0F100FB114085B2A1
:102A100005E04FF40770FFF7C9FF701EC6B2002E25
:102A2000F7D115B12846FFF7C1FF70BDD8030020CC
:102A3000DA03002000BF704700BF704700BF4E4A56
:102A4000128802F04002002AF9D0C2B24A4B9A80A2
:102A5000704710B588B004460121084600F048FCD4
:102A60000121102000F09EFC07220921434800F0BC
:102A70002CFA07220A21414800F027FA4FF4C060DF
:102A8000069002208DF81C008DF81D0000208DF8A6
:102A90001E0001208DF81F0006A9384800F08AF9B1
:102AA00002940020ADF80C00ADF80E00ADF8100057
:102AB000ADF814000C20ADF8120002A92E4800F069
:102AC000D2FD01212C4800F056FE40212A4800F09A
:102AD0003AFF012240F22551274800F002FF25204D
:102AE0008DF8040003208DF805008DF80600012004
:102AF0008DF8070001A800F06CF808B010BD10B503
:102B000040F225511C4800F027FF10B31A4800F08E
:102B100061FEC4B21A48008800F40040C8B91848E1
:102B2000008800F4804060B10A2C03D000201449D2
:102B3000088020E01248008840F4004010490880D6
:102B400019E00D2C06D10E48008840F480400C4955
:102B5000088010E00A480088C0F30D0009490C54B1
:102B600007480088401C0649088008460088C72896
:102B700001DD0020088010BD00100140000002406F
:102B8000E0030020A40600200948804709480047C8
:102B9000FEE7FEE7FEE7FEE7FEE7FEE7FEE7FEE70D
:102BA000FEE7FEE704480549054A064B704700006A
:102BB000510B000889010008D0070020D00D00202B
:102BC000D0090020D009002032490143324A116067
:102BD000704770B5002100230F22C4781CB32E4C1F
:102BE000246804F4E064C4F5E064C4F30721C1F18F
:102BF0000404E3B20A4144789C40E1B28478144072
:102C000021430C07210E254C05786155047804F00A
:102C10001F050124AC4005786D11AD0005F1E025DC
:102C2000C5F8004109E0047804F01F050124AC4018
:102C30001B4D0678761145F8264070BD194A0A40AA
:102C40000243154B1B1F1A60704739B1124A121DFF
:102C500012680243104B1B1D1A6006E00E4A121D3B
:102C6000126882430C4B1B1D1A607047042808D160
:102C70004FF0E021096941F004014FF0E0221161B9
:102C800007E04FF0E021096921F004014FF0E02254
:102C9000116170470000FA050CED00E000E400E06F
:102CA00080E100E080FFFF1F10B504469848844291
:102CB00008D10121084600F086FB0021012000F028
:102CC00082FB76E09348844208D10121022000F083
:102CD0007AFB0021022000F076FB6AE08E488442F5
:102CE00008D10121042000F06EFB0021042000F037
:102CF0006AFB5EE08948844208D10121082000F087
:102D000062FB0021082000F05EFB52E08448844210
:102D100008D10121102000F056FB0021102000F006
:102D200052FB46E07F48844208D10121202000F078
:102D30004AFB0021202000F046FB3AE07A4884421A
:102D400008D10121402000F03EFB0021402000F08E
:102D50003AFB2EE07548844208D10121802000F022
:102D600032FB0021802000F02EFB22E070488442DC
:102D700008D10121801500F026FB0021A01500F0EC
:102D800022FB16E06B48844208D10121401500F077
:102D90001AFB0021601500F016FB0AE06648844229
:102DA00007D10121001500F00EFB0021201500F0D5
:102DB0000AFB10BDF0B50A4600210023002400BF25
:102DC0003DE0012505FA01F3156805EA03049C427C
:102DD00034D105684F000326BE40B5430560157920
:102DE0004E00B5400668354305601579012D02D0C7
:102DF0001579022D16D185684F000326BE40B543D4
:102E0000856055794E00B5408668354385604568D4
:102E100001268E40B5434560456896798E40B6B22E
:102E200035434560C5684F000326BE40B543C560C5
:102E3000D5794E00B540C6683543C560491C102998
:102E4000BFD3F0BD4FF6FF710160002101714171E8
:102E50008171C171704708B54FF480320092009AB9
:102E60000A430092009AC261C161009AC261C269BC
:102E70000092C269009208BD0246002013690B400F
:102E80000BB1012000E0002070470146086980B2C4
:102E900070470246002053690B400BB1012000E04F
:102EA000002070470146486980B27047018370472F
:102EB000418370470AB1018300E04183704741615B
:102EC000704742694A4042617047F0B500230024D0
:102ED0004D07ED0E02FA05F3CE1000F1200555F86E
:102EE00026504E07F70E0F26BE40B543CF1000F117
:102EF000200646F82750CE1000F1200555F8265040
:102F000045EA0304CE1000F1200545F82640F0BD47
:102F1000000002400004024000080240000C024091
:102F2000001002400014024000180240001C024041
:102F3000002002400024024000280240F9480068B6
:102F400040F00100F74908600020F64908310860A8
:102F5000F4480068F4490840F2490860F348091D44
:102F60000860F348EF4984310860F0481038091DC3
:102F70000860EC48006820F48020EA4908600020DE
:102F8000E8490C310860E7498C310860704700213E
:102F9000E44A921C117011460870704710B5014642
:102FA0000022002300204A11012A02D1DD4C2368AF
:102FB00008E0022A03D1DB4C7034236802E0D94CCC
:102FC0007434236801F01F02012494401C400CB1AA
:102FD000012000E0002010BD38B500200090002442
:102FE000002500BF3120FFF7D9FF05460098401C9F
:102FF00000900098B0F5A04F01D0002DF2D0312004
:10300000FFF7CCFF08B1012400E00024204638BDC2
:1030100001460020C34A106820F0F80040EAC100D1
:1030200010607047C349086070470021BD4A703284
:1030300011701170012802D004280AD104E0012186
:10304000B84A7032117005E00521B64A703211702D
:1030500000E000BF00BF7047B7490860704770B517
:10306000049C41EA82150126C6EB530645EA064553
:10307000054345EA0465AB4E361D356070BDAD496C
:1030800008667047820142EA0172A64B84331A60D7
:103090007047A8498866704710B5830143EA016309
:1030A00043EA02739F4C8834236010BDA14908672E
:1030B0007047A049C864704702460020994B083306
:1030C000186820F0EC6042EA01031843954B08337E
:1030D0001860704702460020924B0833186820F0B1
:1030E000784042EA010318438E4B0833186070475A
:1030F000014600208B4A0832106820F00300084384
:103100001060704787480830006800F00C00704776
:1031100001460020834A0832106820F0F00008437E
:1031200010607047014600207E4A0832106820F483
:10313000E05008431060704701460020794A083289
:10314000106820F4604040EAC10010607047F0B59C
:10315000002100220024022500260223714F083797
:103160003F6807F00C0121B1042905D0082937D1A7
:1031700005E0724F076036E0714F076033E0694F3A
:103180003F1D3F68C7F38056664F3F1D3F6807F0FD
:103190003F036EB16A4FB7FBF3F7DFF888C10CF15C
:1031A000040CDCF800C0CCF3881C07FB0CF40CE02A
:1031B000624FB7FBF3F7DFF86CC10CF1040CDCF8DD
:1031C00000C0CCF3881C07FB0CF4564F3F1D3F6832
:1031D000C7F301477F1C7D00B4FBF5F7076002E0F1
:1031E000564F076000BF00BF4E4F08373F6807F0DB
:1031F000F0010909534F7A5C0768D7404760494F8F
:1032000008373F6807F4E051890A4E4F7A5C4768F7
:10321000D7408760434F08373F6807F46041490B48
:10322000484F7A5C4768D740C760F0BD002100F482
:103230004072B2F5407F0AD13A4A0832116821F44F
:10324000F811414A02401143364A08321160354AAA
:1032500070321268C0F30B031A43324B70331A609A
:103260007047354944390860704733494039086030
:10327000704736490860704701460020294A8C3261
:10328000106820F01F004A1E1043264A8C3210603E
:10329000704701460020234A8C32106820F4F85011
:1032A0004A1E40EA02201F4A8C32106070470146D5
:1032B00000201C4A8C32106820F440100843106033
:1032C000704701460020174A8C32106820F44000F5
:1032D00008431060704701460020124A8C32106883
:1032E00020F4403008431060704719490860704767
:1032F00039B10C4A3032126802430A4B30331A603B
:1033000006E0084A303212688243064B30331A60B6
:103310007047F9B1034A343212680243014B343327
:103320001A601CE000380240FFFFF6EA103000246B
:103330000030002000004742800E47420024F40085
:1033400000127A00E2030020FFFCFF0F5C014742FD
:10335000E01147428F4A126882438E4B1A607047D1
:1033600039B18C4A121D126802438A4B1B1D1A6028
:1033700006E0884A121D12688243864B1B1D1A60A4
:10338000704739B1834A0C3212680243814B0C33C7
:103390001A6006E07F4A0C32126882437D4B0C3380
:1033A0001A60704739B17B4A103212680243794B78
:1033B00010331A6006E0774A103212688243754B68
:1033C00010331A60704739B1724A243A12680243C6
:1033D000704B243B1A6006E06E4A243A126882431E
:1033E0006C4B243B1A60704739B16A4A203A126824
:1033F0000243684B203B1A6006E0664A203A126896
:103400008243644B203B1A60704739B1614A1C3AD1
:10341000126802435F4B1C3B1A6006E05D4A1C3A8F
:10342000126882435B4B1C3B1A60704739B1594AA2
:10343000143A12680243574B143B1A6006E0554A8F
:10344000143A12688243534B143B1A60704739B1E7
:10345000504A103A126802434E4B103B1A6006E085
:103460004C4A103A126882434A4B103B1A6070472C
:1034700039B1484A1C3212680243464B1C331A6069
:1034800006E0444A1C3212688243424B1C331A60E5
:10349000704739B13F4A2032126802433D4B203316
:1034A0001A6006E03B4A203212688243394B2033CF
:1034B0001A60704739B1374A243212680243354BDB
:1034C00024331A6006E0334A243212688243314BB7
:1034D00024331A60704739B12E4A2C3212680243E5
:1034E0002C4B2C331A6006E02A4A2C321268824395
:1034F000284B2C331A60704739B1264A3032126893
:103500000243244B30331A6006E0224A30321268FC
:103510008243204B30331A607047012808D11D497F
:103520003C31096841F008011A4A3C32116007E059
:1035300018493C31096821F00801164A3C321160F3
:10354000704739B1134A273A12780243114B273B8F
:103550001A7006E00F4A273A127882430D4B273B38
:103560001A7070470B484030006840F0807009497D
:1035700040310860704701460020064A283A126828
:103580000A400AB1012000E00020704701492639B5
:10359000087070473438024010B50446FA48844237
:1035A00008D101211020FFF752FF00211020FFF762
:1035B0004EFF57E0F548844209D101214804FFF746
:1035C00035FF00214FF40030FFF730FF4AE0F048AC
:1035D000844209D101218804FFF728FF00214FF41C
:1035E0008020FFF723FF3DE0EA48844209D1012112
:1035F000C804FFF71BFF00214FF40020FFF716FF60
:1036000030E0E548844209D101210805FFF70EFFAB
:1036100000214FF48010FFF709FF23E0DF488442C8
:1036200008D101212020FFF712FF00212020FFF701
:103630000EFF17E0DA48844209D101218807FFF71D
:10364000F5FE00214FF08040FFF7F0FE0AE0D5487C
:10365000844207D101214005FFF7E8FE0021600503
:10366000FFF7E4FE10BD2DE9FF4705460E46002496
:10367000A14600BFA046B08900B100BF2C8A24F447
:103680004054F08804432C82AC8941F20C6084439E
:10369000B08831890843718908430443AC81AC8AFE
:1036A00024F44074B0890443AC826846FFF74FFDB0
:1036B000B548854202D0B948854202D1DDF80C9068
:1036C00001E0DDF80890A88900F4004040B109EB62
:1036D000C90000EB091031684900B0FBF1F707E0C1
:1036E00009EBC90000EB091031688900B0FBF1F764
:1036F0006420B7FBF0F004012009642101FB10787D
:10370000A88900F4004040B1322000EBC800B0FBB3
:10371000F1F000F00700044308E0322000EB08104D
:103720006421B0FBF1F000F00F0004432C81BDE8F0
:10373000FF874FF41651016000218180C180018113
:103740000C21418100218181704710B50246002083
:10375000108A20F470600B884C8823438C882343A4
:10376000CC8823431843108210BD00210180418082
:103770008180C180704721B1828942F400528281E8
:1037800004E082894DF6FF731A4082817047028BF4
:1037900002F47F420283028B0A430283704721B105
:1037A000828942F40042828103E08289C2F30E02E0
:1037B0008281704721B1828A42F40062828204E0F1
:1037C000828A4FF2FF731A4082827047C1F3080267
:1037D0008280704701468888C0F308007047028ADB
:1037E0004FF6F0731A400282028A0A43028270473F
:1037F00021B1828942F00202828104E082894FF67F
:10380000FD731A408281704782894FF2FF731A401C
:10381000828182890A4382817047028A4FF6DF7370
:103820001A400282028A0A430282704721B1028A48
:1038300042F48042028204E0028A4BF6FF731A408F
:1038400002827047818941F001018181704721B175
:10385000828A42F00802828204E0828A4FF6F7737D
:103860001A4082827047028BD2B20283028B42EAF4
:1038700001220283704721B1828A42F020028282B3
:1038800004E0828A4FF6DF731A408282704721B1CA
:10389000828A42F01002828204E0828A4FF6EF733D
:1038A0001A4082827047828A4FF6FB731A408282E6
:1038B000828A0A438282704721B1828A42F00202E0
:1038C000828204E0828A4FF6FD731A40828270473A
:1038D0001AB1838A0B43838202E0838A8B438382FB
:1038E0007047F0B50346002400260025002040F66E
:1038F0006A17B94200D100BF1846C1F3421401F063
:103900001F06012707FA06F5012C01D10C3004E04F
:10391000022C01D1103000E014301AB107682F4397
:10392000076002E00768AF430760F0BD0246002071
:10393000B1F5007F00D100BF13880B400BB101200F
:1039400000E00020704701F40072B2F5007F00D162
:1039500000BFCA430280704770B5024600240023AE
:103960000025002040F66A16B14200D100BFC1F325
:10397000421501F01F03012606FA03F3012D13D1AE
:103980009689334017E000000010014000440040D9
:1039900000480040004C004000500040001401402E
:1039A00000780040007C0040022D02D1168A33408E
:1039B00001E0968A33400C12012606FA04F41688B8
:1039C000344013B10CB1012000E0002070BD10B5EF
:1039D0000022002340F66A14A14200D100BF0A125F
:1039E00001249440A3B2DC43048010BD10B504460A
:1039F000FE48844209D101214806FFF717FD002146
:103A00004FF00070FFF712FD08E001218806FFF774
:103A10000DFD00214FF08060FFF708FD10BD30B5AF
:103A2000024600200023146824F002041460146885
:103A300044F00104146000E05B1C546804F00104CD
:103A40001CB94FF6FF74A342F6D1546804F0010488
:103A50000CB900206CE08C79012C04D1146844F07E
:103A60008004146003E0146824F080041460CC79AE
:103A7000012C04D1146844F04004146003E014687D
:103A800024F0400414600C7A012C04D1146844F032
:103A90002004146003E0146824F0200414604C7ABD
:103AA000012C04D1146844F01004146003E014687D
:103AB00024F0100414608C7A012C04D1146844F0B2
:103AC0000804146003E0146824F008041460CC7A3D
:103AD000012C04D1146844F00404146003E0146859
:103AE00024F0040414608C78A407CD7844EA0564BB
:103AF0000D7944EA05444D7944EA05540D886D1E5C
:103B00002C43D461146824F001041460002300E005
:103B10005B1C546804F001041CB14FF6FF74A3420F
:103B2000F6D1546804F001040CB1002000E001203B
:103B300030BD10B50021837A012202FA03F1AC4AAC
:103B4000126842F00102AA4B1A60A94A1C3212689C
:103B50008A43A74B1C331A60027BCAB9A44A0C32B1
:103B600012688A43A24B0C331A604288C38842EA27
:103B700003439F4A4032847A42F834300288838873
:103B800042EA03439A4A4032847A02EBC402536009
:103B9000027B012A19D1964A0C3212680A43944BCF
:103BA0000C331A604288038842EA0343904A403249
:103BB000847A42F83430C288838842EA03438C4ACC
:103BC0004032847A02EBC4025360C27A3AB9884A1E
:103BD000121D12688A43864B1B1D1A6006E0844A38
:103BE000121D12680A43824B1B1D1A60028932B9EA
:103BF0007F4A143212688A437D4B14331A6002895B
:103C0000012A06D17A4A143212680A43784B1433D7
:103C10001A60427B012A06D1754A1C3212680A4397
:103C2000734B1C331A60724A126822F00102704B07
:103C30001A6010BD00218171C171017241728172DF
:103C4000C1728170C1700321017102214171012192
:103C5000018070476649096841F00101644A1160BA
:103C60001146096843F60E729143614A116011468C
:103C7000096841EA002111601146096821F001013B
:103C80001160704721B1026842F48032026003E0A3
:103C9000026822F4803202607047E1B1026842F0AB
:103CA000800202604FF4C272125842F480734FF4E3
:103CB000C27213504FF4CA72125842F480734FF418
:103CC000CA7213504FF4D272125842F480734FF4F8
:103CD000D27213501BE0026822F0800202604FF49F
:103CE000C272125822F480734FF4C27213504FF410
:103CF000CA72125822F480734FF4CA7213504FF4F0
:103D0000D272125822F480734FF4D272135070475B
:103D100010B502460020936803F08063B3F1806F12
:103D200000D110E0936803F00063B3F1006F01D19C
:103D3000012008E0936803F08053B3F1805F01D164
:103D4000022000E00420042879D002F5C07303EBC0
:103D500000131B6803F0010402F5C07303EB0013AA
:103D60001C600B7A7BB94B7A0C8843EA445302F50A
:103D7000C07404EB00142468234302F5C07404EB00
:103D80000014236010E00B7A4C6843EAC4034C7AB9
:103D9000234302F5C07404EB00142468234302F5A6
:103DA000C07404EB001423608B7A03F00F038B7252
:103DB00002F5C07303EB00135B6823F00F0402F5F8
:103DC000C07303EB00135C6002F5C07303EB0013D8
:103DD0005B688C7A234302F5C07404EB00146360C3
:103DE0008B7B1C064B7B44EA034403E000640040E9
:103DF000006600400B7B44EA0323CC7A234302F5A0
:103E0000C07404EB0014A3608B7C1C064B7C44EA5A
:103E100003440B7C44EA0323CC7B234302F5C074A8
:103E200004EB0014E36002F5C07303EB00131B689E
:103E300043F0010402F5C07303EB00131C6010BDD6
:103E400010B50246002321B1012907D002290FD164
:103E500009E09068F94C00EA04030BE09068F84C24
:103E600000EA040306E09068F64C00EA040301E06F
:103E7000002300BF00BFF44C181BA34216D007DC80
:103E800083B16FF08060184470B1022818D111E03E
:103E9000B0F5007F10D0ED4C204448B1B0F5003FA4
:103EA0000ED10BE002230DE000230BE0002309E01C
:103EB000002307E0012305E0012303E0012301E0E3
:103EC000002300BF00BFD8B210BD21B1012907D027
:103ED00002290FD109E0826842F0800282600AE084
:103EE000826842F40042826005E0826842F4000287
:103EF000826000E000BF00BF704710B500F5D873C6
:103F000003EB01131B6803F004031372137A53B914
:103F100000F5D87303EB01131B6840F2FF7404EA49
:103F20005353136009E000F5D87303EB01131B68CA
:103F30006FF0604404EAD303536000F5D87303EBD9
:103F400001131B6803F00203537200F5D87303EBEF
:103F500001135B6803F00F03937200F5D87303EB52
:103F600001135B681B0AD37400F5D87303EB0113CC
:103F70009B68D37200F5D87303EB01139B681C0A8E
:103F8000147300F5D87303EB01139B681C0C547376
:103F900000F5D87303EB01139B681B0E937300F5B8
:103FA000D87303EB0113DB68D37300F5D87303EB0D
:103FB0000113DB681C0A147400F5D87303EB0113BA
:103FC000DB681C0C547400F5D87303EB0113DB6839
:103FD0001B0E937421B9C36843F02003C36003E050
:103FE000036943F02003036110BD21B9C26842F0A8
:103FF0002002C26003E0026942F0200202617047C1
:104000000246002019B9D36803F0030006E0012935
:1040100003D1136903F0030000E00020704710B5DE
:1040200002460B4600204FF6FF71BBB9146824F01E
:10403000020444F00104146000E0491E546804F0D6
:104040000304012C01D00029F7D1546804F00304C3
:10405000012C01D0002032E0012030E0012B13D1EF
:10406000146824F00304146000E0491E546804F04E
:1040700003040CB10029F8D1546804F003040CB116
:1040800000201CE001201AE0022B17D1146824F054
:10409000010444F00204146000E0491E546804F076
:1040A0000304022C01D00029F7D1546804F0030462
:1040B000022C01D0002002E0012000E0002010BD11
:1040C000014600200A6822F0010242F002020A6062
:1040D0004A6802F00302022A00D10120704701461B
:1040E0004FF6FF7200200B6823F002030B6000E024
:1040F000521E4B6803F00203022B01D1002AF7D1B4
:104100004B6803F00203022B00D0012070470146E8
:1041100000208A6902F070007047014600208A6919
:10412000100E7047014600208A69C2F307407047AD
:104130001AB143690B43436102E043698B43436116
:10414000704710B50246002001F4700343B1936933
:10415000C1F3130423400BB101202DE000202BE01C
:1041600001F0807343B15368C1F3130423400BB1D2
:10417000012021E000201FE001F0006343B19368BB
:10418000C1F3130423400BB1012015E0002013E01C
:1041900001F0007343B1D368C1F3130423400BB1A2
:1041A000012009E0002007E01369C1F31304234054
:1041B0000BB1012000E0002010BD0022244B9942E9
:1041C00002D10023836111E0C1F3130201F00073F7
:1041D0000BB1C2600AE001F080630BB1026105E03F
:1041E00001F000630BB1826000E04260704702465C
:1041F000002002EA01030BB1012000E0002070471B
:1042000070B504460D46002660692840002872D02B
:10421000B5F5807F69D01DDC082D42D006DC012D6C
:104220002DD0022D31D0042D7FD134E0102D3ED081
:10423000202D42D0402D78D145E00000030000043D
:104240000003000800000310000100080001FFF750
:104250007000F030B5F5004F61D009DCB5F5007F96
:104260004AD0B5F5806F4DD0B5F5006F5DD150E007
:10427000B5F5803F2DD0B5F5003F56D12FE0A068B1
:104280005549FFF7B4FF064651E0E0680321FFF708
:10429000AEFF06464BE0E0680821FFF7A8FF0646A0
:1042A00045E0E0681021FFF7A2FF06463FE02069E5
:1042B0000321FFF79CFF064639E020690821FFF73C
:1042C00096FF064633E020691021FFF790FF06466F
:1042D0002DE060680821FFF78AFF064627E0606846
:1042E0001021FFF784FF064621E0A0690121FFF7B6
:1042F0007EFF06461BE01BE0A0690221FFF777FF67
:10430000064614E0A0690421FFF771FF06460EE09F
:104310000BE0A0697021FFF76AFF064607E06068BE
:104320000421FFF764FF064601E0002600BF00E01D
:104330000026304670BDB1F5007F3AD00FDC202951
:1043400028D006DC01291CD004291DD0082940D121
:104350001DE0402921D0B1F5807F3AD126E0B1F5AA
:10436000004F31D006DCB1F5806F25D0B1F5006F7C
:104370002FD124E0B1F5803F12D0B1F5003F28D114
:1043800011E0154A826025E00822C26022E0102276
:10439000C2601FE0082202611CE01022026119E0E5
:1043A0000822426016E01022426013E004224260BC
:1043B00010E0042242600DE0042242600AE0002284
:1043C00082610422426005E0002282610422426090
:1043D00000E000BF00BF70470101010010B50121DE
:1043E0000802FFF734F800214FF48070FFF72FF830
:1043F00010BD30B50246002000235068F84C204024
:104400000D790C6844EA0524204350609068F54C0F
:104410002040D1E903542C438D682C434D7944EA64
:10442000450420439060D06A20F470000C7D641E27
:10443000E4B2234340EA0350D06230BD0021016062
:10444000017141718160C160016101210175704795
:104450000021E54A1168E54A1140D0E900231A43DA
:1044600083681A43C3681A431143E14AC2F804132C
:1044700070470021016041608160C160704721B1D7
:10448000826842F00102826003E0826822F0010249
:10449000826070470A4600214168D64B194011439B
:1044A000416070474162826270470A46002141685C
:1044B00021F01F0111434160704738B1CA490968B2
:1044C00041F40001CA4AC2F8041306E0C64909686B
:1044D00021F40001C64AC2F80413704738B1C2493A
:1044E000096841F48001C24AC2F8041306E0BE49DB
:1044F000096821F48001BE4AC2F804137047F0B580
:1045000004460D4600200021092D11DDE068A5F1CB
:104510000A0606EB4607072606FA07F18843A5F1C7
:104520000A0606EB460603FA06F10843E0600CE0D3
:10453000206905EB4507072606FA07F1884305EBD6
:10454000450603FA06F108432061072A0FDA606B7B
:10455000561E06EB86071F2606FA07F18843561EED
:1045600006EB860605FA06F10843606322E00D2A91
:104570000FDA206BD61F06EB86071F2606FA07F117
:104580008843D61F06EB860605FA06F1084320632A
:1045900010E0E06AA2F10D0606EB86071F2606FA78
:1045A00007F18843A2F10D0606EB860605FA06F12F
:1045B0000843E062F0BD816841F08041816070474E
:1045C000014600208A6802F080420AB1012000E022
:1045D0000020704721B1826842F48062826003E06B
:1045E000826822F480628260704721B1826842F062
:1045F0000202826003E0826822F002028260704759
:1046000010B50A4600210023416821F46041531E81
:1046100041EA4331416010BD21B1426842F4006279
:10462000426003E0426822F4006242607047014643
:10463000C86C80B270476C48001D0068704721B19B
:10464000826842F48072826003E0826822F48072A1
:104650008260704721B1826842F40072826003E098
:10466000826822F400728260704738B15E4909683E
:1046700041F400515E4AC2F8041306E05A49096841
:1046800021F400515A4AC2F804137047F0B50446A9
:104690001546002000220026092911DDE068A1F15D
:1046A0000A0707EB470C072707FA0CF29043A1F122
:1046B0000A0707EB470703FA07F21043E0600CE034
:1046C000206901EB410C072707FA0CF2904301EB3C
:1046D000410703FA07F210432061A06BC0F30156B3
:1046E000EF1C06F1010CA7EB0C0707EB870C1F274B
:1046F00007FA0CF29043EF1C06F1010CA7EB0C0734
:1047000007EB870701FA07F21043A063F0BD10B56D
:104710000A4600210023816B21F44011531E41EA17
:104720000351816310BD08B5002300930090009BE6
:104730000B440093009B1A6008BD0A460021816863
:1047400021F470211143816070470A46002181687D
:1047500021F44011114381607047816841F4800168
:1047600081607047014600208A6802F480020AB125
:10477000012000E00020704721B1426842F48062CD
:10478000426003E0426822F480624260704721B1D7
:10479000426842F48052426003E0426822F4805250
:1047A0004260704708B5024600200090009201F177
:1047B0002800009B184400900098006880B208BD53
:1047C00010B50B460021D9B2012404FA01F11AB147
:1047D00044680C43446002E044688C43446010BD6C
:1047E000FFFEFFFCFDF7FFC004230140E030FCFFAB
:1047F00000200140FFFD3FFF0246002013680B40F0
:104800000BB1012000E000207047CA4302607047EE
:1048100070B502460020002300240B1255680126C3
:104820008E4005EA060415681D4015B10CB1012043
:1048300000E0002070BD00220A12D34303607047DD
:1048400010B501214807FEF7F1FD00214FF000509F
:10485000FEF7ECFD10BD30B5002200237B4C226832
:1048600040F6FE748440A243D1E900452C438D6894
:104870002C43CD6844EA050303FA00F42243734C49
:10488000226030BD0021016041608160C1607047DD
:1048900039B16E4A1268012383401A436B4B1A6088
:1048A00006E06A4A1268012383409A43674B1A6004
:1048B000704710B551B1654A121D126804090123F1
:1048C000A3401A43614B1B1D1A6009E05F4A121D89
:1048D000126804090123A3409A435C4B1B1D1A6014
:1048E00010BD40B15949091D096841F00301574AFB
:1048F000121D116007E05549091D096821F00301E7
:10490000524A121D1160704710B53AB14F4B1B68E7
:1049100001FA00F423434D4C236006E04B4B1B6827
:1049200001FA00F4A343494C236010BD08B50022EE
:104930000092464A009200F10802009B1A4400923D
:10494000009A116008BD08B5002200923F4A00920B
:1049500000F11402009B1A440092009A116008BDF5
:1049600030B500240023082802D142EA012401E0E6
:1049700042EA0144354B00F120052B441C6030BD58
:1049800008B5014600200090304800902C2000EB34
:104990009100009A104400900098006880B208BD11
:1049A00041B12A4A12684FF4805383401A43274B7F
:1049B0001A6007E0254A12684FF4805383409A43F7
:1049C000224B1A60704710B53AB1204B1B6801FAB0
:1049D00000F423431D4C236006E01C4B1B6801FAC6
:1049E00000F4A343194C236010BD10B5024600200B
:1049F000164B34331B6801FA02F423400BB101203B
:104A000000E0002010BD01FA00F2104B34331A60B0
:104A1000704730B50246002000230C4C246801FA90
:104A200002F504EA0503094C3434246801FA02F55E
:104A30002C4014B10BB1012000E0002030BD01FA80
:104A400000F2024B34331A607047000000740040DB
:104A500010B50446FE48844208D101210846FEF7FD
:104A6000F6FC00210120FEF7F2FC9DE0B4F1804F3E
:104A700008D101210846FEF7D9FC00210120FEF7EC
:104A8000D5FC91E0F348844208D101210220FEF7D1
:104A9000CDFC00210220FEF7C9FC85E0EE488442EF
:104AA00008D101210420FEF7C1FC00210420FEF7FB
:104AB000BDFC79E0E948844208D101210820FEF7D5
:104AC000B5FC00210820FEF7B1FC6DE0E44884420B
:104AD00008D101211020FEF7A9FC00211020FEF7CB
:104AE000A5FC61E0DF48844208D101212020FEF7C7
:104AF0009DFC00212020FEF799FC55E0DA48844215
:104B000008D101210220FEF7A2FC00210220FEF7BD
:104B10009EFC49E0D548844209D101210804FEF7F2
:104B200096FC00214FF48030FEF791FC3CE0D04829
:104B3000844209D101214804FEF789FC00214FF489
:104B40000030FEF784FC2FE0CA48844209D10121DD
:104B50008804FEF77CFC00214FF48020FEF777FCF0
:104B600022E0C548844208D101214020FEF75EFCC6
:104B700000214020FEF75AFC16E0C048844208D1CC
:104B800001218020FEF752FC00218020FEF74EFC20
:104B90000AE0BB48844207D101218015FEF746FC9C
:104BA0000021A015FEF742FC10BD00220288A84B90
:104BB00098420ED0AC4B98420BD0B0F1804F08D049
:104BC000A44B984205D0A44B984202D0A34B9842E4
:104BD00004D14FF68F731A404B881A43A04B98426A
:104BE00007D0A04B984204D04FF6FF431A400B89E0
:104BF0001A4302804B68C3620B880385944B98422A
:104C000002D0994B984201D18B7A0386012383828B
:104C100070474FF0FF3141600021018001814180E8
:104C2000817270470185828270470A46002101889F
:104C30004FF68F73194011430180704741627047EE
:104C4000C16270470146486A70470146088D704747
:104C500021B1028842F00202028004E002884FF68D
:104C6000FD731A400280704721B1028842F00402AD
:104C7000028004E002884FF6FB731A4002807047FE
:104C800021B1028842F08002028004E002884FF6DF
:104C90007F731A400280704702884FF6F7731A40FC
:104CA000028002880A430280704702884FF6FF4361
:104CB0001A40028002880A430280704721B10288AC
:104CC00042F00102028004E002884FF6FE731A40AF
:104CD0000280704770B5002400220023058C4FF637
:104CE000FE7635400584028C8388048B4FF68F75E1
:104CF0002C40B51E2C400D882C43751E2A408D89F2
:104D00002A434D882A43524DA84202D0564DA8420C
:104D100013D14FF6F7752A40CD892A434FF6FB751C
:104D20002A408D882A434FF6FF652B404FF6FF55EA
:104D30002B400D8A2B434D8A2B43838004838D683F
:104D40004563028470BD70B5002400220023058CE9
:104D50004FF6EF7635400584028C8388048B48F645
:104D6000FF752C404FF6FF452C400D884FF6FF761F
:104D700006EA05252C434FF6DF752A408D8906EAA1
:104D800005152A434D8806EA05152A43304DA842E9
:104D900002D0354DA8421DD14FF67F752A40CD89EE
:104DA0004FF6FF7606EA05152A434FF6BF752A40EF
:104DB0008D8806EA05152A434FF6FF352B404FF242
:104DC000FF752B400D8A06EA85052B434D8A06EABE
:104DD00085052B43838004838D688563028470BDC1
:104DE00070B5002400220023058C4FF6FF66354085
:104DF0000584028C8388848B4FF68F752C404FF688
:104E0000FC752C400D882C434FF6FF552A408D89A8
:104E10004FF6FF7606EA05252A434D8806EA052562
:104E20002A430B4DA84202D00F4DA84238D14FF271
:104E3000FF752A40CD894FF6FF7606EA05252A43FD
:104E40004FF6FF352A408D8806EA05252A4319E0EA
:104E5000000001400004004000080040000C004039
:104E600000100040001400400004014000400140D8
:104E7000004401400048014000180040001C004070
:104E8000002000404EF6FF752B404DF6FF752B407D
:104E90000D8A06EA05152B434D8A06EA05152B43B4
:104EA000838084838D68C563028470BD70B50022E1
:104EB00000230024058C4EF6FF7635400584038CD4
:104EC0008488828B48F6FF752A404FF6FF452A40BA
:104ED0000D884FF6FF7606EA05252A434DF6FF7545
:104EE0002B408D8906EA05352B434D8806EA0535AA
:104EF0002B43FE4DA84202D0FD4DA84208D14BF6EF
:104F0000FF752C400D8A4FF6FF7606EA85152C4377
:104F1000848082838D680564038470BD00210180D4
:104F20004180818081608181C1810182418270479D
:104F300070B50346002000241846183001258D4026
:104F4000ACB21D8CA5431D8409B108290AD100EB20
:104F5000610005684FF68F7635400560056815439A
:104F600005600FE00D1FC5F34E052844056848F69F
:104F7000FF763540056005684FF6FF7606EA0226A3
:104F80003543056070BD4163704781637047C163FD
:104F90007047016470470A460021018B4FF68F73FA
:104FA00019401143018370470A460021018B48F6DE
:104FB000FF7319404FF6FF7303EA0223194301837D
:104FC00070470A460021818B4FF68F7319401143B9
:104FD000818370470A460021818B48F6FF73194090
:104FE0004FF6FF7303EA02231943818370470A4691
:104FF0000021018B4FF6F77319401143018370476D
:105000000A460021018B4FF2FF7319404FF6FF73E0
:1050100003EA02231943018370470A460021818B6A
:105020004FF6F77319401143818370470A460021F8
:10503000818B4FF2FF7319404FF6FF7303EA02238F
:105040001943818370470A460021018B4FF6FB7399
:1050500019401143018370470A460021018B4FF626
:10506000FF3319404FF6FF7303EA0223194301830C
:1050700070470A460021818B4FF6FB73194011439C
:10508000818370470A460021818B4FF6FF33194018
:105090004FF6FF7303EA02231943818370470A46E0
:1050A0000021018B4FF67F73194011430183704734
:1050B0000A460021018BC1F30E014FF6FF7303EA8C
:1050C00002231943018370470A460021818B4FF662
:1050D0007F7319401143818370470A460021818BF9
:1050E000C1F30E014FF6FF7303EA022319438183D4
:1050F00070470A460021018C4FF6FD731940114399
:10510000018470470A460021018C4FF6F77319405D
:105110001143018470470A460021018C4FF6DF736A
:1051200019404FF6FF7303EA0213194301847047D5
:105130000A460021018C4FF67F7319404FF6FF732A
:1051400003EA02131943018470470A460021018CC7
:105150004FF6FF5319404FF6FF7303EA022319433A
:10516000018470470A460021018C4FF2FF731940F9
:105170004FF6FF7303EA02231943018470470A467E
:105180000021018C4DF6FF7319404FF6FF7303EABF
:10519000023319430184704730B5002301248C4049
:1051A000A3B2048C9C430484048C02FA01F5ADB2D2
:1051B0002C43048430BD30B5002304248C40A3B2BA
:1051C000048C9C430484048C02FA01F5ADB22C4398
:1051D000048430BD828B4FF2FF331A408283828B6E
:1051E0004FF6FF7303EA01231A4382837047F0B539
:1051F0000C461546002100220026078C4EF6FF7C47
:1052000007EA0C070784818B028C4FF6FF7707EAC9
:10521000043640F6FF4739404FF6FF7707EA052787
:1052200039434FF6FF7707EA0337394345F6FF77EF
:105230003A4046F480573A4381830284F0BD828B22
:105240004FF6F3731A408283828B0A43828370473E
:10525000F0B50C461546002100220026078C4FF6BB
:10526000FF6C07EA0C070784818B028C4FF6FF77EF
:1052700007EA04264FF60C7739404FF6FF7707EA26
:1052800003172F4339434FF2FF573A4046F48077D4
:105290003A4381830284F0BD028B4FF2FF331A4000
:1052A0000283028B4FF6FF7303EA01231A43028342
:1052B0007047F0B50C461546002100220026078CE9
:1052C0004FF6EF7C07EA0C070784018B028C4FF640
:1052D000FF7707EA041640F6FF4739404FF6FF779D
:1052E00007EA033739434FF6FF7703E00000014038
:1052F0000004014007EA052739434FF65F773A403B
:1053000046F010073A4301830284F0BD028B4FF64A
:10531000F3731A400283028B0A4302837047F0B58D
:105320000C46154600210022068C4FF6FE773E40C3
:105330000684018B028C4FF60C7631407E1C06EA07
:1053400003162E4331434FF6F576324044F0010602
:10535000324301830284F0BD70B505460C462088B7
:1053600050B92389A28861882846FFF7D8FFE188D1
:105370002846FFF7CBFF25E0208804280AD123899F
:10538000A28861882846FFF794FFE1882846FFF746
:1053900083FF17E0208808280AD12389A288618822
:1053A0002846FFF755FFE1882846FFF748FF09E048
:1053B0002389A28861882846FFF719FFE1882846DB
:1053C000FFF708FF70BD002101804180012181802D
:1053D0000021C180018170472DE9F04105460C464E
:1053E00000260127608808B9022600E00026A08870
:1053F000012801D1022700E001272088A0B92389D4
:10540000A28861882846FFF78AFFE1882846FFF7CF
:105410007DFF23893A4631462846FFF74AFFE18857
:105420002846FFF739FF13E02389A28861882846C0
:10543000FFF73FFFE1882846FFF72EFF23893A4612
:1054400031462846FFF76BFFE1882846FFF75EFFED
:10545000BDE8F0810146486B70470146886B704794
:105460000146C86B70470146086C70470A884B8834
:105470001A438B881A43CB881A430B891A434B89EA
:105480001A438B891A43A0F84420704700210180F9
:1054900041808180C180018141818181704731B12A
:1054A000B0F8442042F40042A0F8442005E0B0F8EF
:1054B0004420C2F30E02A0F84420704721B1828834
:1054C00042F00402828004E082884FF6FB731A40A7
:1054D0008280704721B1828842F00102828004E01C
:1054E00082884FF6FE731A40828070471AB1838912
:1054F0000B43838102E083898B43838170478182E0
:10550000704702460020138A0B400BB1012000E0D7
:1055100000207047CA430282704730B5024600201F
:1055200000230024158A05EA0103958905EA010490
:1055300013B10CB1012000E0002030BDCA4302824B
:10554000704741EA0203A0F8483070471AB18389D6
:105550000B43838102E083898B438381704721B1B0
:10556000828842F00802828004E082884FF6F77356
:105570001A408280704701894FF6F872114001810C
:1055800070470A46002101894FF68F731940114375
:105590000181704730B504460D4629462046FFF785
:1055A000F0FF208940F00700208130BD2DE9F04157
:1055B00004460D4616461F46602D06D13B46012285
:1055C00031462046FFF775FE05E03B460122314695
:1055D0002046FFF7A4FE29462046FFF7D2FF208988
:1055E00040F007002081BDE8F08130B50C46002175
:1055F0000189C9B24FF6FF7505EA03251543254316
:105600002943018130BD2DE9F04105460E4617467C
:105610009846002443463A4631462846FFF7E5FFC0
:105620002C894FF6F870044044F007044FF68F7051
:10563000044044F070042C81BDE8F081F0B50446CC
:105640000D4616461F463B46324629462046FFF782
:10565000CCFF208940F480402081F0BD82884FF645
:105660008F731A40828082880A4382807047028941
:105670004FF6F8731A40028102890A43028170478B
:1056800002894FF67F731A40028102890A43028120
:105690007047F0B50C4615461E4600210022002337
:1056A0000189028B038C4FF6F877394021434FF67E
:1056B000FC473A4040F201173A434FF6DD773B4052
:1056C0004FF6FF7707EA06172F433B43018102831A
:1056D0000384F0BD21B1828842F08002828004E020
:1056E00082884FF67F731A4082807047A0F850106E
:1056F000704770B405880E884468D1F804C05368B8
:10570000B54208D140884988884201BF11888D423E
:105710005188884203D070BC6FF00200704705FBCF
:1057200000F1880827D094ED001ADCED000A94ED12
:10573000010ADCED011A31EE201AD4ED020A70EEF6
:10574000211A9CED020A83ED001AC3ED011A94EDB3
:10575000031ADCED031A30EE800A401E71EE210AB6
:1057600083ED020A04F11004C3ED030A03F11003F0
:105770000CF1100CD7D111F0030030D0B0F1004F74
:1057800030D200282BDD211F1B1FACF1040210F0CA
:10579000010F0AD091ED010AD2ED010A091D121D77
:1057A00030EE200A83ED010A1B1D400817D091ED51
:1057B000010AD2ED010A401E30EE200A83ED010AF3
:1057C00091ED020AD2ED020A01F1080102F108028C
:1057D00030EE200A83ED020A03F10803E7D170BC22
:1057E00000207047B4EC010A401EFCEC010A30EEC8
:1057F000200AA3EC010AF5D1F1E701804280436061
:10580000704700002DE9F04F82B04668536801935D
:10581000058847884B88002000900888874201BF90
:10582000B2F800C06545528893421EBF6FF0020077
:1058300002B0BDE8F08F9FED412A4FEA970EC7F303
:10584000400B00BFDDE9000202EB800A4A6898467F
:105850004FF00009B0EE420AB4465FEA0E0025D0D0
:1058600092ED001ADCED001A02EB8302DCED010A76
:1058700001EE810A92ED001A02EB8302401ED2ED86
:10588000001A02EB830200EE810A9CED021ADCEDA5
:10589000030A00040CF1100C000C01EE210A92ED39
:1058A000001A02EB830200EE810AD9D117F003003F
:1058B00026D0ACF10404A2EB830210F0010F08D053
:1058C00002EB8302D4ED010A92ED001A241D00EED2
:1058D000810A5FEA0B0013D002EB830CD4ED010ABE
:1058E0009CED001A02EBC302401E00EE810AD4EDCB
:1058F000020A92ED001A04F1080400EE810AEBD1CD
:1059000009F10100AAEC010A1FFA80F9486800EBCE
:105910008902A8F101001FFA80F8B8F1000F99D1AF
:10592000009806EB8706184480B20090681E0504B4
:105930002D0C87D102B00020BDE8F08F00000000E0
:1059400070B405880E884468D1F804C05368B54225
:1059500008D140884988884201BF11888D4251880A
:10596000884203D070BC6FF00200704705FB00F165
:10597000880827D094ED001ADCED000A94ED010AA6
:10598000DCED011A31EE601AD4ED020A70EE611AF4
:105990009CED020A83ED001AC3ED011A94ED031A7F
:1059A000DCED031A30EEC00A401E71EE610A83ED91
:1059B000020A04F11004C3ED030A03F110030CF111
:1059C000100CD7D111F0030030D0B0F1004F30D21D
:1059D00000282BDD211F1B1FACF1040210F0010F6A
:1059E0000AD091ED010AD2ED010A091D121D30EE17
:1059F000600A83ED010A1B1D400817D091ED010AD2
:105A0000D2ED010A401E30EE600A83ED010A91EDED
:105A1000020AD2ED020A01F1080102F1080230EE99
:105A2000600A83ED020A03F10803E7D170BC00208D
:105A30007047B4EC010A401EFCEC010A30EE600A2B
:105A4000A3EC010AF5D1F1E7704770477047704742
:105A5000704710B500F008F8006810BD10B5044696
:105A600000F002F8046010BD004870476C07002089
:105A70001FB584B000200A9C06AB04AA02A90094BA
:105A8000AFF3008018B1DDE9020108B010BD034892
:105A9000204000F037F800200146F6E70000207CA7
:105AA000004870476C0700207546FFF7F9FFAE46C7
:105AB00005006946534620F00700854618B020B51A
:105AC000FDF770F8BDE820404FF000064FF00007EA
:105AD0004FF000084FF0000B21F00701AC46ACE896
