:020000040800F2
:10000000900D002001260008F1030008F30300080A
:10001000F7030008FB030008FF03000800000000CE
:1000200000000000000000000000000003040008C1
:100030000504000800000000070400080904000887
:100040001B2600081B2600081B2600081B2600088C
:100050001B2600081B2600081B2600081B2600087C
:100060001B2600081B2600081B2600081B2600086C
:100070001B2600081B2600081B2600081B2600085C
:100080001B2600081B2600081B2600081B2600084C
:10009000350900081B2600081B2600081B2600083F
:1000A0001B2600081B2600081B2600081B2600082C
:1000B0001B2600081B2600081B2600081B2600081C
:1000C0001B2600081B2600081B2600081B2600080C
:1000D0001B260008772500081B2600081B260008A1
:1000E0001B2600081B2600081B2600081B260008EC
:1000F0001B2600081B2600081B2600081B260008DC
:100100001B2600081B2600080B0400081B260008FD
:100110001B2600081B2600081B2600081B260008BB
:100120001B2600081B2600081B2600081B260008AB
:100130001B2600081B2600081B2600081B2600089B
:10014000110E00081B2600081B2600081B260008AD
:100150001B2600081B2600081B2600081B2600087B
:100160001B2600081B2600081B2600081B2600086B
:100170001B2600081B2600081B2600081B2600085B
:100180001B2600081B26000800F002F800F05CF8AF
:100190000AA090E8000C82448344AAF10107DA45E2
:1001A00001D100F051F8AFF2090EBAE80F0013F0D8
:1001B000010F18BFFB1A43F001031847986D0000A8
:1001C000B86D00000A444FF0000C10F8013B13F02A
:1001D000070408BF10F8014B1D1108BF10F8015BA0
:1001E000641E05D010F8016B641E01F8016BF9D193
:1001F00013F0080F1EBF10F8014BAD1C0C1B09D1EA
:100200006D1E58BF01F801CBFAD505E014F8016B5B
:1002100001F8016B6D1EF9D59142D6D370470000ED
:100220000023002400250026103A28BF78C1FBD8FF
:10023000520728BF30C148BF0B6070471FB506F09A
:1002400095FC1FBD10B510BD05F058F91146FFF71C
:10025000F5FF00F009F805F076F903B4FFF7F2FFB7
:1002600003BC02F023F900002DED028B00BF00BF9C
:1002700000BF00BF00F004FAA82002F095F84FF488
:10028000E13002F022F900F02BFA00F06FFA01F0F1
:1002900023F801F09FFE01214D4804F04BFA00F0D5
:1002A000E3FE01F086F900204A4908708FE0002043
:1002B000484908700FE001F0D9F900F01FFF402114
:1002C000454802F031FB8021434802F02DFB4FF4FA
:1002D0007A7002F083F83F4800780028EBD03D4860
:1002E0000078022825D119E03C4890ED000A01F081
:1002F0000BFCF0EE408A01F028FBB0EE408A01F0E2
:10030000EFF801F0B3F900F0F9FE4FF4FA7002F0E3
:1003100065F833480068401C31490860304800687F
:100320006428E1DB01F04BF900202E4908602949DF
:10033000087028480078042813D1B6EE000A01F0AE
:10034000E3FBF0EE408A01F000FBB0EE408A01F0E2
:10035000C7F801F08BF900F0D1FE4FF4FA7002F00B
:100360003DF81C48007805280BD101F07FF900F01A
:10037000C5FE9FED1D0A01F0B3F84FF47A7002F04C
:100380002DF814480078062821D115E0174890ED83
:10039000000A01F0DAFAB0EE408A01F0A1F801F0AB
:1003A00065F900F0ABFE4FF4FA7002F017F80D4853
:1003B0000068401C0B4908600A4800686428E5DBB7
:1003C00001F0FDF8002007490860024908706EE757
:1003D000000C00409000002000000240700000204F
:1003E000380000203C000020CDCCCC3D7400002023
:1003F000704700BFFEE700BFFEE700BFFEE700BF9B
:10040000FEE770477047704770471648008800F055
:10041000010028B31348008820F00100114908802A
:10042000104814300168104800686438814209D9C6
:100430000E4890ED000AF7EE000A30EE600A80EDFB
:10044000000A0DE0074814300068642808D2074805
:1004500090ED000AF7EE000A30EE200A80ED000A67
:1004600070470000100C0040040100200001002033
:100470000CB50020019000907648006840F4803070
:100480007449086000BF7348006800F400300090B1
:100490000198401C0190009818B90198B0F5A04F40
:1004A000F1D16C48006800F4003010B101200090D8
:1004B00001E0002000900098012846D165484030B6
:1004C000006840F08050634940310860624800682D
:1004D00040F44040604908605E48083000685D496B
:1004E000083108600846006840F40040086008468B
:1004F000006840F4A05008605848091F0860081FB1
:10050000006840F08070091F086000BF5148006813
:1005100000F000700028F9D040F2057050490860E2
:100520004C480830006820F003004A490831086050
:100530000846006840F00200086000BF45480830E7
:10054000006800F00C000828F8D10CBD10B5454833
:10055000006840F47000434908603E48006840F07D
:1005600001003C49086000203A49083108603948D8
:1005700000683D490840374908603C48091D08604B
:10058000081F006820F48020091F086000203149FE
:100590000C310860FFF76CFF4FF000603149803983
:1005A000086010BD70B50020002202230024022143
:1005B000284D08352D6805F00C0020B1042806D020
:1005C000082834D107E02A4D2A4E356033E02A4D01
:1005D000284E35602FE01F4D2D1D2D68C5F380542A
:1005E0001C4D2D1D2D6805F03F0154B1224DB5FB6A
:1005F000F1F5184E361D3668C6F3881605FB06F26F
:1006000009E01B4DB5FBF1F5124E361D3668C6F3F9
:10061000881605FB06F20F4D2D1D2D68C5F301450B
:100620006D1C6B00B2FBF3F5124E356003E0104D0C
:10063000104E356000BF00BF064D08352D68C5F36C
:1006400003150E4E705D0B4D2D68C540094E35608B
:1006500070BD0000003802400070004008544007A0
:10066000003C024088ED00E0FFFFF6FE1030002461
:100670000024F4009800002000127A009C00002062
:1006800008B54FF4407001F0DBFF14208DF8000036
:1006900001208DF801008DF802008DF803006846F6
:1006A00001F0D3FF40208DF8000001208DF80100FB
:1006B00002208DF8020001208DF80300684601F049
:1006C000C4FF32208DF8000000208DF801008DF865
:1006D000020001208DF80300684601F0B6FF08BD56
:1006E0001CB50121202002F03FFB4FF4C0600090B8
:1006F00001208DF8040000208DF8060003208DF8FD
:10070000050001208DF807006946024802F08EF8C6
:100710001CBD00000014024010B50246002000BFBE
:1007200020E000EB8003FE4C54F82330934218D1B4
:1007300000EB800304EB83031B79CB7000EB800399
:1007400004EB83031B7A0B7100EB800304EB830340
:100750001B7B4B7100EB800304EB83031B8A0B8034
:1007600010BD401C1228DCD300BFF9E700B589B0EA
:100770000121082002F0F8FA0120079002208DF8EC
:1007800020008DF8210000208DF8220001208DF836
:10079000230007A9E34802F049F80220079007A9BF
:1007A000E04802F043F809220021DE4802F0C9F8CF
:1007B00009220121DB4802F0C4F80121480602F0B9
:1007C0001CFBD94802F04EFE04A802F06FFF002087
:1007D0008DF816008DF817008DF8180001208DF89F
:1007E000190000208DF81A008DF81B008DF81200FA
:1007F00004A94FF4FA70FFF78FFF04A9CA4802F06A
:100800004AFE00208DF80A008DF80B0001208DF8BB
:100810000C00C64800884FF6FF7101EA4010ADF8A1
:100820000000C3480088ADF80200C248008801EA11
:100830004010ADF80400C0480088ADF80600002064
:10084000ADF8080001208DF80D00684602F0ADFEFD
:1008500001220221B44803F0A7F909B000BD00B598
:1008600089B00121022002F07FFA202007900220A7
:100870008DF820008DF8210000208DF82200012045
:100880008DF8230007A9AD4801F0D0FF4020079064
:1008900007A9AA4801F0CAFF09220521A74802F0CA
:1008A00050F809220621A54802F04BF801214FF02B
:1008B000C06002F0A2FAA24802F0D4FD04A802F03F
:1008C000F5FE00208DF816008DF817008DF8180041
:1008D0008DF819008DF81A008DF81B008DF81200A4
:1008E00004A94FF4FA70FFF717FF04A9944802F027
:1008F000D2FD0E208DF80A0000208DF80B0001209B
:100900008DF80C000020ADF80000ADF80200ADF845
:100910000400ADF80600ADF8080001208DF80D00C8
:10092000684602F042FE01220221854803F03CF9AC
:1009300009B000BD2DE9F0412DED068B86B00027F2
:100940000020019002908DF80C008DF80E008DF8BB
:10095000170000BF05E000210DF10F00C155781C04
:10096000C7B2082FF7DB01AA00216F4803F001F896
:100970000198C0F3C7100B2817D100249DF80F0071
:100980004411012C10D19DF811109DF8100041EA7E
:1009900000259DF814109DF8130041EA0026022D51
:1009A00001DAFFF7E3FE00BFE1E10198C0F3C710F1
:1009B0000328F9D100249DF80F0044111CB9002030
:1009C00060490870D2E1012C7ED101205D49087098
:1009D00000259DF810004FF47F0101EA0040054317
:1009E0009DF81100091201EA002005439DF812004C
:1009F00005434FF000089DF80F0000F0010010B90A
:100A0000B7EE008A01E0BFEE008A00269DF81300D1
:100A10004FF47F4101EA002006439DF8140006438D
:100A200000EE105AB8EE400ADFED470A20EE200A29
:100A300010EE101A084605F0E3FF41EC1A0B9FED8B
:100A4000430B53EC102B05F09DF841EC190B04F00F
:100A500005FE4049086000EE106AB8EE400A20EE3C
:100A6000080ADFED390A20EE200A10EE101A0846B7
:100A700005F0C6FF41EC1A0B9FED370B53EC102B22
:100A800005F080F841EC190B04F0E8FD34490860EA
:100A9000344890ED010A80ED000A2E4890ED000ADE
:100AA000304880ED010A00202F4908609FED2F0A91
:100AB0002F4880ED000A9FED2D0A80ED010A9FED81
:100AC0002B0A80ED020A00E090E09FED280A80EDFD
:100AD000030A284890ED000A254880ED000A1D48C9
:100AE00090ED000AF0EE080A20EE200A2248D0ED30
:100AF000000A1B4890ED001A00EEC10A1D48D0ED17
:100B0000000AB0EE081A01EE600A1B48D0ED000A98
:100B1000B0EE001A60EE810A80EE201A14482DE033
:100B2000EC6D0008000C024000640040AC000020A6
:100B3000B0000020B2000020B600002000040240F7
:100B40000068004090000020DB0F494000000000DA
:100B500000F905416C000020000000000094E14015
:100B600070000020880000202404004000000000E5
:100B7000FC030020640000203000002080ED011AFA
:100B80001FED060A80ED020AF74890ED000AF0EE2C
:100B9000080A20EE200AF548D0ED000A20EE200ACF
:100BA000F348D0ED000AB0EE081A01EE600AF148F1
:100BB000D0ED000AB0EE081A01EE200AEA48D0EDA6
:100BC000000AB1EE081A60EE810A90ED001A60EE9C
:100BD000810A90ED001A60EE810A80EE201AE64844
:100BE00080ED031A0020E5490860BFE0022C01D027
:100BF000042C7DD10220E24908709DF80F0000F01E
:100C0000010010B9B7EE008A01E0BFEE008A0025AE
:100C10009DF813004FF47F4101EA002005439DF841
:100C20001400054300EE105AB8EE400A20EE080A00
:100C30005FED3B0A20EE200A10EE101A084605F080
:100C4000DFFE41EC1A0B1FED3C0B53EC102B04F0B4
:100C500099FF41EC190B04F001FDC4490860C94833
:100C600090ED010A80ED000A084690ED000AC548A3
:100C700080ED010A0020C4490860C24890ED000AD6
:100C8000D0ED010A30EE600AF0EE000A60EE200AB4
:100C9000B54890ED001A80EE810A90ED001AC0EE82
:100CA000010A90ED000A80EE801AB84880ED001A23
:100CB000B44890ED010AD0ED000A30EE600AF0EE83
:100CC000080A60EE200AA84890ED001A80EE810A1A
:100CD000D0ED000A80EE201AAC4880ED011AA94838
:100CE00090ED000AA94880ED020A0020A84900E022
:100CF00001E008603AE0032C03D10320A04908700A
:100D000034E0062C32D106219D4A11709DF80F1057
:100D1000012202EA510111B9B7EE000A01E0BFEE6B
:100D2000000A9DF816209DF8151002EB012188B2EB
:100D300001EE100AB8EE411A21EE001A9FED952A35
:100D4000C1EE021AB1EE041A61EE810A9249C1EDB8
:100D5000000A9249C1ED010A91ED011A81ED001AD4
:100D60000021894A11608E4A116000BF00BF06B0A1
:100D7000BDEC068BBDE8F081F0B585B005460E46AA
:100D800000270095002001908DF808008DF80900DB
:100D900008208DF80A0083480670002406E0814888
:100DA000015D0DF10B000155601CC4B2082CF6DB8F
:100DB00069467D4802F0E8FC074605B0F0BDF0B595
:100DC00085B006460F46154600247848007800F0A6
:100DD0007F004FF4F06101EAC61108430090012042
:100DE000019000208DF808008DF809008DF80A5058
:100DF00000BF05E0395D0DF10B000155601CC4B268
:100E0000AC42F7DB6946684802F0BEFC05B0F0BDB5
:100E100000B585B00020009001908DF808008DF895
:100E20000A008DF813008DF80B006A460021604817
:100E300002F09FFD01205F49087002215C4802F02A
:100E4000B6FF05B000BDF0B585B005460E460027DB
:100E50000095002001908DF808008DF80900082009
:100E60008DF80A0054480670002406E05248015DDF
:100E70000DF10B000155601CC4B2082CF6DB69466D
:100E80004B4802F081FC074605B0F0BD1CB50020C0
:100E900000900190494800788DF80100474840785B
:100EA0008DF80200454880788DF8030044480078AA
:100EB0008DF80400424840788DF8050041480078DC
:100EC0008DF806003F4840788DF807003E480078CE
:100ED000002805DD9DF8000040F001008DF80000BD
:100EE0003A480078002805DD9DF8000040F0020037
:100EF0008DF80000082269460020FFF760FF1CBD46
:100F00001CB5002000900190314800788DF8000059
:100F10002F4840788DF80100082269460120FFF72C
:100F20004EFF1CBD1CB500200090019029480078A0
:100F30008DF80000274840788DF801002648007899
:100F40008DF80200244840788DF80300234800788B
:100F50008DF80400214840788DF805000822694684
:100F60000220FFF72CFF1CBD300000207000002085
:100F70006C00002064000020FC03002034000020EE
:100F80009000002078000020240400400C04002081
:100F90003800002000FF7F47740000208000002000
:100FA0003C000020B800002000640040AC0000209D
:100FB00000680040C9000020C1000020430000205C
:100FC0004000002048000020420000204A0000208D
:100FD000460000204B0000204D0000204F00002064
:100FE0001CB5002000900190A64800788DF8000004
:100FF000A44840788DF80100A34800788DF80200DD
:10100000A14840788DF80300A04800788DF80400CE
:101010009E4840788DF80500082269460320FFF7B6
:10102000CEFE1CBD1CB500200090019098480078B1
:101030008DF80000964840788DF8010095480078BA
:101040008DF80200934840788DF8030092480078AC
:101050008DF80400904840788DF805000822694614
:101060000420FFF7ACFE1CBD1CB5002000900190D1
:101070008A4800788DF80000884840788DF8010093
:10108000864880788DF802008448C0788DF8030087
:10109000824800798DF80400804840798DF8050079
:1010A0007E4880798DF806007C48C0798DF807006D
:1010B000082269460520FFF782FE1CBD10B5FFF728
:1010C000E5FEC82001F08AF9FFF71AFFC82001F0F9
:1010D00085F9FFF727FFC82001F080F9FFF780FFAF
:1010E000C82001F07BF9FFF79DFFC82001F076F9D9
:1010F000FFF7BAFFC82001F071F910BD70B52DEDF2
:10110000068B0024664890ED000ADFED660A20EEAB
:10111000200ADFED650A80EE201ABCEEC10A10EE4F
:10112000100A00F47F00000C604908705C4890EDE4
:10113000000ADFED5C0A20EE200ADFED5B0A80EE9C
:10114000201ABCEEC10A10EE100A00F47F40000A1B
:101150004870534890ED000ADFED520A20EE200A55
:10116000DFED510A80EE201ABCEEC10A10EE100A23
:1011700088704F4890ED000AB5EEC00AF1EE10FA03
:1011800003DB00204B49087002E001204949087048
:101190004748006805F034FC41EC1A0B9FED460B04
:1011A00053EC102B04F05AFF41EC190B9FED440B4C
:1011B00053EC102B04F0E6FC41EC180B04F0A0FEFD
:1011C000051E01DB284600E0684200F47F40001263
:1011D0003D4908703648006805F012FC41EC1A0BD6
:1011E0009FED350B53EC102B04F038FF41EC190B3D
:1011F0009FED330B53EC102B04F0C4FC41EC180BA7
:1012000004F07EFE051E01DB284600E068422E4900
:10121000487026480078072803DA244800782349D4
:1012200008702A49D1ED000AB1EE041A80EE810A55
:101230005FEDA80A20EE200ABDEEC00A10EE100AEB
:10124000002801DB014600E041428CB21F4890EDCE
:10125000000AB5EEC00AF1EE10FA03DB00201C49CB
:10126000087002E001201A49087004F47F4000125F
:101270001849087000204870FFF708FEBDEC068B87
:1012800070BD0000510000205300002055000020D8
:1012900057000020590000205B00002000000020C3
:1012A0006400002000C82F48DB0F494043000020A5
:1012B0006000002042000020000000000094E14097
:1012C00000000060FB210940400000206800002071
:1012D0004A0000204800002000B589B00121082004
:1012E00001F08BFD0121084601F03EFD032007902F
:1012F00002208DF8200000208DF8220001208DF8BA
:10130000230003208DF8210007A9244801F08EFA5C
:1013100002220021214801F014FB022201211F4872
:1013200001F00FFB1E4803F0CFF81E48006805903F
:101330000020ADF81000ADF81800ADF8120004A9B7
:10134000174803F06EF90A231A460321144803F0E4
:10135000DCFE01A803F073FD0020ADF80C0001A92C
:101360000F4803F035FD01210D4803F00FFE012267
:1013700011460B4803F0F6FD0020094924310860AE
:101380000021074803F0D6F90121054803F0D2F9FE
:101390000021034803F0CEF909B000BD000002406F
:1013A000000C00400401002000B587B00121084670
:1013B00001F0DAFC0121480701F01FFD1020059023
:1013C00003208DF8180002208DF81B0005A9FE48A7
:1013D00001F02CFA0020019002900390022004906A
:1013E00001A9002002F073FF0121002002F08CFF10
:1013F0000021084602F0D6FF0121084601F0B4FCA6
:10140000C020059001208DF8180000208DF81A00EA
:1014100003208DF8190002208DF81B0005A9EA4869
:1014200001F004FA4021E84801F07EFA8021E64804
:1014300001F07AFA07B000BD00B58DB00121084671
:1014400001F092FC0121080201F0E8FC20200B9041
:1014500003208DF8300000208DF833000BA9DA4806
:1014600001F0E4F90121080201F02DFD00214FF403
:10147000807001F028FD002007900A9009904FF439
:101480008030089007A802F01FFD002001908DF821
:1014900008008DF809000390059001208DF81800D0
:1014A00001A9CA4802F0E1FC0121C84802F023FD6D
:1014B0000DB000BD10B50446022301222146C348E9
:1014C00002F059FDC14802F0B2FD00BF0221BF4841
:1014D00002F0CEFE0028F9D0BC4802F0E4FD10BDB9
:1014E00010B52DED068BB0EE408AB5EEC08AF1EE58
:1014F00010FA27DB8021B44801F014FA4021B248E9
:1015000001F012FA4FF48071AF4801F00DFA01209A
:10151000AF4908609FEDAF0A28EE000A10EE101ADE
:10152000084605F06DFA41EC1A0B9FEDAB0B53EC3E
:10153000102B04F027FB41EC190B04F08FF8A8499D
:10154000086028E04021A04801F0ECF980219E4885
:1015500001F0EAF94FF480719B4801F0E5F90020B1
:101560009B490860B1EE480ADFED9A0A20EE200A96
:1015700010EE101A084605F043FA41EC1A0B9FEDE5
:10158000960B53EC102B04F0FDFA41EC190B04F010
:1015900065F893490860924890ED000ABCEEC00AD5
:1015A00010EE100A81B2002002F0FCFEBDEC068BAA
:1015B00010BD10B5FFF7F8FEFFF73EFF10BD00208D
:1015C000884908601FE09FED880A884885490968B6
:1015D00000EB810080ED000A9FED830A8448814979
:1015E000096800EB810080ED000A9FED7F0A8148C9
:1015F0007C49096800EB810080ED000A79480068A9
:10160000401C78490860774800680C28DBDB9FEDB8
:10161000760A794880ED000A9FED730A80ED010A91
:101620009FED710A754880ED000A9FED6F0A80ED0D
:10163000010A9FED6D0A724880ED000A9FED6A0A6B
:1016400080ED010A9FED680A6E4880ED000A9FED6B
:10165000660A6D4880ED000A9FED630A6B4880EDD5
:10166000000A9FED610A80ED010A704710B52DED6B
:101670000A8B17206649086022E065480068401E12
:10168000644901EB800090ED000A08466049096852
:1016900000EB810080ED000A5D480068401E5E4955
:1016A00001EB800090ED000A08465949096800EBFB
:1016B000810080ED000A56480068401E54490860C9
:1016C000534800680028D8DC5448006800EE100A2F
:1016D000B8EE400A524890ED001A5248D0ED000A88
:1016E000F8EEE00A01EE200A4A4880ED000A90ED8B
:1016F000000AD0ED170A30EE600AF3EE080A80EE19
:10170000201A494880ED001A424890ED000ADFEDAA
:10171000470A20EE200AF0EE000A80EE201A11EEB1
:10172000104A204605F06CF941EC1C0B9FED400B74
:1017300053EC102B04F026FA41EC1B0B9FED3E0BF3
:1017400053EC102B04F01EFA41EC190B3C480068D6
:1017500005F056F941EC1A0B53EC192B04F0E0F8A4
:1017600041EC180B03F07AFF3649086000F01EFDCB
:10177000354890ED000A284880ED000A90ED000AF7
:10178000F7EE000A20EE200AD0ED010AB7EE001AAB
:1017900001EE600AD0ED020AB7EE001A01EE200A4F
:1017A000D0ED030A30EE600A284880ED000A1A489E
:1017B00090ED000AF1EE000A20EE200AD0ED010AB9
:1017C000B1EE001A44E00000000002400020014099
:1017D000D000002000008045000000000000144000
:1017E000CC000020E400002000000000C404002021
:1017F000F404002094040020D4000020DC00002029
:1018000080000020E8000020F8000020F000002008
:10181000FC00002048050020A8050020240C004002
:10182000000100200401002008010020DB0F4940D6
:101830000000000000407F40000000000000594010
:101840000C01002014010020640000201801002079
:1018500001EE600AD0ED020AB0EE081A01EE200A8D
:10186000D0ED030AB0EE081A01EE600AD0ED040ACA
:10187000B7EE001A01EE200AD0ED050A30EE600A3C
:10188000D0ED060AB7EE001A01EE200AD0ED070AE5
:1018900030EE600A10EE101A084605F0B1F841EC7F
:1018A0001B0B9FEDFE0B53EC102B04F06BF941EC7E
:1018B0001A0B9FEDFC0B53EC102B04F063F941EC79
:1018C000190B9FEDFA0B53EC102B04F05BF941EC74
:1018D000180B03F0C3FEF74908600520FFF7EAFD87
:1018E00000EE100AB8EE400AF34880ED000A90EDD1
:1018F000000ADFEDF20A30EE600AF0EE000A20EE98
:10190000200A10EE101A084605F07AF841EC1A0B7E
:101910001FED4F0B53EC102B04F0A0FB41EC190B07
:101920009FEDE70B53EC102B04F02CF941EC180B56
:1019300003F094FEE4490860084690ED000AE3488D
:1019400080ED000ABDEC0A8B10BD10B52DED048BA7
:10195000B0EE408ADE4880ED008A006805F050F85D
:1019600041EC190B9FEDDB0B53EC102B04F015FD34
:1019700004D8B0EE040AD64880ED000AD4480068C6
:1019800005F03EF841EC190B9FEDD40B53EC102BF6
:1019900004F028FB04D8B8EE040ACD4880ED000A14
:1019A000CB4890ED000AC948D0ED000A30EE600A3D
:1019B000CC4880ED000A90ED000ACB4880ED000A8B
:1019C0001FED770A80ED010A0020C849086013E086
:1019D000C54890ED010AC348C449096800EB81007D
:1019E000D0ED000A30EE200ABF4880ED010ABF4862
:1019F0000068401CBD490860BC4800680C28E7DB53
:101A0000B84890ED000AF0EE080A20EE200AD0ED6A
:101A1000010AB1EE001A01EE600AD0ED020A30EEC2
:101A2000200AB14880ED020AB14890ED000AAE48A4
:101A3000D0ED000AAF4890ED001A01EE200AAA4846
:101A4000D0ED010AAC4890ED001A01EE200AA6483C
:101A5000D0ED020AA94890ED001A01EE200AA44830
:101A600080ED010A90ED010A10EE101A084604F00C
:101A7000C7FF41EC190B9FED970B53EC102B04F0B3
:101A80008CFC04D8B0EE040A994880ED010A98480D
:101A900090ED010A10EE101A084604F0B1FF41EC77
:101AA000190B9FED8E0B53EC102B04F09BFA04D80E
:101AB000B8EE040A8E4880ED010A8D4890ED010AC7
:101AC00080ED000A0B208949086013E08748006810
:101AD000401E844901EB800090ED000A08468349CE
:101AE000096800EB810080ED000A80480068401E14
:101AF0007E4908607D4800680028E7DC7C4890ED5E
:101B0000010ABDEC048B10BD10B52DED048BB0EEB9
:101B1000408A7B4880ED008A006804F071FF41EC48
:101B2000190B9FED780B53EC102B04F036FC04D806
:101B30009FED760A724880ED000A7148006804F053
:101B40005FFF41EC190B9FED720B53EC102B04F06F
:101B500049FA04D89FED700A694880ED000A684888
:101B600090ED000A6D48D0ED000A30EE600A6C4836
:101B700080ED000A90ED000A6A48D0ED000AB4EE4C
:101B8000E00AF1EE10FA04DD90ED000A644880ED01
:101B9000000A634890ED000A6248D0ED000AF1EEB9
:101BA000600AB4EEE00AF1EE10FA06D290ED000AF7
:101BB000B1EE400A5A4880ED000A594890ED000AFB
:101BC000594880ED000A1FEDF80A80ED010A002057
:101BD0005649086013E0544890ED010A50485349B3
:101BE000096800EB8100D0ED000A30EE200A4E4873
:101BF00080ED010A4D480068401C4C4908604B4884
:101C000000680C28E7DB464890ED000AF0EE080A71
:101C100020EE200AD0ED010AB1EE001A01EE600AB2
:101C2000D0ED020A30EE200A3F4880ED020A40481B
:101C300090ED000A3C48D0ED000A3E4890ED001AB5
:101C400001EE200A3848D0ED010A3B4890ED001A19
:101C500001EE200A3448D0ED020A384890ED001A0F
:101C600001EE200A324880ED010A90ED010A10EEE3
:101C7000101A084604F0C4FE41EC190B9FED150B39
:101C800053EC102B04F089FB04D8B0EE040A28486A
:101C900080ED010A264890ED010A51E000000000A5
:101CA000000022400000000000001040FCA9F1D21A
:101CB0004D62503F1001002020010020000000452F
:101CC000000000000000B0401C010020680000205F
:101CD0002C01002000000000000004400000000073
:101CE000000004C0F404002024050020240100208A
:101CF000DC000020080000200C0000201000002064
:101D000038010020A43A55297A6A3F40D153FB415B
:101D1000A43A55297A6A3FC0D153FBC16000002024
:101D2000C4040020340100203005002030010020D0
:101D3000D400002014000020180000201C00002007
:101D400010EE101A084604F05BFE41EC190B1FED73
:101D50001D0B53EC102B04F045F904D8B8EE040A1F
:101D6000874880ED010A864890ED010A854880ED9C
:101D7000010A834890ED010A80ED000A0B20824998
:101D8000086013E080480068401E804901EB800035
:101D900090ED000A08467C49096800EB810080ED5F
:101DA000000A79480068401E774908607648006854
:101DB0000028E7DC724890ED010ABDEC048B10BDF1
:101DC00010B52DED048BB0EE408A714880ED008A8D
:101DD00090ED000A6F48D0ED000A30EE600A6E48C0
:101DE00080ED000A90ED000A6C48D0ED000AB4EED8
:101DF000E00AF1EE10FA04DD90ED000A664880ED8D
:101E0000000A654890ED000A6448D0ED000AF1EE42
:101E1000600AB4EEE00AF1EE10FA06D290ED000A84
:101E2000B1EE400A5C4880ED000A5B4890ED000A84
:101E30005B4880ED000A9FED5B0A80ED010A0020FF
:101E40005949086013E0564890ED010A5248564936
:101E5000096800EB8100D0ED000A30EE200A5048FE
:101E600080ED010A50480068401C4F4908604E4808
:101E700000680C28E7DB484890ED000AF0EE080AFD
:101E800020EE200AD0ED010AB1EE001A01EE600A40
:101E9000D0ED020A30EE200A414880ED020A4348A4
:101EA00090ED000A3E48D0ED000A414890ED001A3E
:101EB00001EE200A3A48D0ED010A3E4890ED001AA2
:101EC00001EE200A3648D0ED020A3B4890ED001A98
:101ED00001EE200A354880ED010A90ED010A10EE6E
:101EE000101A084604F08CFD41EC190B9FED330BE2
:101EF00053EC102B04F051FA04D89FED320A2B4812
:101F000080ED010A294890ED010A10EE101A0846EA
:101F100004F076FD41EC190B9FED2B0B53EC102BCD
:101F200004F060F804D89FED2A0A204880ED010AE9
:101F30001E4890ED010A80ED000A0B201A49086046
:101F400013E019480068401E134901EB800090ED32
:101F5000000A08461449096800EB810080ED000A78
:101F600011480068401E104908600F4800680028AA
:101F7000E7DC0E4890ED010ABDEC048B10BD0000BB
:101F8000D40000208000002030010020C404002084
:101F9000F800002064000020940400204401002088
:101FA0003C050020000000003C010020F000002063
:101FB000200000202400002028000020EA2E4454A5
:101FC000FB211940DB0FC940EA2E4454FB2119C004
:101FD000DB0FC9C010B5A14B02220121A04803F0BC
:101FE00048F9A04B012202219F4803F042F99F4B80
:101FF000022211469E4803F03CF99E4B02221146F4
:102000009D4803F036F99D4B012202219C4803F0C4
:1020100030F99C4B012202219B4803F02AF99B4B8B
:10202000012202219A4803F024F99A4B0222114618
:10203000994803F01EF9994B02221146984803F083
:1020400018F9984B02221146974803F012F9974B62
:1020500001220221964803F00CF9964B0122114609
:10206000954803F006F9954B02221146944803F077
:1020700000F9944B02221146934803F0FAF8934B6F
:1020800002221146924803F0F4F8924B01221146C5
:10209000914803F0EEF8914B01221146904803F06D
:1020A000E8F8904B012211468F4803F0E2F88F4B7D
:1020B000012211468E4803F0DCF88E4B01221146B6
:1020C0008D4803F0D6F88D4B012211468C4803F061
:1020D000D0F88C4B012202218B4803F0CAF88B4BBD
:1020E000012202218A4803F0C4F88A4B012202210E
:1020F000894803F0BEF8894B01220221884803F089
:10210000B8F8884B01220221874803F0B2F8874BC8
:1021100001220221864803F0ACF8864B01220221FD
:10212000854803F0A6F8854B01220221844803F07C
:10213000A0F8844B01220221834803F09AF8834BD4
:1021400001220221824803F094F8824B01220221ED
:10215000814803F08EF8814B01220221804803F070
:1021600088F8804B022211467F4803F082F87F4BAB
:10217000022211467E4803F07CF87E4B0222114673
:102180007D4803F076F87D4B022211467C4803F02F
:1021900070F87C4B022211467B4803F06AF87B4BB7
:1021A000022211467A4803F064F810BD10B52DEDF7
:1021B000048B334A36493A4803F060F804467548C0
:1021C00090ED000A3C48406880ED000AE01C08B928
:1021D00000BFFEE7404A2A49214803F04FF8044671
:1021E0003F4A3D49344803F0E7F804464A4A3C492F
:1021F0002F4803F043F80446234A4749204802F099
:10220000B4FF0446224A2049314803F037F8044617
:102210001D48406890ED000A5F4880ED000A1A48AA
:10222000406890ED010A10EE101A084604F0E8FB31
:1022300041EC190B9FED590B53EC102B03F00EFFE3
:1022400041EC180B03F00AFA56490860E01C08B983
:1022500000BFFEE7BDEC048B10BD00005401002060
:102260009C0200205C010020A402002094010020B8
:1022700064020020A4010020BC020020CC01002048
:102280006C020020D401002074020020E401002030
:102290007C020020B40100208402002064010020A0
:1022A0008C0200207401002094020020DC01002038
:1022B000AC02002050010020B402002048010020A0
:1022C000C40200204C010020CC0200208401002028
:1022D000D4020020EC010020DC020020F0010020EC
:1022E000E4020020F4010020EC020020F8010020AC
:1022F000F4020020FC010020FC020020000200206B
:1023000004030020040200200C0300200C02002023
:1023100014030020140200201C0300201C020020D3
:1023200024030020240200202C0300202C02002083
:1023300034030020340200203C0300203C02002033
:1023400044030020440200204C0300204C020020E3
:1023500054030020540200205C0300205C02002093
:1023600064030020080600206C03002018060020EB
:1023700074030020280600207C030020380600207B
:1023800084030020480600208C030020580600200B
:1023900094030020140100206400002000000000CD
:1023A00000408F406000002010B504466FF004002C
:1023B00000F098F9E11704EB5171C1F3C701394AF4
:1023C00011701046007800EB4001C1EBC0104FF6D1
:1023D000FF7101EAC0003449088010BD0146314A4E
:1023E00012784A434FF0E0235A6100229A611A465C
:1023F000126942F001021A6100BF4FF0E022106939
:1024000000F001021AB100F48032002AF5D04FF03A
:10241000E022126922F001024FF0E0231A6100224B
:102420009A6170470146204A12884A434FF0E023E0
:102430005A6100229A611A46126942F001021A6139
:1024400000BF4FF0E022106900F001021AB100F461
:102450008032002AF5D04FF0E022126922F001020A
:102460004FF0E0231A6100229A61704770B504466C
:102470004FF4077094FBF0F0C6B24FF4077094FB72
:10248000F0F100FB114085B205E04FF40770FFF753
:10249000C9FF701EC6B2002EF7D115B12846FFF74E
:1024A000C1FF70BD9C0300209E03002000BF704749
:1024B00000BF704700BF4E4A128802F04002002A57
:1024C000F9D0C2B24A4B9A80704710B588B0044622
:1024D0000121084600F048FC0121102000F09EFC7C
:1024E00007220921434800F02CFA07220A2141481B
:1024F00000F027FA4FF4C060069002208DF81C000F
:102500008DF81D0000208DF81E0001208DF81F00A1
:1025100006A9384800F08AF902940020ADF80C00B2
:10252000ADF80E00ADF81000ADF814000C20ADF8B9
:10253000120002A92E4800F0D2FD01212C4800F023
:1025400056FE40212A4800F03AFF012240F2255170
:10255000274800F002FF25208DF8040003208DF8A5
:1025600005008DF8060001208DF8070001A800F095
:102570006CF808B010BD10B540F225511C4800F0B1
:1025800027FF10B31A4800F061FEC4B21A48008851
:1025900000F40040C8B91848008800F4804060B1D9
:1025A0000A2C03D000201449088020E0124800883B
:1025B00040F400401049088019E00D2C06D10E4867
:1025C000008840F480400C49088010E00A480088E8
:1025D000C0F30D0009490C5407480088401C064907
:1025E000088008460088C72801DD0020088010BD4B
:1025F0000010014000000240A403002068060020F3
:102600000948804709480047FEE7FEE7FEE7FEE786
:10261000FEE7FEE7FEE7FEE7FEE7FEE704480549C2
:10262000054A064B704700004D0500088901000867
:1026300090070020900D00209009002090090020B4
:1026400032490143324A1160704770B500210023BE
:102650000F22C4781CB32E4C246804F4E064C4F543
:10266000E064C4F30721C1F10404E3B20A414478F1
:102670009C40E1B28478144021430C07210E254C84
:1026800005786155047804F01F050124AC400578F5
:102690006D11AD0005F1E025C5F8004109E00478B1
:1026A00004F01F050124AC401B4D0678761145F857
:1026B000264070BD194A0A400243154B1B1F1A6081
:1026C000704739B1124A121D12680243104B1B1D8C
:1026D0001A6006E00E4A121D126882430C4B1B1D45
:1026E0001A607047042808D14FF0E021096941F0D1
:1026F00004014FF0E022116107E04FF0E021096989
:1027000021F004014FF0E022116170470000FA054A
:102710000CED00E000E400E080E100E080FFFF1F3E
:1027200010B504469848844208D10121084600F0BB
:1027300086FB0021012000F082FB76E09348844272
:1027400008D10121022000F07AFB0021022000F0D4
:1027500076FB6AE08E48844208D10121042000F013
:102760006EFB0021042000F06AFB5EE08948844291
:1027700008D10121082000F062FB0021082000F0B0
:102780005EFB52E08448844208D10121102000F011
:1027900056FB0021102000F052FB46E07F488442A7
:1027A00008D10121202000F04AFB0021202000F068
:1027B00046FB3AE07A48844208D10121402000F0EB
:1027C0003EFB0021402000F03AFB2EE07548844299
:1027D00008D10121802000F032FB0021802000F090
:1027E0002EFB22E07048844208D10121801500F0C0
:1027F00026FB0021A01500F022FB16E06B48844266
:1028000008D10121401500F01AFB0021601500F0ED
:1028100016FB0AE06648844207D10121001500F04A
:102820000EFB0021201500F00AFB10BDF0B50A4692
:1028300000210023002400BF3DE0012505FA01F33B
:10284000156805EA03049C4234D105684F0003264D
:10285000BE40B543056015794E00B5400668354366
:1028600005601579012D02D01579022D16D18568E4
:102870004F000326BE40B543856055794E00B540F4
:10288000866835438560456801268E40B5434560BE
:10289000456896798E40B6B235434560C5684F00AD
:1028A0000326BE40B543C560D5794E00B540C66825
:1028B0003543C560491C1029BFD3F0BD4FF6FF71E9
:1028C00001600021017141718171C171704708B5CA
:1028D0004FF480320092009A0A430092009AC2613B
:1028E000C161009AC261C2690092C269009208BDCA
:1028F0000246002013690B400BB1012000E00020CC
:1029000070470146086980B270470246002053694B
:102910000B400BB1012000E00020704701464869E0
:1029200080B2704701837047418370470AB10183C9
:1029300000E0418370474161704742694A4042610B
:102940007047F0B5002300244D07ED0E02FA05F3A1
:10295000CE1000F1200555F826504E07F70E0F2631
:10296000BE40B543CF1000F1200646F82750CE10E8
:1029700000F1200555F8265045EA0304CE1000F179
:10298000200545F82640F0BD00000240000402404A
:1029900000080240000C02400010024000140240F7
:1029A00000180240001C02400020024000240240A7
:1029B00000280240F948006840F00100F74908602B
:1029C0000020F64908310860F4480068F4490840DE
:1029D000F2490860F348091D0860F348EF49843163
:1029E0000860F0481038091D0860EC48006820F4C1
:1029F0008020EA4908600020E8490C310860E74976
:102A00008C31086070470021E44A921C1170114615
:102A10000870704710B501460022002300204A11BB
:102A2000012A02D1DD4C236808E0022A03D1DB4CE5
:102A30007034236802E0D94C7434236801F01F021B
:102A4000012494401C400CB1012000E0002010BD86
:102A500038B5002000900024002500BF3120FFF78A
:102A6000D9FF05460098401C00900098B0F5A04F93
:102A700001D0002DF2D03120FFF7CCFF08B10124A6
:102A800000E00024204638BD01460020C34A1068FB
:102A900020F0F80040EAC10010607047C3490860A8
:102AA00070470021BD4A703211701170012802D0A8
:102AB00004280AD104E00121B84A7032117005E0FF
:102AC0000521B64A7032117000E000BF00BF7047A8
:102AD000B7490860704770B5049C41EA8215012629
:102AE000C6EB530645EA0645054345EA0465AB4E89
:102AF000361D356070BDAD4908667047820142EAF7
:102B00000172A64B84331A607047A84988667047E3
:102B100010B5830143EA016343EA02739F4C883492
:102B2000236010BDA14908677047A049C864704779
:102B300002460020994B0833186820F0EC6042EA06
:102B400001031843954B0833186070470246002074
:102B5000924B0833186820F0784042EA010318438A
:102B60008E4B083318607047014600208B4A0832AC
:102B7000106820F003000843106070478748083051
:102B8000006800F00C00704701460020834A0832BC
:102B9000106820F0F00008431060704701460020E4
:102BA0007E4A0832106820F4E050084310607047F5
:102BB00001460020794A0832106820F4604040EA5B
:102BC000C10010607047F0B50021002200240225EA
:102BD00000260223714F08373F6807F00C0121B12E
:102BE000042905D0082937D105E0724F076036E087
:102BF000714F076033E0694F3F1D3F68C7F3805650
:102C0000664F3F1D3F6807F03F036EB16A4FB7FB49
:102C1000F3F7DFF888C10CF1040CDCF800C0CCF34A
:102C2000881C07FB0CF40CE0624FB7FBF3F7DFF8EE
:102C30006CC10CF1040CDCF800C0CCF3881C07FB61
:102C40000CF4564F3F1D3F68C7F301477F1C7D00C2
:102C5000B4FBF5F7076002E0564F076000BF00BF06
:102C60004E4F08373F6807F0F0010909534F7A5C6F
:102C70000768D7404760494F08373F6807F4E0517D
:102C8000890A4E4F7A5C4768D7408760434F0837C0
:102C90003F6807F46041490B484F7A5C4768D7406A
:102CA000C760F0BD002100F44072B2F5407F0AD148
:102CB0003A4A0832116821F4F811414A024011439E
:102CC000364A08321160354A70321268C0F30B037D
:102CD0001A43324B70331A607047354944390860E3
:102CE000704733494039086070473649086070477B
:102CF00001460020294A8C32106820F01F004A1E2D
:102D00001043264A8C321060704701460020234A47
:102D10008C32106820F4F8504A1E40EA02201F4A04
:102D20008C3210607047014600201C4A8C321068BB
:102D300020F4401008431060704701460020174AF5
:102D40008C32106820F44000084310607047014640
:102D50000020124A8C32106820F440300843106082
:102D6000704719490860704739B10C4A303212680F
:102D700002430A4B30331A6006E0084A30321268C8
:102D80008243064B30331A607047F9B1034A34323C
:102D900012680243014B34331A601CE000380240D1
:102DA000FFFFF6EA10300024003000200000474208
:102DB000800E47420024F40000127A00A60300208F
:102DC000FFFCFF0F5C014742E01147428F4A126847
:102DD00082438E4B1A60704739B18C4A121D1268BB
:102DE00002438A4B1B1D1A6006E0884A121D1268B6
:102DF0008243864B1B1D1A60704739B1834A0C32DF
:102E000012680243814B0C331A6006E07F4A0C3291
:102E1000126882437D4B0C331A60704739B17B4A8C
:102E2000103212680243794B10331A6006E0774A79
:102E3000103212688243754B10331A60704739B1F3
:102E4000724A243A12680243704B243B1A6006E02F
:102E50006E4A243A126882436C4B243B1A607047D6
:102E600039B16A4A203A12680243684B203B1A6023
:102E700006E0664A203A12688243644B203B1A609F
:102E8000704739B1614A1C3A126802435F4B1C3BE0
:102E90001A6006E05D4A1C3A126882435B4B1C3B99
:102EA0001A60704739B1594A143A12680243574BB5
:102EB000143B1A6006E0554A143A12688243534B99
:102EC000143B1A60704739B1504A103A12680243F5
:102ED0004E4B103B1A6006E04C4A103A126882438F
:102EE0004A4B103B1A60704739B1484A1C3212688D
:102EF0000243464B1C331A6006E0444A1C321268F7
:102F00008243424B1C331A60704739B13F4A20322A
:102F1000126802433D4B20331A6006E03B4A2032E0
:102F200012688243394B20331A60704739B1374AEF
:102F3000243212680243354B24331A6006E0334AC8
:102F4000243212688243314B24331A60704739B1FE
:102F50002E4A2C32126802432C4B2C331A6006E0A6
:102F60002A4A2C3212688243284B2C331A6070474D
:102F700039B1264A303212680243244B30331A608A
:102F800006E0224A303212688243204B30331A6006
:102F90007047012808D11D493C31096841F00801FA
:102FA0001A4A3C32116007E018493C31096821F0A7
:102FB0000801164A3C321160704739B1134A273A6A
:102FC00012780243114B273B1A7006E00F4A273A4A
:102FD000127882430D4B273B1A7070470B484030E4
:102FE000006840F080700949403108607047014630
:102FF0000020064A283A12680A400AB1012000E07F
:103000000020704701492639087070473438024063
:1030100010B50446FA48844208D101211020FFF778
:1030200052FF00211020FFF74EFF57E0F548844281
:1030300009D101214804FFF735FF00214FF400308A
:10304000FFF730FF4AE0F048844209D101218804AB
:10305000FFF728FF00214FF48020FFF723FF3DE01A
:10306000EA48844209D10121C804FFF71BFF00216F
:103070004FF40020FFF716FF30E0E548844209D105
:1030800001210805FFF70EFF00214FF48010FFF724
:1030900009FF23E0DF48844208D101212020FFF707
:1030A00012FF00212020FFF70EFF17E0DA488442CC
:1030B00009D101218807FFF7F5FE00214FF080407C
:1030C000FFF7F0FE0AE0D548844207D10121400510
:1030D000FFF7E8FE00216005FFF7E4FE10BD2DE9D3
:1030E000FF4705460E460024A14600BFA046B08912
:1030F00000B100BF2C8A24F44054F08804432C8291
:10310000AC8941F20C608443B088318908437189ED
:1031100008430443AC81AC8A24F44074B08904436E
:10312000AC826846FFF74FFDB548854202D0B948EA
:10313000854202D1DDF80C9001E0DDF80890A88905
:1031400000F4004040B109EBC90000EB0910316800
:103150004900B0FBF1F707E009EBC90000EB0910EB
:1031600031688900B0FBF1F76420B7FBF0F004018F
:103170002009642101FB1078A88900F4004040B1C7
:10318000322000EBC800B0FBF1F000F00700044370
:1031900008E0322000EB08106421B0FBF1F000F0F1
:1031A0000F0004432C81BDE8FF874FF416510160E6
:1031B00000218180C18001810C2141810021818118
:1031C000704710B502460020108A20F470600B880A
:1031D0004C8823438C882343CC8823431843108294
:1031E00010BD0021018041808180C180704721B1E4
:1031F000828942F40052828104E082894DF6FF7395
:103200001A4082817047028B02F47F420283028B54
:103210000A430283704721B1828942F400428281CD
:1032200003E08289C2F30E028281704721B1828A53
:1032300042F40062828204E0828A4FF2FF731A40F5
:1032400082827047C1F308028280704701468888F5
:10325000C0F308007047028A4FF6F0731A400282EA
:10326000028A0A430282704721B1828942F0020237
:10327000828104E082894FF6FD731A408281704793
:1032800082894FF2FF731A40828182890A438281C8
:103290007047028A4FF6DF731A400282028A0A439D
:1032A0000282704721B1028A42F48042028204E025
:1032B000028A4BF6FF731A4002827047818941F0FF
:1032C00001018181704721B1828A42F00802828225
:1032D00004E0828A4FF6F7731A4082827047028BAD
:1032E000D2B20283028B42EA01220283704721B1EB
:1032F000828A42F02002828204E0828A4FF6DF73E3
:103300001A408282704721B1828A42F01002828282
:1033100004E0828A4FF6EF731A4082827047828AF5
:103320004FF6FB731A408282828A0A438282704778
:1033300021B1828A42F00202828204E0828A4FF640
:10334000FD731A40828270471AB1838A0B438382CD
:1033500002E0838A8B4383827047F0B503460024E2
:1033600000260025002040F66A17B94200D100BFB0
:103370001846C1F3421401F01F06012707FA06F5AB
:10338000012C01D10C3004E0022C01D1103000E0FE
:1033900014301AB107682F43076002E00768AF4393
:1033A0000760F0BD02460020B1F5007F00D100BFEC
:1033B00013880B400BB1012000E00020704701F49E
:1033C0000072B2F5007F00D100BFCA43028070478F
:1033D00070B50246002400230025002040F66A163E
:1033E000B14200D100BFC1F3421501F01F03012615
:1033F00006FA03F3012D13D19689334017E000003C
:10340000001001400044004000480040004C0040D3
:10341000005000400014014000780040007C004053
:10342000022D02D1168A334001E0968A33400C12F5
:10343000012606FA04F41688344013B10CB10120B9
:1034400000E0002070BD10B50022002340F66A1491
:10345000A14200D100BF0A1201249440A3B2DC4370
:10346000048010BD10B50446FE48844209D10121F4
:103470004806FFF717FD00214FF00070FFF712FD1F
:1034800008E001218806FFF70DFD00214FF0806064
:10349000FFF708FD10BD30B5024600200023146878
:1034A00024F002041460146844F00104146000E085
:1034B0005B1C546804F001041CB94FF6FF74A3426E
:1034C000F6D1546804F001040CB900206CE08C794A
:1034D000012C04D1146844F08004146003E01468E3
:1034E00024F080041460CC79012C04D1146844F0D9
:1034F0004004146003E0146824F0400414600C7A63
:10350000012C04D1146844F02004146003E0146812
:1035100024F0200414604C7A012C04D1146844F087
:103520001004146003E0146824F0100414608C7A12
:10353000012C04D1146844F00804146003E01468FA
:1035400024F008041460CC7A012C04D1146844F0EF
:103550000404146003E0146824F0040414608C78FC
:10356000A407CD7844EA05640D7944EA05444D7911
:1035700044EA05540D886D1E2C43D461146824F070
:1035800001041460002300E05B1C546804F0010493
:103590001CB14FF6FF74A342F6D1546804F0010445
:1035A0000CB1002000E0012030BD10B50021837A6D
:1035B000012202FA03F1AC4A126842F00102AA4B5E
:1035C0001A60A94A1C3212688A43A74B1C331A603E
:1035D000027BCAB9A44A0C3212688A43A24B0C334C
:1035E0001A604288C38842EA03439F4A4032847A81
:1035F00042F834300288838842EA03439A4A4032D0
:10360000847A02EBC4025360027B012A19D1964AE4
:103610000C3212680A43944B0C331A6042880388B8
:1036200042EA0343904A4032847A42F83430C288F6
:10363000838842EA03438C4A4032847A02EBC40214
:103640005360C27A3AB9884A121D12688A43864B7F
:103650001B1D1A6006E0844A121D12680A43824B41
:103660001B1D1A60028932B97F4A143212688A43DC
:103670007D4B14331A600289012A06D17A4A14322A
:1036800012680A43784B14331A60427B012A06D130
:10369000754A1C3212680A43734B1C331A60724A13
:1036A000126822F00102704B1A6010BD0021817176
:1036B000C171017241728172C1728170C170032146
:1036C0000171022141710121018070476649096839
:1036D00041F00101644A11601146096843F60E7217
:1036E0009143614A11601146096841EA0021116065
:1036F0001146096821F001011160704721B102688B
:1037000042F48032026003E0026822F480320260F8
:103710007047E1B1026842F0800202604FF4C27269
:10372000125842F480734FF4C27213504FF4CA72AD
:10373000125842F480734FF4CA7213504FF4D2728D
:10374000125842F480734FF4D27213501BE0026897
:1037500022F0800202604FF4C272125822F4807389
:103760004FF4C27213504FF4CA72125822F480738D
:103770004FF4CA7213504FF4D272125822F480736D
:103780004FF4D2721350704710B502460020936870
:1037900003F08063B3F1806F00D110E0936803F011
:1037A0000063B3F1006F01D1012008E0936803F0DA
:1037B0008053B3F1805F01D1022000E0042004288F
:1037C00079D002F5C07303EB00131B6803F001040A
:1037D00002F5C07303EB00131C600B7A7BB94B7AC4
:1037E0000C8843EA445302F5C07404EB00142468C7
:1037F000234302F5C07404EB0014236010E00B7A3D
:103800004C6843EAC4034C7A234302F5C07404EBCA
:1038100000142468234302F5C07404EB00142360F1
:103820008B7A03F00F038B7202F5C07303EB001366
:103830005B6823F00F0402F5C07303EB00135C60B8
:1038400002F5C07303EB00135B688C7A234302F527
:10385000C07404EB001463608B7B1C064B7B44EA52
:10386000034403E000640040006600400B7B44EA30
:103870000323CC7A234302F5C07404EB0014A36045
:103880008B7C1C064B7C44EA03440B7C44EA0323F8
:10389000CC7B234302F5C07404EB0014E36002F513
:1038A000C07303EB00131B6843F0010402F5C073FF
:1038B00003EB00131C6010BD10B50246002321B1BC
:1038C000012907D002290FD109E09068F94C00EADC
:1038D00004030BE09068F84C00EA040306E09068EB
:1038E000F64C00EA040301E0002300BF00BFF44CE3
:1038F000181BA34216D007DC83B16FF08060184418
:1039000070B1022818D111E0B0F5007F10D0ED4C55
:10391000204448B1B0F5003F0ED10BE002230DE08A
:1039200000230BE0002309E0002307E0012305E06A
:10393000012303E0012301E0002300BF00BFD8B250
:1039400010BD21B1012907D002290FD109E08268F9
:1039500042F0800282600AE0826842F400428260A3
:1039600005E0826842F40002826000E000BF00BF10
:10397000704710B500F5D87303EB01131B6803F013
:1039800004031372137A53B900F5D87303EB0113D0
:103990001B6840F2FF7404EA5353136009E000F51A
:1039A000D87303EB01131B686FF0604404EAD30380
:1039B000536000F5D87303EB01131B6803F0020397
:1039C000537200F5D87303EB01135B6803F00F0328
:1039D000937200F5D87303EB01135B681B0AD37471
:1039E00000F5D87303EB01139B68D37200F5D8730D
:1039F00003EB01139B681C0A147300F5D87303EBE7
:103A000001139B681C0C547300F5D87303EB01136E
:103A10009B681B0E937300F5D87303EB0113DB68EF
:103A2000D37300F5D87303EB0113DB681C0A14741D
:103A300000F5D87303EB0113DB681C0C547400F51C
:103A4000D87303EB0113DB681B0E937421B9C368B1
:103A500043F02003C36003E0036943F020030361E4
:103A600010BD21B9C26842F02002C26003E00269C1
:103A700042F02002026170470246002019B9D36863
:103A800003F0030006E0012903D1136903F00300EA
:103A900000E00020704710B502460B4600204FF6AC
:103AA000FF71BBB9146824F0020444F001041460EF
:103AB00000E0491E546804F00304012C01D00029E1
:103AC000F7D1546804F00304012C01D0002032E047
:103AD000012030E0012B13D1146824F0030414609A
:103AE00000E0491E546804F003040CB10029F8D129
:103AF000546804F003040CB100201CE001201AE01B
:103B0000022B17D1146824F0010444F0020414605D
:103B100000E0491E546804F00304022C01D000297F
:103B2000F7D1546804F00304022C01D0002002E015
:103B3000012000E0002010BD014600200A6822F0AC
:103B4000010242F002020A604A6802F00302022AFD
:103B500000D10120704701464FF6FF7200200B682C
:103B600023F002030B6000E0521E4B6803F00203D7
:103B7000022B01D1002AF7D14B6803F00203022B7C
:103B800000D001207047014600208A6902F07000D1
:103B90007047014600208A69100E704701460020D8
:103BA0008A69C2F3074070471AB143690B43436106
:103BB00002E043698B434361704710B50246002021
:103BC00001F4700343B19369C1F3130423400BB1B3
:103BD00001202DE000202BE001F0807343B15368F9
:103BE000C1F3130423400BB1012021E000201FE0AA
:103BF00001F0006343B19368C1F3130423400BB198
:103C0000012015E0002013E001F0007343B1D368F8
:103C1000C1F3130423400BB1012009E0002007E0A9
:103C20001369C1F3130423400BB1012000E000200D
:103C300010BD0022244B994202D10023836111E080
:103C4000C1F3130201F000730BB1C2600AE001F08E
:103C500080630BB1026105E001F000630BB182608B
:103C600000E0426070470246002002EA01030BB107
:103C7000012000E00020704770B504460D46002684
:103C800060692840002872D0B5F5807F69D01DDCBE
:103C9000082D42D006DC012D2DD0022D31D0042D6F
:103CA0007FD134E0102D3ED0202D42D0402D78D150
:103CB00045E00000030000040003000800000310BA
:103CC000000100080001FFF77000F030B5F5004F6B
:103CD00061D009DCB5F5007F4AD0B5F5806F4DD0D5
:103CE000B5F5006F5DD150E0B5F5803F2DD0B5F54D
:103CF000003F56D12FE0A0685549FFF7B4FF0646B4
:103D000051E0E0680321FFF7AEFF06464BE0E068B4
:103D10000821FFF7A8FF064645E0E0681021FFF7FD
:103D2000A2FF06463FE020690321FFF79CFF0646FD
:103D300039E020690821FFF796FF064633E0206945
:103D40001021FFF790FF06462DE060680821FFF77D
:103D50008AFF064627E060681021FFF784FF0646C9
:103D600021E0A0690121FFF77EFF06461BE01BE072
:103D7000A0690221FFF777FF064614E0A06904213D
:103D8000FFF771FF06460EE00BE0A0697021FFF718
:103D90006AFF064607E060680421FFF764FF0646F5
:103DA00001E0002600BF00E00026304670BDB1F5FE
:103DB000007F3AD00FDC202928D006DC01291CD056
:103DC00004291DD0082940D11DE0402921D0B1F59A
:103DD000807F3AD126E0B1F5004F31D006DCB1F555
:103DE000806F25D0B1F5006F2FD124E0B1F5803F71
:103DF00012D0B1F5003F28D111E0154A826025E0CC
:103E00000822C26022E01022C2601FE00822026184
:103E10001CE01022026119E00822426016E0102224
:103E2000426013E00422426010E0042242600DE090
:103E3000042242600AE0002282610422426005E01E
:103E4000002282610422426000E000BF00BF704790
:103E50000101010010B501210802FFF734F800212B
:103E60004FF48070FFF72FF810BD30B502460020E8
:103E700000235068F84C20400D790C6844EA052472
:103E8000204350609068F54C2040D1E903542C4306
:103E90008D682C434D7944EA450420439060D06AF4
:103EA00020F470000C7D641EE4B2234340EA03500A
:103EB000D06230BD00210160017141718160C1603B
:103EC00001610121017570470021E54A1168E54A49
:103ED0001140D0E900231A4383681A43C3681A4388
:103EE0001143E14AC2F804137047002101604160A8
:103EF0008160C160704721B1826842F00102826036
:103F000003E0826822F00102826070470A460021C5
:103F10004168D64B1940114341607047416282624B
:103F200070470A460021416821F01F01114341609A
:103F3000704738B1CA49096841F40001CA4AC2F859
:103F4000041306E0C649096821F40001C64AC2F814
:103F50000413704738B1C249096841F48001C24A6C
:103F6000C2F8041306E0BE49096821F48001BE4A84
:103F7000C2F804137047F0B504460D460020002136
:103F8000092D11DDE068A5F10A0606EB46070726B4
:103F900006FA07F18843A5F10A0606EB460603FA7E
:103FA00006F10843E0600CE0206905EB45070726B1
:103FB00006FA07F1884305EB450603FA06F10843C4
:103FC0002061072A0FDA606B561E06EB86071F2654
:103FD00006FA07F18843561E06EB860605FA06F137
:103FE0000843606322E00D2A0FDA206BD61F06EB30
:103FF00086071F2606FA07F18843D61F06EB8606BA
:1040000005FA06F10843206310E0E06AA2F10D060C
:1040100006EB86071F2606FA07F18843A2F10D0674
:1040200006EB860605FA06F10843E062F0BD8168FA
:1040300041F0804181607047014600208A6802F0AB
:1040400080420AB1012000E00020704721B182685F
:1040500042F48062826003E0826822F480628260BF
:10406000704721B1826842F00202826003E08268F8
:1040700022F002028260704710B50A460021002338
:10408000416821F46041531E41EA4331416010BD53
:1040900021B1426842F40062426003E0426822F4C7
:1040A0000062426070470146C86C80B270476C483D
:1040B000001D0068704721B1826842F480728260FE
:1040C00003E0826822F480728260704721B18268C6
:1040D00042F40072826003E0826822F4007282601F
:1040E000704738B15E49096841F400515E4AC2F830
:1040F000041306E05A49096821F400515A4AC2F8EB
:1041000004137047F0B5044615460020002200262F
:10411000092911DDE068A1F10A0707EB470C072721
:1041200007FA0CF29043A1F10A0707EB470703FADD
:1041300007F21043E0600CE0206901EB410C072717
:1041400007FA0CF2904301EB410703FA07F2104320
:104150002061A06BC0F30156EF1C06F1010CA7EB28
:104160000C0707EB870C1F2707FA0CF29043EF1C94
:1041700006F1010CA7EB0C0707EB870701FA07F222
:104180001043A063F0BD10B50A4600210023816BE7
:1041900021F44011531E41EA0351816310BD08B55B
:1041A000002300930090009B0B440093009B1A6037
:1041B00008BD0A460021816821F470211143816005
:1041C00070470A460021816821F440111143816043
:1041D0007047816841F4800181607047014600208A
:1041E0008A6802F480020AB1012000E000207047D2
:1041F00021B1426842F48062426003E0426822F4E6
:1042000080624260704721B1426842F4805242604D
:1042100003E0426822F480524260704708B50246CB
:1042200000200090009201F12800009B18440090AB
:104230000098006880B208BD10B50B460021D9B2C5
:10424000012404FA01F11AB144680C43446002E00D
:1042500044688C43446010BDFFFEFFFCFDF7FFC0C7
:1042600004230140E030FCFF00200140FFFD3FFF40
:104270000246002013680B400BB1012000E0002033
:104280007047CA430260704770B5024600200023A1
:1042900000240B12556801268E4005EA06041568B5
:1042A0001D4015B10CB1012000E0002070BD0022BE
:1042B0000A12D3430360704710B501214807FEF787
:1042C000F1FD00214FF00050FEF7ECFD10BD30B5C0
:1042D000002200237B4C226840F6FE748440A243F7
:1042E000D1E900452C438D682C43CD6844EA050391
:1042F00003FA00F42243734C226030BD00210160B8
:1043000041608160C160704739B16E4A1268012313
:1043100083401A436B4B1A6006E06A4A1268012315
:1043200083409A43674B1A60704710B551B1654A94
:10433000121D126804090123A3401A43614B1B1D7F
:104340001A6009E05F4A121D126804090123A340A4
:104350009A435C4B1B1D1A6010BD40B15949091DA1
:10436000096841F00301574A121D116007E05549E1
:10437000091D096821F00301524A121D116070479E
:1043800010B53AB14F4B1B6801FA00F423434D4C72
:10439000236006E04B4B1B6801FA00F4A343494C31
:1043A000236010BD08B500220092464A009200F139
:1043B0000802009B1A440092009A116008BD08B5DB
:1043C000002200923F4A009200F11402009B1A441E
:1043D0000092009A116008BD30B50024002308281F
:1043E00002D142EA012401E042EA0144354B00F1E6
:1043F00020052B441C6030BD08B50146002000900C
:10440000304800902C2000EB9100009A104400905E
:104410000098006880B208BD41B12A4A12684FF482
:10442000805383401A43274B1A6007E0254A1268DD
:104430004FF4805383409A43224B1A60704710B563
:104440003AB1204B1B6801FA00F423431D4C236052
:1044500006E01C4B1B6801FA00F4A343194C2360CF
:1044600010BD10B502460020164B34331B6801FA0C
:1044700002F423400BB1012000E0002010BD01FA3E
:1044800000F2104B34331A60704730B502460020FA
:1044900000230C4C246801FA02F504EA0503094CD8
:1044A0003434246801FA02F52C4014B10BB1012018
:1044B00000E0002030BD01FA00F2024B34331A60F4
:1044C000704700000074004010B50446FE48844266
:1044D00008D101210846FEF7F6FC00210120FEF775
:1044E000F2FC9DE0B4F1804F08D101210846FEF7AF
:1044F000D9FC00210120FEF7D5FC91E0F34884426D
:1045000008D101210220FEF7CDFC00210220FEF798
:10451000C9FC85E0EE48844208D101210420FEF761
:10452000C1FC00210420FEF7BDFC79E0E94884428B
:1045300008D101210820FEF7B5FC00210820FEF774
:10454000B1FC6DE0E448844208D101211020FEF75F
:10455000A9FC00211020FEF7A5FC61E0DF488442A1
:1045600008D101212020FEF79DFC00212020FEF72C
:1045700099FC55E0DA48844208D101210220FEF777
:10458000A2FC00210220FEF79EFC49E0D5488442AF
:1045900009D101210804FEF796FC00214FF4803078
:1045A000FEF791FC3CE0D048844209D10121480447
:1045B000FEF789FC00214FF40030FEF784FC2FE069
:1045C000CA48844209D101218804FEF77CFC0021FD
:1045D0004FF48020FEF777FC22E0C548844208D1E2
:1045E00001214020FEF75EFC00214020FEF75AFC2E
:1045F00016E0C048844208D101218020FEF752FC19
:1046000000218020FEF74EFC0AE0BB48844207D11F
:1046100001218015FEF746FC0021A015FEF742FCA3
:1046200010BD00220288A84B98420ED0AC4B984295
:104630000BD0B0F1804F08D0A44B984205D0A44BCA
:10464000984202D0A34B984204D14FF68F731A4080
:104650004B881A43A04B984207D0A04B984204D0F5
:104660004FF6FF431A400B891A4302804B68C3621E
:104670000B880385944B984202D0994B984201D104
:104680008B7A03860123838270474FF0FF314160AC
:104690000021018001814180817270470185828201
:1046A00070470A46002101884FF68F731940114365
:1046B0000180704741627047C16270470146486A95
:1046C00070470146088D704721B1028842F002020E
:1046D000028004E002884FF6FD731A4002807047A2
:1046E00021B1028842F00402028004E002884FF601
:1046F000FB731A400280704721B1028842F08002A9
:10470000028004E002884FF67F731A4002807047EF
:1047100002884FF6F7731A40028002880A4302802B
:10472000704702884FF6FF431A40028002880A430E
:104730000280704721B1028842F00102028004E049
:1047400002884FF6FE731A400280704770B500244D
:1047500000220023058C4FF6FE7635400584028C3E
:104760008388048B4FF68F752C40B51E2C400D8826
:104770002C43751E2A408D892A434D882A43524D69
:10478000A84202D0564DA84213D14FF6F7752A40E1
:10479000CD892A434FF6FB752A408D882A434FF670
:1047A000FF652B404FF6FF552B400D8A2B434D8A5A
:1047B0002B43838004838D684563028470BD70B58C
:1047C000002400220023058C4FF6EF763540058447
:1047D000028C8388048B48F6FF752C404FF6FF450A
:1047E0002C400D884FF6FF7606EA05252C434FF640
:1047F000DF752A408D8906EA05152A434D8806EAA9
:1048000005152A43304DA84202D0354DA8421DD18E
:104810004FF67F752A40CD894FF6FF7606EA0515DB
:104820002A434FF6BF752A408D8806EA05152A43AC
:104830004FF6FF352B404FF2FF752B400D8A06EAED
:1048400085052B434D8A06EA85052B438380048327
:104850008D688563028470BD70B50024002200233A
:10486000058C4FF6FF6635400584028C8388848B67
:104870004FF68F752C404FF6FC752C400D882C435D
:104880004FF6FF552A408D894FF6FF7606EA05253B
:104890002A434D8806EA05252A430B4DA84202D03B
:1048A0000F4DA84238D14FF2FF752A40CD894FF6FF
:1048B000FF7606EA05252A434FF6FF352A408D8804
:1048C00006EA05252A4319E00000014000040040E3
:1048D00000080040000C00400010004000140040A0
:1048E00000040140004001400044014000480140F4
:1048F00000180040001C0040002000404EF6FF75EC
:104900002B404DF6FF752B400D8A06EA05152B430B
:104910004D8A06EA05152B43838084838D68C56321
:10492000028470BD70B5002200230024058C4EF671
:10493000FF7635400584038C8488828B48F6FF75AA
:104940002A404FF6FF452A400D884FF6FF7606EACB
:1049500005252A434DF6FF752B408D8906EA05355E
:104960002B434D8806EA05352B43FE4DA84202D065
:10497000FD4DA84208D14BF6FF752C400D8A4FF62D
:10498000FF7606EA85152C43848082838D68056452
:10499000038470BD0021018041808180816081811C
:1049A000C18101824182704770B503460020002416
:1049B0001846183001258D40ACB21D8CA5431D84CE
:1049C00009B108290AD100EB610005684FF68F761E
:1049D000354005600568154305600FE00D1FC5F300
:1049E0004E052844056848F6FF76354005600568A1
:1049F0004FF6FF7606EA02263543056070BD416337
:104A0000704781637047C1637047016470470A460D
:104A10000021018B4FF68F731940114301837047BA
:104A20000A460021018B48F6FF7319404FF6FF73C9
:104A300003EA02231943018370470A460021818B50
:104A40004FF68F7319401143818370470A46002146
:104A5000818B48F6FF7319404FF6FF7303EA022378
:104A60001943818370470A460021018B4FF6F77383
:104A700019401143018370470A460021018B4FF210
:104A8000FF7319404FF6FF7303EA022319430183B2
:104A900070470A460021818B4FF6F7731940114386
:104AA000818370470A460021818B4FF2FF731940C2
:104AB0004FF6FF7303EA02231943818370470A46C6
:104AC0000021018B4FF6FB7319401143018370479E
:104AD0000A460021018B4FF6FF3319404FF6FF7352
:104AE00003EA02231943018370470A460021818BA0
:104AF0004FF6FB7319401143818370470A4600212A
:104B0000818B4FF6FF3319404FF6FF7303EA022300
:104B10001943818370470A460021018B4FF67F734A
:104B200019401143018370470A460021018BC1F3EC
:104B30000E014FF6FF7303EA022319430183704706
:104B40000A460021818B4FF67F7319401143818300
:104B500070470A460021818BC1F30E014FF6FF73A7
:104B600003EA02231943818370470A460021018C1E
:104B70004FF6FD7319401143018470470A46002126
:104B8000018C4FF6F77319401143018470470A46B0
:104B90000021018C4FF6DF7319404FF6FF7303EAD3
:104BA00002131943018470470A460021018C4FF615
:104BB0007F7319404FF6FF7303EA02131943018410
:104BC00070470A460021018C4FF6FF5319404FF6FB
:104BD000FF7303EA02231943018470470A46002148
:104BE000018C4FF2FF7319404FF6FF7303EA022363
:104BF0001943018470470A460021018C4DF6FF736A
:104C000019404FF6FF7303EA0233194301847047DA
:104C100030B5002301248C40A3B2048C9C4304844F
:104C2000048C02FA01F5ADB22C43048430BD30B5DA
:104C3000002304248C40A3B2048C9C430484048C81
:104C400002FA01F5ADB22C43048430BD828B4FF2E1
:104C5000FF331A408283828B4FF6FF7303EA0123EE
:104C60001A4382837047F0B50C4615460021002296
:104C70000026078C4EF6FF7C07EA0C070784818B21
:104C8000028C4FF6FF7707EA043640F6FF473940BB
:104C90004FF6FF7707EA052739434FF6FF7707EA14
:104CA0000337394345F6FF773A4046F480573A4395
:104CB00081830284F0BD828B4FF6F3731A408283A6
:104CC000828B0A4382837047F0B50C46154600215B
:104CD00000220026078C4FF6FF6C07EA0C070784BA
:104CE000818B028C4FF6FF7707EA04264FF60C778C
:104CF00039404FF6FF7707EA03172F4339434FF246
:104D0000FF573A4046F480773A4381830284F0BDEE
:104D1000028B4FF2FF331A400283028B4FF6FF7370
:104D200003EA01231A4302837047F0B50C46154687
:104D3000002100220026078C4FF6EF7C07EA0C07C3
:104D40000784018B028C4FF6FF7707EA041640F6C2
:104D5000FF4739404FF6FF7707EA033739434FF6ED
:104D6000FF7703E0000001400004014007EA052747
:104D700039434FF65F773A4046F010073A430183D4
:104D80000284F0BD028B4FF6F3731A400283028B4C
:104D90000A4302837047F0B50C46154600210022F5
:104DA000068C4FF6FE773E400684018B028C4FF650
:104DB0000C7631407E1C06EA03162E4331434FF633
:104DC000F576324044F00106324301830284F0BD9F
:104DD00070B505460C46208850B92389A2886188A1
:104DE0002846FFF7D8FFE1882846FFF7CBFF25E0EC
:104DF000208804280AD12389A28861882846FFF7E1
:104E000094FFE1882846FFF783FF17E020880828F1
:104E10000AD12389A28861882846FFF755FFE188D7
:104E20002846FFF748FF09E02389A28861882846C1
:104E3000FFF719FFE1882846FFF708FF70BD002142
:104E400001804180012181800021C1800181704762
:104E50002DE9F04105460C4600260127608808B977
:104E6000022600E00026A088012801D1022700E0E8
:104E700001272088A0B92389A28861882846FFF7E6
:104E80008AFFE1882846FFF77DFF23893A463146AD
:104E90002846FFF74AFFE1882846FFF739FF13E06D
:104EA0002389A28861882846FFF73FFFE1882846CA
:104EB000FFF72EFF23893A4631462846FFF76BFF5E
:104EC000E1882846FFF75EFFBDE8F0810146486BA8
:104ED00070470146886B70470146C86B70470146B2
:104EE000086C70470A884B881A438B881A43CB8812
:104EF0001A430B891A434B891A438B891A43A0F82A
:104F0000442070470021018041808180C18001815F
:104F100041818181704731B1B0F8442042F40042B0
:104F2000A0F8442005E0B0F84420C2F30E02A0F837
:104F30004420704721B1828842F00402828004E05C
:104F400082884FF6FB731A408280704721B18288B5
:104F500042F00102828004E082884FF6FE731A401C
:104F6000828070471AB183890B43838102E0838971
:104F70008B43838170478182704702460020138AE9
:104F80000B400BB1012000E000207047CA430282B1
:104F9000704730B50246002000230024158A05EA38
:104FA0000103958905EA010413B10CB1012000E069
:104FB000002030BDCA430282704741EA0203A0F8D4
:104FC000483070471AB183890B43838102E083899B
:104FD0008B438381704721B1828842F0080282802E
:104FE00004E082884FF6F7731A4082807047018987
:104FF0004FF6F8721140018170470A46002101897D
:105000004FF68F73194011430181704730B5044644
:105010000D4629462046FFF7F0FF208940F00700A3
:10502000208130BD2DE9F04104460D4616461F464D
:10503000602D06D13B46012231462046FFF775FE22
:1050400005E03B46012231462046FFF7A4FE2946F3
:105050002046FFF7D2FF208940F007002081BDE8FD
:10506000F08130B50C4600210189C9B24FF6FF75B9
:1050700005EA0325154325432943018130BD2DE968
:10508000F04105460E4617469846002443463A46E8
:1050900031462846FFF7E5FF2C894FF6F8700440AB
:1050A00044F007044FF68F70044044F070042C81E4
:1050B000BDE8F081F0B504460D4616461F463B4656
:1050C000324629462046FFF7CCFF208940F4804035
:1050D0002081F0BD82884FF68F731A4082808288CB
:1050E0000A438280704702894FF6F8731A400281A2
:1050F00002890A430281704702894FF67F731A4082
:10510000028102890A4302817047F0B50C461546B8
:105110001E460021002200230189028B038C4FF6DA
:10512000F877394021434FF6FC473A4040F20117E7
:105130003A434FF6DD773B404FF6FF7707EA061715
:105140002F433B43018102830384F0BD21B1828858
:1051500042F08002828004E082884FF67F731A401A
:1051600082807047A0F85010704770B405880E8890
:105170004468D1F804C05368B54208D140884988D2
:10518000884201BF11888D425188884203D070BC8B
:105190006FF00200704705FB00F1880827D094EDFE
:1051A000001ADCED000A94ED010ADCED011A31EE83
:1051B000201AD4ED020A70EE211A9CED020A83ED4A
:1051C000001AC3ED011A94ED031ADCED031A30EE58
:1051D000800A401E71EE210A83ED020A04F11004D8
:1051E000C3ED030A03F110030CF1100CD7D111F039
:1051F000030030D0B0F1004F30D200282BDD211F4A
:105200001B1FACF1040210F0010F0AD091ED010A4E
:10521000D2ED010A091D121D30EE200A83ED010AAC
:105220001B1D400817D091ED010AD2ED010A401E66
:1052300030EE200A83ED010A91ED020AD2ED020A56
:1052400001F1080102F1080230EE200A83ED020AA2
:1052500003F10803E7D170BC00207047B4EC010AE9
:10526000401EFCEC010A30EE200AA3EC010AF5D145
:10527000F1E7018042804360704700002DE9F04F64
:1052800082B0466853680193058847884B880020A0
:1052900000900888874201BFB2F800C06545528877
:1052A00093421EBF6FF0020002B0BDE8F08F9FED89
:1052B000412A4FEA970EC7F3400B00BFDDE9000219
:1052C00002EB800A4A6898464FF00009B0EE420AA5
:1052D000B4465FEA0E0025D092ED001ADCED001A0C
:1052E00002EB8302DCED010A01EE810A92ED001A65
:1052F00002EB8302401ED2ED001A02EB830200EEA5
:10530000810A9CED021ADCED030A00040CF1100C7A
:10531000000C01EE210A92ED001A02EB830200EE6E
:10532000810AD9D117F0030026D0ACF10404A2EB16
:10533000830210F0010F08D002EB8302D4ED010AC2
:1053400092ED001A241D00EE810A5FEA0B0013D0D3
:1053500002EB830CD4ED010A9CED001A02EBC302B0
:10536000401E00EE810AD4ED020A92ED001A04F10B
:10537000080400EE810AEBD109F10100AAEC010A50
:105380001FFA80F9486800EB8902A8F101001FFAB2
:1053900080F8B8F1000F99D1009806EB8706184401
:1053A00080B20090681E05042D0C87D102B0002049
:1053B000BDE8F08F0000000070B405880E884468D6
:1053C000D1F804C05368B54208D140884988884262
:1053D00001BF11888D425188884203D070BC6FF0A4
:1053E0000200704705FB00F1880827D094ED001AF1
:1053F000DCED000A94ED010ADCED011A31EE601AD1
:10540000D4ED020A70EE611A9CED020A83ED001AD7
:10541000C3ED011A94ED031ADCED031A30EEC00A55
:10542000401E71EE610A83ED020A04F11004C3ED1F
:10543000030A03F110030CF1100CD7D111F0030093
:1054400030D0B0F1004F30D200282BDD211F1B1FC0
:10545000ACF1040210F0010F0AD091ED010AD2ED77
:10546000010A091D121D30EE600A83ED010A1B1DA1
:10547000400817D091ED010AD2ED010A401E30EE2E
:10548000600A83ED010A91ED020AD2ED020A01F1F0
:10549000080102F1080230EE600A83ED020A03F10E
:1054A0000803E7D170BC00207047B4EC010A401E2D
:1054B000FCEC010A30EE600AA3EC010AF5D1F1E739
:1054C0007047704770477047704700001FB584B041
:1054D00000200A9C06AB04AA02A90094AFF3008046
:1054E00018B1DDE9020108B010BD0348204000F00A
:1054F00033F800200146F6E70000207C754600F0F6
:1055000033F8AE4605006946534620F0070085464D
:1055100018B020B5FDF782F8BDE820404FF0000636
:105520004FF000074FF000084FF0000B21F007018B
:10553000AC46ACE8C009ACE8C009ACE8C009ACE8CE
:10554000C0098D46704710B50446AFF30080204671
:10555000BDE81040FAF781BE10B500F00FF8BDE8C5
:10556000104000F005B800000048704730070020E8
:10557000002801D0FCF79ABF7047000010B5022840
:1055800003D0410103D50DA112E0002010BD01019F
:1055900001D50FA10CE0C10001D511A108E08100E7
:1055A00001D512A104E0400001D513A100E00021C3
:1055B00015A000F039F8012010BD0000496E766199
:1055C0006C6964204F7065726174696F6E000000D1
:1055D000446976696465204279205A65726F0000DB
:1055E0004F766572666C6F7700000000556E6465DB
:1055F00072666C6F77000000496E65786163742095
:10560000526573756C7400005349474650453A2003
:1056100041726974686D657469632065786365704B
:1056200074696F6E3A20000070B505460C460A207A
:1056300000E06D1CFCF73CFF35B128780028F8D15C
:1056400002E0641CFCF734FF14B120780028F8D184
:10565000BDE870400A20FCF72BBF000021F000429B
:10566000A2F16052B2F5801F01F0004328BFD2F1D1
:105670007E6C51D9F1EE10CA1CF4400F14D15FEAD0
:10568000C00C43EAC20202EB507008BF70475FEAE9
:105690004C0C40F10000DFF880C241F0BB8028BF15
:1056A00020F0010001F0B6B8C30001F0004343EA66
:1056B000C20202EB507008BF70471B4248BF4FEA5E
:1056C0004C0C1CF4000F08BF401CDFF84CC201F06A
:1056D000A1B8C30001F0004343EAC20202EB5072DA
:1056E00004BF104670471B4248BF4FEA4C0C1CF4E5
:1056F000000FDFF824C218BF104641F08B8008BFAE
:10570000521C12F4000F08BF104601F0838021F0F4
:10571000004201F0004330E050EA410C04BF08466B
:1057200070475FEA125CBCF1FE0F1ED1F1EE10CAA9
:105730001CF4400FCDD15FEAC00C9BD05FEA001C87
:105740004FEAC20C4CEB507C04BFC2002CEAD27C66
:105750001CF4000F04BF4CEA0300DFF8BCC101F0E9
:10576000598021F00042A2F16052B2F5801F4FEA49
:10577000410C2ADB1CF5001F16D2F1EE10CA1CF4F6
:10578000806F06D02CF0005C4CF0805CA1F1406191
:105790002AE04FF07F40DFF884C143EA500001F077
:1057A00039B8084601F0E7B970B500F037FD00BF21
:1057B000000000B988000004FFF7F3BF21F0704239
:1057C00043EA507040EAC2007047F1EE10CA2CF074
:1057D000805C4CF0005C1CF4006F25D04B00B3F5EE
:1057E000001F51D301F140611CF4400F40F07E8056
:1057F0000CF0405CC3004CF0880C11D05CF0404CC5
:1058000010F0805F0CD0034610F1005041F1000110
:10581000020108BF20F00050834218BF2CF0004C5A
:1058200000F0604001F0A3BA1CF4400F1AD01B42F4
:1058300048BF4FEA4C0C1CF4000F13D112F1406228
:1058400048BF22F07F424FEAC00CBCF1010F43EA8F
:10585000C20242EB50704FF0880228BF42F08042F3
:1058600001F08EB912F1406248BF22F07F425FEA38
:10587000C00C43EAC20242EA50704FF0880218BFDF
:1058800042F0404201F07CB901F0004321F00041B8
:10589000094214D0B1FA81FCACF10B0CCCF120021E
:1058A00001FA0CF120FA02F241EA02014FEA0C522D
:1058B00000FA0CF0A1EB020181EA03010FE0B0FA5B
:1058C00080F200FA02F002F115024FEAD0214FEA0D
:1058D0000252A1EB02014FEA405081EA0301F1EECE
:1058E00010CA2CF0805C4CF0005C7BE762460CF048
:1058F000405CC3004CF0880C92D05CF0404C0942F4
:1059000048BF520012F4000F8AD110F1005041F14B
:1059100000012CF0004C83D188000040880000106A
:1059200010B5DFF840E211F5801C13F580141EEA73
:105930004C0F18BF1EEA440F00F0C88091EA030F15
:1059400048BF83F0004300F16E85841A71EB030CAD
:1059500005D2121943EB0C03001B61EB0C014FEA5B
:105960001154A4EB135C23EA6E0321EA045143F4BF
:105970008013DCF1200E53D322FA0CFE10EB0E0044
:1059800023FA0CFE41EB0E01CCF1200E03FA0EFEC1
:1059900010EB0E0051F10001B1F5801FCCF1200E8B
:1059A00053D201EB045112FA0EF2BDE8104008BFC9
:1059B0007047F1EE10CA1CF4400F1ED14FF0110CCD
:1059C00092F0000F4CF0804C40F12487401C38BF0F
:1059D0005FEA420240F01E87002814BF20F0010059
:1059E00041F100014FEA410313F5001F24BF4CF0C1
:1059F000805CA1F1C04100F00DBF11F0004F54BF19
:105A00001CF4000F1CF4800F4FF0110C4CF0804C74
:105A100040F00087401CC0F0FD8641F10001E1E745
:105A2000012A43EB0302ACF1200CDCF11F0E32BF64
:105A30004FF0000E23FA0CF310EB030041EB04517E
:105A4000B4EB115FAFD0A1EB045101F5801149080F
:105A50005FEA300002FA0EF242EA420201EB045120
:105A60005FEA320213D0BDE81040F1EE10CA1CF418
:105A7000400F1AD14FF0110C92F0000F4CF0804CF7
:105A8000B0D5401C38BF5FEA4202ABD1A4E7BDE805
:105A900010404FEA410313F5001F38BF7047DFF88D
:105AA000C8C0A1F1C04100F0B5BE11F0004F54BF15
:105AB0001CF4000F1CF4800F4FF0110C4CF0804CC4
:105AC00090D1401C8ED341F100018BE74EF4001EB3
:105AD0003EEA410418BF3EEA430439D091EA030F7D
